:020000040800F2
:1000000018070020890100089B1800082D1400081B
:1000100099180008130300081B19000800000000CD
:100020000000000000000000000000009F18000811
:1000300015030008000000009D180008C5180008FE
:10004000A3010008A3010008A3010008A301000800
:10005000A3010008A3010008A3010008A3010008F0
:10006000A3010008A3010008A3010008A3010008E0
:10007000A3010008A3010008A3010008A3010008D0
:10008000A3010008A3010008A3010008A3010008C0
:10009000A3010008A3010008A3010008A3010008B0
:1000A000A3010008A3010008A3010008A3010008A0
:1000B000A3010008A3010008A3010008A301000890
:1000C000A3010008A3010008A3010008A301000880
:1000D000A3010008A3010008A3010008A301000870
:1000E000A3010008A3010008A301000800F002F822
:1000F00000F03AF80AA090E8000C82448344AAF188
:100100000107DA4501D100F02FF8AFF2090EBAE885
:100110000F0013F0010F18BFFB1A43F0010318473B
:100120007821000098210000103A24BF78C878C1D7
:10013000FAD8520724BF30C830C144BF04680C60ED
:10014000704700000023002400250026103A28BF35
:1001500078C1FBD8520728BF30C148BF0B60704739
:100160001FB51FBD10B510BD00F09EF81146FFF77A
:10017000F7FF01F0E3FB00F0BCF803B4FFF7F2FF78
:1001800003BC00F0BFF80000094880470948004759
:10019000FEE7FEE7FEE7FEE7FEE7FEE7FEE7FEE737
:1001A000FEE7FEE704480549054A064B7047000094
:1001B00019190008ED000008180100201807002098
:1001C000180300201803002010B5203AC0F00B805F
:1001D000B1E81850203AA0E81850B1E81850A0E84B
:1001E0001850BFF4F5AF5FEA027C24BFB1E81850A5
:1001F000A0E8185044BF18C918C0BDE810405FEA15
:10020000827C24BF51F8043B40F8043B08BF704790
:10021000D20728BF31F8023B48BF11F8012B28BF95
:1002200020F8023B48BF00F8012B70474FF0000256
:1002300000B5134694469646203922BFA0E80C50DC
:10024000A0E80C50B1F12001BFF4F7AF090728BFB7
:10025000A0E80C5048BF0CC05DF804EB890028BF33
:1002600040F8042B08BF704748BF20F8022B11F05C
:10027000804F18BF00F8012B7047704770477047D8
:1002800010B500F009F8006810BD10B5044600F084
:1002900003F8046010BD000000487047B40000205F
:1002A00000487047B40000207546FFF7F9FFAE46DE
:1002B00005006946534620F00700854618B020B572
:1002C000FFF770FFBDE820404FF000064FF0000739
:1002D0004FF000084FF0000B21F00701AC46ACE8EE
:1002E000C009ACE8C009ACE8C009ACE8C0098D465B
:1002F000704710B50446AFF300802046BDE81040BB
:10030000FFF73BBF01491820ABBEFEE72600020005
:100310007047FEE77047000070B5044600F0FEF835
:100320000546601C02D004480078044400F0F6F84A
:10033000401BA042FAD370BD240000202DE9F84FE5
:10034000DFF8B891002409F1040A0AF1040B2346EE
:100350000F270BF1040EC9E00125A5402A40AA424F
:100360007DD1674ED1F804C0ACEB0608B44532D05D
:1003700014DCBCF1030F3AD009DCBCF1000F2AD029
:10038000BCF1010F1CD0BCF1020F31D11DE0BCF15A
:10039000110F17D0BCF1120F2AD119E0B8F5881F40
:1003A00019D006DCB8F5803F15D0B8F5801F1FD1F5
:1003B00011E0B8F5001F0ED0B8F5041F18D10AE0FF
:1003C000CB6815E0CB681B1D12E0CB6808330FE04B
:1003D000CB680C330CE08B682BB1012B4FF008037A
:1003E00003D0456104E0042302E0056100E000233E
:1003F000FF2A01D8064601E000F104064FEA840511
:1004000001D9A5F12005D6F8008007FA05FC28EAF5
:100410000C0803FA05F548EA0508C6F800804D689F
:10042000ED0062D5374DAE6946F00106AE61AD69AB
:1004300024F0030605F001050095334D06EB050C8D
:10044000DCF80850A607360F07FA06F825EA080573
:10045000DFF8B880404503D14FF0000817E044E0D2
:10046000DFF8AC80404502D14FF001080FE0DFF823
:10047000A480404502D14FF0020808E0DFF89880E0
:10048000404502D14FF0030801E04FF0040808FA9C
:1004900006F848EA0508CCF808804D68D9F80060ED
:1004A000ED034D4601D5164300E096432E604D689E
:1004B000DAF80060AD03554601D5164300E09643D7
:1004C0002E604D68DBF80060ED025D4601D51643F5
:1004D00000E096432E604D68DEF80060AD02754680
:1004E00001D5164300E096432E60641C0D682A4631
:1004F000E5407FF431AFBDE8F88F00000004014013
:1005000000001110001002400000014000080140EE
:10051000000C0140001001400014014001488068B7
:10052000704700002400002070B5040025D094F826
:100530003D00002520B984F83C50204600F00EFB19
:10054000242084F83D002068016821F00101016049
:100550002068016841F4004101602068016821F4CD
:100560000041016000F04AFC4D4A6168914201D8A7
:100570004C4900E04C49884201D2012070BD4B49F2
:100580002368B0FBF1F15E6826F03F060E435E6023
:100590006368934206D94FF4967359434FF47A73C4
:1005A000B1FBF3F12368491C1E6A26F03F06314374
:1005B00019626168914210D84900401EB0FBF1F207
:1005C000521CC2F30B02042A01D2042022E0B0FB29
:1005D000F1F0401CC0F30B001CE0A268F2B301EB89
:1005E000C10303EB0116431EB3FBF6F35B1C43F49C
:1005F00080431B0549D092B301EBC10202EB01110C
:10060000401EB0FBF1F0401CC0F30B0040F48040F2
:1006100040F400402168CA694CF6FF739A431043C6
:10062000C861D4E9071001432068026822F0C002C3
:1006300011430160D4E9030101432068826848F254
:10064000FF339A4311438160D4E9050108432168CF
:10065000CA6822F0FF021043C86001E00EE016E015
:100660002068016841F0010101602564202084F8C0
:100670003D00256384F83E50002070BD01EB41062B
:10068000431EB3FBF6F35B1CB3E70120C2E701EBAB
:100690004101401EB0FBF1F0401CC0F30B00B7E776
:1006A000A086010080841E0000093D0040420F002A
:1006B0002DE9F84F1F4690468A460446DDF82890FB
:1006C000FFF72CFF054694F83D0020287FD1192321
:1006D000012240492046009501F006F8002876D115
:1006E00094F83C00012872D0012084F83C00206876
:1006F0000168C90703D1016841F001010160206868
:10070000016821F400610160212084F83D0010207F
:1007100084F83E0000262664C4F824806785608D36
:1007200020852D48E0622B464A465146204600F07F
:1007300095FE90B9206841698069009036E02A46AC
:100740004946204601F082F850B1206C042804D1BB
:100750002068016841F4007101600120BDE8F88F54
:10076000606A216800780861606A401C6062618D7F
:10077000491E6185218D491E89B2218522685369F0
:10078000DB435B070BD451B100781061606A401CF9
:100790006062608D401E6085208D401E20852A4647
:1007A0004946204600F07AFF0028CED1208D00284F
:1007B000C5D154F83D0B016841F40071016020205F
:1007C00004F81E09E67766770020C7E7FFE70220F6
:1007D000C4E70000020010000000FFFF2DE9FF4FFA
:1007E00083B00025DDE910799A4693460446DDF88A
:1007F00048800095FFF792FE064694F83D002028B9
:100800007CD11923012285492046009600F06CFF17
:100810000028F5D194F83C0001286FD0012084F81D
:100820003C0020680168C90703D1016841F001015B
:1008300001602068016821F400610160222084F8D1
:100840003D00402084F83E0025646762A4F82A90A9
:10085000608D20857248E062CDE9008653465A4695
:100860002046049900F048FE00287DD1208DDFF855
:10087000B491202768B1012814D0022820680168AB
:100880001ED041F480610160206841698069009058
:10089000B6E02068416981690091016841F4007106
:1008A0000160ADE02068016821F48061016072B6EA
:1008B0002068416981690091016841F400710AE092
:1008C00041F40061016072B620684169816900915C
:1008D000016821F48061016062B691E0032868D864
:1008E00001280CD0022843464FF00002494620461A
:1008F00000960FD000F0F8FEB0BB10E08BE032465F
:100900004146204600F06FFF70BB20680069616AB5
:1009100008706CE000F0E8FE30BB72B634E020688E
:10092000016821F48061016072B620680069616A23
:100930000870606A401C6062208D401E2085608DBA
:10094000401E6085384846F2A8110068B0FBF1F0FF
:10095000C0EBC00000EB80000090401E009008D06B
:1009600020684069C04300E029E040070CD50098AA
:10097000F3E744F8305F6773A573206940F0200007
:10098000206162B625731AE02068016841F40071A5
:10099000016020680069616A0870606A401C6062DA
:1009A000218D491E2185618D491E618562B62168B0
:1009B0001BE032464146204600F015FF18B10120E9
:1009C00007B0BDE8F08F20680069616A0870606A4E
:1009D000401C6062218D491E2185618D491E618503
:1009E00021684A69D24352070AD409690170606AD2
:1009F000401C6062208D401E2085608D401E6085F9
:100A0000208D00287FF46AAF84F83D7084F83E5052
:100A100084F83C50D4E70220D2E700000200100026
:100A20000000FFFF04000100300000202DE9FF4F0F
:100A300083B09A46DDE9119793460446DDF840807D
:100A4000FFF76CFD054694F83D0020287FD119235F
:100A5000012240492046009500F046FE002876D14C
:100A600094F83C00012872D0012084F83C002068F2
:100A70000168C90703D1016841F0010101602068E4
:100A8000016821F400610160212084F83D004020CC
:100A900084F83E0000262664C4F82480A4F82A9036
:100AA000608D20852C48E062CDE9007553465A469A
:100AB0002046049900F09EFD70B930E02A46394680
:100AC000204600F0C3FE58B1206C042804D12068F1
:100AD000016841F400710160012007B0BDE8F08FAA
:100AE000606A216800780861606A401C6062218D3C
:100AF000491E89B22185628D521E62852268536922
:100B0000DB435B070BD469B100781061606A401C5D
:100B10006062208D401E2085608D401E6085208D86
:100B20000028CBD12A463946204600F0B7FD0028E0
:100B3000CAD154F83D0B016841F4007101602020D6
:100B400004F81E09E67766770020C6E7FFE7022073
:100B5000C3E70000020010000000FFFF10B586B0E0
:100B6000002100910191029103910068104988428F
:100B70001BD1104CA06940F00800A061A069694633
:100B800000F0080004904FF44060009012200190A3
:100B9000032003900848FFF7D1FBE06940F4800090
:100BA000E061E06900F48000049006B010BD000030
:100BB0000058004000100240000C014002488168CB
:100BC000027811448160704724000020074810B566
:100BD000016841F010010160032000F067F80F2068
:100BE00000F006F800F024F8002010BD00200240BC
:100BF00070B50D4D04464FF47A712878B1FBF0F0D2
:100C00000A490968B1FBF0F000F0CEFA48B9102C9F
:100C100007D200222146501E00F028F800206C6008
:100C200070BD012070BD00002400002030000020B5
:100C30000C4808B5816941F001018161816901F0C9
:100C400001010091C16941F08051C161C06900F0AA
:100C5000805000900448416821F0E06141F000714B
:100C6000416008BD0010024000000140F0B40E4B8E
:100C70001B680C46C3F30223C3F10705042D00D9FA
:100C80000425191D072901D2002300E0DB1E0126DF
:100C900006FA05F1491E214099409E40761E1640F5
:100CA0003143F0BC00F03ABE0CED00E0064900F024
:100CB000070208684FF6FF03184040EA0220034A83
:100CC00010430860704700000CED00E00000FA05DA
:100CD0002DE9F0470F46050061D0434E306800F023
:100CE0000700B84209D2306820F00700384330606E
:100CF000306800F00700B84251D128683B4C8107AA
:100D000012D5400703D5606840F4E0606060287841
:100D1000000703D5606840F4605060606068A968AF
:100D200020F0F000084360602878C00728D0686889
:100D3000012810D02168022810D0890700292EDA56
:100D4000616821F0030101436160FFF7E7FB804622
:100D500041F288390DE021688903EFE78901EDE769
:100D6000FFF7DCFBA0EB0801494502D90320BDE8F1
:100D7000F0876068696800F00C00B0EB810FEFD17C
:100D8000306800F00700B8420BD9306820F0070047
:100D900038433060306800F00700B84201D00120CD
:100DA000E5E72878400705D56068E96820F4E06049
:100DB000084360602878000706D56068296920F438
:100DC000605040EAC100606000F028F86168084A9D
:100DD000C1F30311515CC840064908600648006829
:100DE000FFF706FF0020C2E700200240001002408B
:100DF0007E22000830000020280000200448054919
:100E000000684968044AC1F30221515CC840704738
:100E100030000020001002408E22000812A185B090
:100E20000FC98DE80F0014A0144A0068049051689F
:100E3000134801F00C03042B10D0082B0ED1C1F382
:100E40008343C9031DF803000AD5516804AAC1F3FE
:100E50004041515C0A4A5043B0FBF1F005B0704785
:100E600008494843FAE70000020304050607080999
:100E70000A0B0C0D0E0F10100102000000100240B2
:100E800000127A0000093D002DE9F84F040070D0EF
:100E90002078C04DC00749D06868C0F381000128A0
:100EA00007D06868C0F38100022809D16868C003D0
:100EB00006D52868800339D560680028E7D035E07A
:100EC0006068B0F5803F0BD010B1B0F5A02F11D005
:100ED000286820F480302860286820F4802002E010
:100EE000286840F480302860606890B1FFF716FBF6
:100EF00006460AE0286840F480202860F0E700BF3A
:100F0000FFF70CFB801B642873D828688003F7D593
:100F10000CE0FFF703FB064605E000BFFFF7FEFA13
:100F2000801B6428F0D828688003F7D420789A4E74
:100F300080074FF001094FF0000839D5686810F0BC
:100F40000C0F07D06868C0F38100022809D16868D7
:100F5000C00306D42868800714D52069012808D169
:100F600010E02069B0B1C6F80090FFF7D7FA074645
:100F700005E00AE1FFF7D2FAC01B0228C4D82868AE
:100F80008007F7D52868616920F0F80040EAC100C1
:100F900028600DE0C6F80080FFF7C0FA074604E0BD
:100FA000FFF7BCFAC01B022823D828688007F7D4B3
:100FB000207800072CD57948A169D9B1C0F80090F4
:100FC000FFF7ACFA074604E0FFF7A8FAC01B0228B7
:100FD0000FD8686A8007F7D571484FF4FA51006856
:100FE000B0FBF1F0009000BF0098411E0091FAD2D2
:100FF0000EE080E0C0F80080FFF790FA074604E0BA
:10100000FFF78CFAC01B022875D8686A8007F7D4EE
:101010002078400760D5E8690027C00008D4E86957
:1010200040F08050E861E869012700F080500090AE
:101030005C480168C90513D40168834641F4807196
:101040000160FFF76BFA824606E000BFFFF766FA21
:10105000A0EB0A0064284ED8DBF80000C005F5D5E7
:10106000E06801280AD008B1052813D0286A20F0CA
:1010700001002862286A20F0040002E0286A40F09B
:1010800001002862E06841F2883B98B1FFF746FA18
:1010900082460BE0286A40F004002862EEE700BFB9
:1010A000FFF73CFAA0EB0A0159455AD8286A800795
:1010B000F6D50CE0FFF732FA824605E0FFF72EFA8C
:1010C000A0EB0A0159454CD8286A8007F6D41FB115
:1010D000E86920F08050E861E06988B36968C1F38D
:1010E0008101022944D00228C6F8608004D0FFF7AD
:1010F00015FA044638E034E0FFF710FA074604E03A
:10110000FFF70CFAC01B02282BD828688001F7D4FF
:10111000206AB0F5803F05D16868A16820F40030EE
:1011200008436860D4E908010843696821F4741130
:1011300008436860C6F86090FFF7F0F9044606E0DF
:1011400025E000BFFFF7EAF9001B022809D828684C
:101150008001F7D51BE000BFFFF7E0F9001B022874
:1011600002D90320BDE8F88F28688001F4D40EE08E
:101170000128F7D06868226A00F48031914204D1D6
:10118000616A00F47010884201D00120EAE7002073
:10119000E8E70000001002400000424280044242A2
:1011A000300000200070004010B5401EB0F1807F7C
:1011B00001D3012010BD4FF0E02460610F216017C2
:1011C00000F0ACFB0020A06107202061002010BDD2
:1011D00010B501216B2000F063FB0221BDE8104037
:1011E000372000F05DBB10B5002000F08BF8072120
:1011F00001EA900010BD10B5022000F083F800F065
:10120000030010BD10B5012000F07CF8400910BDAE
:1012100010B5002000F076F8032101EA501010BD4F
:101220002DE9F0410646032000F056F800F0CEFE0E
:10123000254D696800F0E2FE244F394600F004FEB7
:10124000A96800F09FFD224C2060072000F044F8C0
:1012500000F0BCFE696800F0D1FE394600F0F4FDF4
:10126000E96800F08FFD6060052000F035F800F0BF
:10127000ADFE696800F0C2FE394600F0E5FD154993
:1012800000F088FF0146A06000F0B8FE07466068E5
:10129000014600F0B3FE05462068014600F0AEFEB0
:1012A000294600F06FFD394600F06CFD00F03EFD70
:1012B00000F0AAFB00F0CEFB206221463046BDE8DC
:1012C000F0412C22FEF780BF1400002000002041D6
:1012D000880000203333E4411FB54FF4FA73022233
:1012E00003A98DE80E00024601233C210448FFF7C4
:1012F00075FABDF80C0004B040BA00B210BD000091
:10130000340000201FB54FF4FA73012203A98DE8C1
:101310000E00134602463C210348FFF75FFA9DF892
:101320000C0004B010BD00003400002010B50446CD
:101330000020FFF7E7FF00F0E30040EA8400C1B2BD
:10134000BDE81040002000F05BB810B50446022054
:10135000FFF7D8FF00F0FC012143BDE81040022058
:1013600000F04EB870B50D4600F030FE034CA060A2
:10137000284600F02BFEE06070BD00001400002045
:101380000E49082809D2DFE800F004060D0F1113FA
:1013900015170B4A00E00B4A4A604007010E012076
:1013A00000F02EB8084AF7E7084AF5E7084AF3E7DD
:1013B000084AF1E7084AEFE7084AEDE71400002081
:1013C00048E13A3F1F856B3FF6289C3F5C8FC23F48
:1013D000AE4711400AD7234085EB414033338B4061
:1013E00010B504460020FFF78DFF00F09F0040EA93
:1013F0004410C1B2BDE81040002000F001B8000068
:1014000003B583B04FF4FA73012204A98DE80E00EE
:10141000134602463C210448FFF708FB0A20FEF76A
:101420007BFF05B000BD000034000020FEE701682E
:101430004A69D24352050FD46FF480624A61002199
:1014400040F8301F202242738173026942F0040287
:10145000026101730120704700207047F8B504460F
:10146000C06A1E460D461746082807D0012805D039
:1014700010F5803F02D0206B122804D1206801684B
:1014800041F480710160134600224FF001112046A3
:10149000009600F029F940B120680068C00502D527
:1014A0004FF4007020640320F8BD2069B0F5804F30
:1014B0000ED00620216800EAD51040F0F000086147
:1014C00033463A460B49204600F042F978B902E02B
:1014D00005F0FE0000E0E8B22168086105493346E6
:1014E0003A46891F204600F033F90028DCD001205D
:1014F000F8BD0000080001002DE9F84F044600681F
:1015000089460B9D01689846174641F48061016049
:101510002068016841F48071016000954FF0011B63
:101520000022594620460A9B00F0DEF84FF4007A6C
:1015300040B120680068C00501D5C4F840A0032070
:10154000BDE8F88F216809F0FE0008612B462849A4
:1015500020460A9A00F0FCF8F0BB206841698069D7
:1015600000902A4620460A9900F070F940B1206C9C
:1015700004283AD12068016841F40071016034E028
:10158000FEB2B8F1010F09D02168380A08612A4675
:1015900020460A9900F05AF90028E8D1206806612F
:1015A0002A4620460A9900F051F90028DFD1206828
:1015B000016841F48071016000950022594620467F
:1015C0000A9B00F091F80028B3D1216809F0FF00D0
:1015D00040F00100086100E007E02B460449204686
:1015E0000A9A00F0B5F80028AAD00120A8E7000068
:1015F000020001002DE9F843044600680D46DDE9CC
:10160000089701689846164641F4807101604B4680
:1016100000224FF001112046009700F065F848B114
:1016200020680068C00502D54FF4007020640320D4
:10163000BDE8F883216805F0FE0008613B464A4694
:101640001549204600F084F888B92068416980690E
:1016500000903A464946204600F0F8F848B1206C20
:10166000042804D12068016841F400710160012060
:10167000DEE7F5B2B8F1010F09D02168300A086140
:101680003A464946204600F0E1F80028E7D12068B4
:1016900005610020CCE700000200010070B516468D
:1016A0000D4604460DE02046FFF7C1FE08B10120BB
:1016B00070BD681C05D0FEF731FF801BA84207D81B
:1016C00035B120684069C0434007ECD4002070BDAC
:1016D000002044F8300F20216173A073216941F08C
:1016E000200121612073E2E72DE9F0471E46904674
:1016F0000D460446C1F30747DDF8209008E0701C52
:1017000006D0FEF70BFFA0EB0900B0420FD876B170
:101710002068012F18D0806925EA00000004000C21
:1017200014D000214145EAD00020BDE8F087002018
:1017300044F8300F20216173A073216941F020012A
:10174000216120730120F0E74069E5E70121E9E725
:101750002DE9F0479A4691460E46044600254FF083
:101760002008C1F3074725E020684069C0434005D1
:1017700014D42068016841F40071016021686FF49D
:1017800080604861256384F83D8084F83E50206C79
:1017900040F00400206484F83C501FE0B9F1FF3FA2
:1017A00008D0FEF7BBFEA0EB0A0149450CD8B9F101
:1017B000000F09D02068012F13D0806926EA0000AD
:1017C0000004000C0BD0CFE744F8305F84F80D80A4
:1017D000A573206940F02000206125730120BDE839
:1017E000F0874069EAE72DE9F041002590460E4672
:1017F0000446202717E04069C043C0060CD454F8C3
:10180000301B6FF01000486144F810596777A577D6
:10181000206A2062257717E0FEF780FEA0EB080023
:10182000B04208D83EB120684169C9434906E2D4B4
:101830000020BDE8F08144F8305F6773A57320692C
:1018400040F02000206125730120F2E770B51646B4
:101850000D4604460DE02046FFF7E9FD08B10120E2
:1018600070BD681C05D0FEF759FE801BA84207D842
:1018700035B120684069C0430006ECD4002070BD3B
:10188000002044F8300F20216173A073216941F0DA
:10189000200121612073E2E7FEE7FEE77047704711
:1018A00008B5064A0223107051704FF47A70009008
:1018B000D0210348FEF7FCFE08BD00001400002004
:1018C00034000020FFF77AB910B590B0282168469F
:1018D000FEF7ACFC14210AA8FEF7A8FC0220009039
:1018E0000120049010200024059007946846FFF71B
:1018F000CBFA08B172B6FEE70F20CDE90A040C94CA
:101900000D9400210AA80E94FFF7E2F9002801D0F7
:1019100072B6FEE710B010BD7047FEE70907090E6A
:10192000002804DB00F1E02080F80014704700F08C
:101930000F0000F1E02080F8141D70478CB0FFF715
:1019400045F9FFF7C1FF2B48816941F02001816112
:10195000816901F020010091816941F008018161F4
:10196000816901F008010091816941F00401816100
:101970008069214900F00400009020484FF4804223
:1019800001601F49416000218160C0E9031241618B
:101990008161C1610162FEF7C7FD08B172B6FEE761
:1019A000FFF716FC0020FFF7EBFC0020FFF7CDFC53
:1019B0000620FFF7BBFC0320FFF712FD16210A20CB
:1019C000FFF7D0FC6420FEF7A7FC0E4C0A20FFF7BF
:1019D00083FC2070FFF716FC6060FFF70CFCA06032
:1019E000FFF701FCE060FFF713FC20616846FFF79A
:1019F00017FCEBE7001002400058004034000020C4
:101A0000801A0600000000202DE9F04106460F462E
:101A100000F0A6F8041E0D4618BF0120284320F050
:101A20000040C0F17F6000F1E040C00F0ED0301CDC
:101A300018BF0120384320F00040C0F17F6000F162
:101A4000E040C00F04BF0120FEF71FFC20462946DE
:101A5000BDE8F08121F00042A2F16052B2F5801F92
:101A600001F0004328BFD2F17F6C0BD95FEA001C64
:101A700043EAC20242EB507018BF704728BF20F003
:101A800001007047B2F5801FBCBF184670474FEA8F
:101A9000410C1CF5001F02D2084600F076BB70B561
:101AA00000F009F800000089FFF7F6BF4FF0004092
:101AB000A0F5800070470EF1020E2EF0030E5EF8C6
:101AC000046B364205D4012A43EB030515F5001FCC
:101AD00012D8012841EB010C1CF5001F0CD80ED1C7
:101AE0004FEAD17C15F5001F0CEB4C0C0CF1020CED
:101AF00008BF4CEBD37C04E04FF0080C01E04FEA48
:101B0000D37C0CEB4C0526FA05F606F00706B6F179
:101B1000040C06D20EEB860CBDE870404CF0010CB4
:101B20006047DFE80CF0090B02024FF000414FF074
:101B30000000A1F5002170BD19461046012851EBA7
:101B4000010418BFD4F5001484BF002001F0004147
:101B500070BD0808A0F500114FEA31017047000080
:101B60002DE9F04101F5801CBCF5001FC0F2C380D7
:101B70004FEA115C21EA0C510CF1FD0C41F480118B
:101B80005FEA5C0C0CF5C07C01D3400049413DA4E8
:101B9000890241EA905187028E0E0A0CA45D04FB73
:101BA00004F602FB06F6C6F14046A4FB0662F60DFB
:101BB00046EA422606FB06F4A4FB01235242C3F187
:101BC000404338BF5B1EA6FB02420024E6FB032411
:101BD000D20B42EA4446A6FB0623A1FB02E2A3FB8A
:101BE00007E4A4184FF0000252F10002E3FB0142A7
:101BF0006442C2F1404E38BFAEF1010EA6FB042391
:101C00004FF00002E6FB0E32A2FB03464FF0000449
:101C1000B61954F10004E2FB0264A1FB06E6A4FB42
:101C200007E816EB08064FF0000858F10008E4FB3F
:101C300001687642C8F1405838BFA8F10108A2FBFC
:101C400006E4A3FB08E52D194FF0000454F100044D
:101C5000E2FB0854A1FB05E6A7FB04E818EB060825
:101C60004FF0000656F10006E1FB048618F120054E
:101C700056F10006A809A8F11B08B10908F03F08B1
:101C8000B8F10A0F40EA86601CD901EB0C51BDE89F
:101C9000F08100BFFCF5EEE8E2DDD8D3CFCBC7C3BF
:101CA000C0BDB9B6B4B1AEACA9A7A5A3A19F9D9B79
:101CB0009A9896959392908F8D8C8B89888786853C
:101CC00084838281A0FB006800FB01F208EB4208DC
:101CD000B8EB872807D5341858EB0104D5D5401C3C
:101CE00051F10001D1E7341A78EB0104CDD4401E44
:101CF00071F10001C9E75FEA4C0C5FEA9C5C0DD111
:101D000005D34FF0000001F00041BDE8F081BDE8CF
:101D1000F04170B5FFF7CFFE6DDBFFBEBDE8F041CF
:101D20004FF00000004970470000F87F43004FEA81
:101D3000D30C4FEA3C0C43401FBF40070CF16051ED
:101D400013F0FE4F70471CF0006F03D100200CF021
:101D5000004170470CF0004343EA507010B540EA70
:101D6000CC0000F0CCF900BF000000924FEA000167
:101D7000FFF7EFBE4FF000414FF00000A1F500214A
:101D80007047000090EA010F48BF81F0004100F168
:101D90000882421A3CBF801A89184FEAD0524FF08D
:101DA0007F4C1CEA410FA2EBD15318BF9CEA026F93
:101DB00000F03B804FF0004C4CEA00204CEA01213F
:101DC00021FA03FC10EB0C0C1ED202F1FF325FEA89
:101DD0001C2040EBC25038BF70471CF07F0F4FEA09
:101DE000400C18BFBCF17F4F38BF7047C3F12003D0
:101DF000994008BF20F00100BCF17F4F38BF704709
:101E0000A0F1C04000F0C1B94FEA3C00000A40EB2D
:101E1000C25028BF1CF0FF0F4FEA400CE6D018BF9D
:101E2000BCF17F4F38BF7047EAE79CEA026F05D0EC
:101E300010EA5C0F08BF00F00040704710B500F0DA
:101E40005EF900BF64FBBE3E4FF47F0C1CEAD0126B
:101E50001EBF1CEAD11392EA0C0F93EA0C0F00F09C
:101E6000858090EA010F48BF42F4807240F4000C74
:101E700041F400002CF07F4120F07F4000B581420A
:101E8000A2EB03020FF2081CACEB504EC0F10000B5
:101E90009EF800E04FEA4E0E00FB0EFC38BF4900F2
:101EA0004FEA2C1C02F5FA020CFB0EF34FEACE1E91
:101EB0004FEA112C4FEAC1210EEB635E42EB224246
:101EC0000EFB0CFC4FEA1C5300FB03114FEA112CD4
:101ED0004FEA01310EFB0CFC4FEADC4C00FB0C110D
:101EE000C14228BF09184CEB03335DF804EB10EB3B
:101EF000410143EBC250B2F57C0F38BF704729D582
:101F000012F0F00F1CBF00F1C04000F0004070471D
:101F1000008182838485868788898B8C8D8E8F91C2
:101F20009293959697999A9C9D9FA0A2A3A5A7A8E6
:101F3000AAACAEB0B2B3B5B7B9BCBEC0C2C5C7C912
:101F4000CCCED1D4D7D9DCDFE2E6E9ECF0F3F7FA76
:101F5000FE0000004FEA400C0CF1807CBCF17E4F8B
:101F600028BF7047B0F1C04000F00FB990EA010FF0
:101F70000CEAD11348BF42F48072624538BF634512
:101F800007D213F47F0F16D080EA010000F0004062
:101F9000704710B500F0B3F8097EFC3E00F005B8BC
:101FA00080EA010000F00040704780EA010000F084
:101FB000004000F0EAB812F47F0F04BF02487047F7
:101FC00080EA010000F0E1B80000C07F10F000419D
:101FD00048BF4042B0FA80F310FA03F2C3F19D0308
:101FE0000BD051EAC35101EB1220530638BF7047A2
:101FF00000F1010008BF20F0010070474FF47F0C92
:102000001CEAD0121EBF1CEAD11392EA0C0F93EA0D
:102010000C0F00F0478090EA010F48BF42F4807235
:102020004FF0004C4CEA00204CEA012102EB030285
:10203000A0FB0113A2F50002002918BF43F0010321
:102040005B0028BF4FEA330342EB22425FEA132CC6
:102050004CEBC2502EBFBCEB436FB2F57C0F704708
:102060004FEA036CBCF1004F08BF20F00100B2F54D
:102070007C0F38BF70470BD582F0FF0212F5803F0E
:10208000C8BF704700F1C040D8BF00F000407047A3
:1020900000F5000C5FEA4C0C48BF7047B0F1C0403F
:1020A00000F073B890EA010F0CEAD11348BF42F474
:1020B0008072624538BF634504D280EA010000F0B7
:1020C0000040704710B500F01AF800BF8900013ECB
:1020D00000F007B800F009B85FEA410C5FEA1C6C39
:1020E00008D080EA010000F050B85FEA400C5FEAD7
:1020F0001C6CF6D14FF00040A0F5800070470EF147
:10210000020E2EF0030E5EF8044B244204D44FEA74
:102110004102B2F17F4F11D84FEA4003B3F17F4F34
:102120000CD80ED14FEAD07CB2F17F4F0CEB4C0CA7
:102130000CF1020C08BF4CEBD17C04E04FF0080C12
:1021400001E04FEAD17C0CEB4C0324FA03F404F0D9
:102150000704B4F1040C06D20EEB840CBDE8104069
:102160004CF0010C6047DFE80CF0070802024FF06A
:102170000040A0F5800010BD0846420018BFD2F113
:10218000807288BF00F0004010BDFF2141EAD050AE
:10219000C005704790EA010F48BF81F000413FF54C
:1021A000F8AD421A04D882F00042A0EB02001144BC
:1021B0004FEAD0524FF07F4C1CEA410FA2EBD153B3
:1021C00018BF9CEA026F4AD04FF0004C4CEA002046
:1021D0004CEA012121FA03FCB0EB0C0C0FD412F0F5
:1021E000FE0F36D05FEA4C001DD5001240EBC25006
:1021F00038BF70471CF03F0F18BF70470BE0A2F1CB
:1022000001025FEA1C2040EBC25038BF70471CF04F
:102210007F0F18BF7047C3F12003994014BF401EC1
:1022200020F00100704780084FEA122308BF704772
:10223000B0FA80FCA2EB0C02CCF1280C60FA0CF096
:1022400093EA122F04BF00EBC25070474FEAC370ED
:102250007047130A5FEADC1008BF7047F6E79CEA94
:10226000026F04D010EA5C0F08BF0020704710B561
:10227000FFF745FF40DFF63E81F000407047000069
:102280000000000000000102030406070809000026
:102290000000010203040000B82200080000002032
:1022A0003400000028010008EC220008340000205F
:1022B000E4060000440100080000000000000000E7
:1022C000000000000000000000000000000000000E
:1022D00048E13A3F0000000000000000010000005B
:0C22E00010000000000000000024F400CA
:04000005080000ED02
:00000001FF
