:020000040800F2
:10000000A00A0020A5010008333B000819360008AB
:10001000313B0008451C0008D13E000800000000EC
:10002000000000000000000000000000373B000856
:100030007F1C000800000000353B00085D3B000805
:10004000BF010008BF010008BF010008BF01000890
:10005000BF010008BF010008BF010008BF01000880
:10006000BF010008BF010008BF010008BF01000870
:10007000BF010008BF010008BF010008BF01000860
:10008000491C0008BF010008BF010008BF010008AB
:10009000BF010008BF010008BF010008BF01000840
:1000A000BF010008BF010008BF010008BF01000830
:1000B000BF010008BF010008BF010008BF01000820
:1000C000BF010008BF010008BF010008BF01000810
:1000D000BF010008B93E0008C53E0008BF01000886
:1000E000BF010008BF010008BF01000800F002F8CE
:1000F00000F048F80AA090E8000C82448344AAF17A
:100100000107DA4501D100F03DF8AFF2090EBAE877
:100110000F0013F0010F18BFFB1A43F0010318473B
:100120002455000044550000103A24BF78C878C117
:10013000FAD8520724BF30C830C144BF04680C60ED
:10014000704700000023002400250026103A28BF35
:1001500078C1FBD8520728BF30C148BF0B60704739
:100160001FB500F0ADFC04000020002104F0C6F82B
:10017000401C60600020002104F0AAF8E0601FBD70
:1001800010B510BD00F0DEFE1146FFF7E9FF04F0E8
:1001900017F801F02FF903B4FFF7F2FF03BC01F0E9
:1001A00087F900000948804709480047FEE7FEE755
:1001B000FEE7FEE7FEE7FEE7FEE7FEE7FEE7FEE717
:1001C00004480549054A064B70470000B13B00084A
:1001D000ED000008A0040020A00A0020A0060020D6
:1001E000A00600200FB400B58DB010A909900091B1
:1001F0000B904FF0FF300A9000200C900648784496
:100200000690064878446A4607900F9909A800F0BE
:1002100027FC0DB05DF814FB7F0800009708000074
:100220002DE9FF5F1D464FF0FF3B91464FF0000860
:100230005F46D5E90146A96901987F1C8847296A6C
:10024000824688470028F6D1BAF1FF3F0CD0002E35
:1002500024F4C06419DD600614D5BAF12B0F09D05F
:10026000BAF12D0F0ED103E0584604B0BDE8F09F5F
:1002700044F48064A96901987F1C8847761E8246F1
:10028000002E02DDBAF1300F03D0B9F1000F26D0F5
:1002900032E0A969761E01987F1C44F400748847F7
:1002A000002E824605DDBAF1780F06D0BAF1580F5C
:1002B00003D0B9F1000F10D01EE0B9F1000F02D049
:1002C000B9F1100F18D1A969761E01987F1C24F48A
:1002D000007488478246102002E0082000E00A20CF
:1002E000814609E0A96908FB0908761E01987F1C70
:1002F00044F4007488478246002E05DD4946504686
:1003000000F01DF90028EDDAE96901988847A00599
:1003100002D46FF00100A8E7E00725D1600613D5ED
:10032000600502D5C8F1000000E0404629680A1DBA
:100330002A600968220501D5087015E0220701D559
:10034000088011E008600FE02868011D296000683E
:10035000210502D580F8008006E0210702D5A0F82B
:10036000008001E0C0F8008038467EE72DE9FF5F9D
:100370004FF000089946144646469169D2E901A714
:10038000DDF838B001988847054659EA0B0005D0DA
:1003900009E0A1690198761C88470546216A28462C
:1003A00088470028F5D1681C03D05FEACA7005D0E1
:1003B00015E04FF0FF3004B0BDE8F09F2068011D4C
:1003C0002160D0F800800AE05FEACA7001D108F825
:1003D000015BA169761C01987F1E88470546002FA6
:1003E0001ADD681C18D0B9F1000F0DD0E81705EB25
:1003F000D060421120F01F0059F822102A1A012063
:1004000090400142E0D107E0BBF1000FDCD128466B
:10041000216A88470028D7D0E16901988847BBF155
:10042000000F07D1002E05DD5FEACA7002D100215E
:1004300088F80010A068B84203DDBBF1000F03D0BC
:1004400017B16FF00100B6E73046B4E730B50546A6
:100450000B462A4613F8014B12F8010B08B1A042D3
:10046000F8D01CB1002802D06D1CF1E7284630BD41
:1004700010B5203AC0F00B80B1E81850203AA0E83F
:100480001850B1E81850A0E81850BFF4F5AF5FEA73
:10049000027C24BFB1E81850A0E8185044BF18C926
:1004A00018C0BDE810405FEA827C24BF51F8043BCD
:1004B00040F8043B08BF7047D20728BF31F8023B21
:1004C00048BF11F8012B28BF20F8023B48BF00F8B5
:1004D000012B70474FF0000200B513469446964634
:1004E000203922BFA0E80C50A0E80C50B1F1200147
:1004F000BFF4F7AF090728BFA0E80C5048BF0CC0F5
:100500005DF804EB890028BF40F8042B08BF704752
:1005100048BF20F8022B11F0804F18BF00F8012BC4
:10052000704770477047704710B500F0CDFA00680B
:1005300010BD10B5044600F0C7FA046010BD3A289B
:1005400000D2303820F02002412A01D3A2F1370036
:10055000884201D34FF0FF30704700002DE9FF4F74
:1005600006468BB00878FF2806D0491C2D2805D0F8
:1005700000244FF0000908E000200CE00124F8E717
:1005800009EB8903491C00EB43090878FF28F7D1E0
:1005900014B1C9F100008146107800252C46AA4606
:1005A00029462D2801D02B2804D1521C2D2813D0E8
:1005B000002082468B461078FF280FD04FF0000CA9
:1005C0000A21521CA5FB017804FB018105FB0C11DB
:1005D000C5194BEB0104EEE70120EAE700210846CC
:1005E0004FF00000BAF1000F02D000EB800040088D
:1005F000C0F38157012F01DD4FF0FF370E9955EA07
:10060000040009EB01080BD04FF0020918F5FA7F3E
:1006100016DA4FEACA70002F706008DD012007E08B
:100620004FEACA70C6E900B00FB0BDE8F08F0020F5
:10063000306000F049FAC0F800901821084616E032
:10064000B8F5FA7F18DD002F02DAF748784401E0A8
:10065000F6487844D0E90010C6E9001040EACA70B4
:10066000706000F031FAC0F80090142108460FB015
:10067000BDE8F04F04F0E9BE002108464FF000004D
:10068000B8F10001099002DAC7F1000200E03A4631
:1006900001DAC8F1000106A800F0DEFB06AB93E822
:1006A000070003AB83E8070044F23E005BEA040165
:1006B0000090584604D144F21E012C465D4600913C
:1006C000210C0904014306D10099240444EA15448D
:1006D0002D041039009104F07F41014306D10099A7
:1006E000240244EA15642D020839009104F0704197
:1006F000014306D10099240144EA15742D01091F14
:10070000009104F04041014306D10099A40044EA5D
:100710009574AD00891E009104F00041084304D196
:1007200000986D196441401E00904FF001033A4655
:100730006846B8F1000FCDE9014503A902DD01F0DB
:100740004AF901E001F01DF9BAF1000F04460D4627
:1007500001D084F00044002108464FF000000999C0
:1007600040F2FF77484010F00C0F07D124F0004012
:10077000284303D0C4F30A50B84212D100F0A4F9C0
:10078000C0F80090C4F30A50B8420AD1A84878448F
:10079000D0E90010C6E9001004F000410843706081
:1007A00042E7C6E900543FE72DE9FF4F1F464FF0EF
:1007B000000A4FF0FF38454691B0D7E90146CDF821
:1007C0003CA000F07DF9C0680168405C1090B969F8
:1007D00012986D1C8847396A814688470028F6D1EF
:1007E000B9F1FF3F0AD0002E24F4D06411DDB9F135
:1007F0002B0F08D0B9F12D0F0BD102E0404615B0F8
:1008000013E744F48064B96912986D1C8847761E1A
:100810008146600504A901D52D2000E02B20002E83
:1008200001F1010B0DF130088DF810003FDDB9F139
:10083000690F08D0B9F1490F05D0B9F16E0F02D098
:10084000B9F14E0F1CD13B4601A8009580E850023B
:10085000DDE912126FF0020004F05EFEC11CCED181
:100860000EE0B96912986D1C884781461398761E70
:1008700044F4007405600F98401C002E0F9016DDA4
:10088000B9F1300FEDD0B9F1780F02D0B9F1580FAE
:100890000DD10F9801280AD13B46CDE90054DDE97E
:1008A0001212001F029604F035FEC11CA7D1109948
:1008B00089453ED144F0800406E01399681CAAF1F2
:1008C000010A44F400740860B9696D1C1298761E20
:1008D000884730288146F0D02BE01099894505D112
:1008E000200603D4761E44F0800418E0484603F046
:1008F00086FB08B3761E0DF123018B4544F400748A
:1009000008D2A9F130000BF8010B200607D5AAF197
:10091000010003E0200602D40AF101008246A0058E
:1009200002D51399681C0860B96912986D1C884734
:100930008146002ED1DC53E0002E51DDB9F1650F68
:1009400002D0B9F1450F4BD1A00549D5B9696D1C4D
:100950001298761E24F440748847002E81460CDDE0
:100960002B2804D0B9F12D0F07D144F48074B96954
:1009700012986D1C8847761E8146E00501D52D2111
:1009800000E02B2108F8011BCDF8008021E0761E45
:100990000DF13901884544F400740CD2A9F13000FE
:1009A00010F0FF0088F8000002D10099884509D9AD
:1009B00008F1010806E0E00501D51E4801E042F219
:1009C0000F708246B96912986D1C8847814613984A
:1009D0000560002E04DD484603F011FB0028D6D147
:1009E000F96912988847FF2053468BF8000088F871
:1009F000000000200A900B9004AA0CA90AA8FFF797
:100A0000ADFDA00502D46FF00100F8E614F0240F4C
:100A100012D0E0071CD13868DDE90A12031D3B60E3
:100A20000068C0E9001213E01C5000000E500000E6
:100A3000D24E0000F1D8FFFF0AA9684603F06EFA13
:100A4000E00705D13868009A011D3960006802602E
:100A50002846D4E6026811441378016018467047AE
:100A6000D1600549794451610449794411620021FA
:100A70001161114600F036B8EDFFFFFF6300000082
:100A8000426842B1016811F8013B23B1521EC0E92E
:100A90000012184670470121C160881E70474268E5
:100AA0005AB1C368016843B983688B4205D0491EB7
:100AB000521CC0E90012002070474FF0FF30704711
:100AC0000048704760040020004870474004002040
:100AD00010B5044600F05CFA0068005D00F001000B
:100AE00010BD00002DE9F34F4FF0000A0C465646AA
:100AF0008DB001200C9001F10C000B9062690B98F5
:100B000001219047051E2DD0252D2CD0216A884724
:100B1000C0B162690B9801219047216A884700287B
:100B2000F7D16269411E0B98904700E0761CA169DD
:100B30000D988847216A88470028F7D1E1690D9808
:100B40008847DBE7A1690D988847A842074601D18D
:100B5000761CD3E7E1690D9888477F1C02D1BAF172
:100B6000000F6FD06CE162690B9800273D46394653
:100B700090472A2804D162690B98012190470125EA
:100B8000DFF8D08262690B9801219047A0F1300113
:100B90000A290AD24745E5DC07EB870100EB41074C
:100BA000303FDFD445F01005ECE7E90601D46FF0E3
:100BB00000476C280AD04C2814D0682815D06A2821
:100BC0000DD074281CD07A281AD01DE062690B98C9
:100BD000012190476C2802D045F0040514E045F04F
:100BE00002050DE045F020050AE062690B9801213D
:100BF0009047682802D045F0080505E045F40065F7
:100C000062690B9801219047C4E9015765283DD0DE
:100C100019DC58287AD00CDC452837D004DC25288C
:100C200026D041289ED131E046282FD0472899D19F
:100C30002CE05B2877D0612828D063287CD06428FA
:100C400023D15AE0F7E06F2848D008DC66281DD091
:100C500067281BD0692821D06E2816D127E070287C
:100C600045D0732868D0752847D078280DD14DE03D
:100C7000A1690D988847252805463FF469AFE169C9
:100C80000D9888476D1C3FF46AAFD9E00D99234653
:100C90006A466FF0010004F03BFCC6E045F04000FE
:100CA00023464FF000026060A80736D43EE0E80714
:100CB0007FF447AF2068011D21600068290501D538
:100CC00006701BE7290701D5068017E7A90703D59A
:100CD000F117C0E9006111E706600FE745F0400039
:100CE00023464FF008026060A80716D41EE040F6C5
:100CF0000E0125EA0100606016E045F04000234641
:100D00004FF00A026060A80707D40FE045F04000EA
:100D10006060A80708D5234610220D996FF00100E6
:100D2000AFF3008081E007E0102223460D996FF0B9
:100D30000100FFF775FA78E04FF0000963284F468D
:100D4000C8464B46CB4602D05B2807D039E0207915
:100D5000C00601D40120A060012732E06269D4F806
:100D60000CB00B98012190475E2807D14FF0010984
:100D700049466269D4F80CB00B989047216939B99B
:100D800000210A4603AB43F82120491C0829FADB5D
:100D9000D8B3216949B308F1010862690B980121B0
:100DA00090475D28F4D1B9F1000F09D0002003A9C4
:100DB00051F82020D24341F82020401C0828F7DBBE
:100DC00003AB2069002820794FEA40701ED05B46B3
:100DD0002246CDF80080CDE901970D9900286FF0EB
:100DE000010020DAAFF300801FE0C11703AA00EB77
:100DF000D1614B1121F01F0102EB8302411A1368EC
:100E00000120884003431360C7E719E00D9922468B
:100E100000286FF00100009702DAAFF3008004E0D1
:100E2000FFF7A4FA01E0AFF3008000280ADA401CC3
:100E300006D10C9820B14FF0FF300FB0BDE8F08F15
:100E40005046FAE7E90701D10AF1010A06440020F9
:100E50000C9053E6CCCCCC0C2DE9F04781461646DD
:100E60008AB0354878440DC88DE80D003248784482
:100E7000801C03AC0DC884E80D0041F69B3008448B
:100E8000372190FBF1F290FBF1F5A5F1800501FB14
:100E900012041B3C02D56442012000E00020DFF870
:100EA00098A080460027FA44AAF1BE0A0EE0E007A7
:100EB0000AD03246684607EB470101230AEB81015D
:100EC00000F074FD8DE8070064107F1C002CEED14B
:100ED000194F7F44AE3F19E0E80715D007EB041027
:100EE0000DF1180A90E80E008AE80E00C068F04282
:100EF00001D1981908903246012306A903A800F0F1
:100F000055FD03AB83E807006D10641C002DE3D191
:100F10004FF0010332466946B8F1000F03A802D032
:100F200000F01AFD01E000F041FDC9E90001C9F837
:100F300008200AB0BDE8F0877847000000487047F5
:100F4000400400207546FFF7F9FFAE4605006946EC
:100F5000534620F00700854618B020B5FFF730F95A
:100F6000BDE820404FF000064FF000074FF00008AA
:100F70004FF0000B21F00701AC46ACE8C009ACE82B
:100F8000C009ACE8C009ACE8C0098D467047000054
:100F900010B5FFF795FD001D10BD00BF61330000C7
:100FA0002DE9FF4F1F464FF03C0987B04FF000423C
:100FB000DDE9141001F10108DDF858A002EA405003
:100FC0000390002005908346054604460490B969C5
:100FD000461E08988847AAF1010A0290BAF1000F4C
:100FE0003BDD02982E2815D01021FFF7A8FA002823
:100FF0002EDB4FF0010B0599014317D0B9F1000F1B
:101000000BDB4A46C11700F03FFA05430C43A9F138
:10101000040905E0012004900BE008B145F001054A
:1010200001200590049820B9361D02E0049800B113
:10103000361FB969089808F101088847BBF1000F0D
:10104000AAF1010A0290C9D00999C1F80080C5E748
:101050000298702808D0502806D0F9690898884767
:10106000BBF1000F14D04FE0002002900120BBF133
:10107000000F049009D0B969089808F10108884761
:10108000AAF10109B9F1000F07DCF969089888474E
:101090006FF001000BB0BDE8F08F2B2804D02D2895
:1010A0000CD14FF0FF300490B969089808F101089D
:1010B0008847A9F10109B9F1000FE6DD411CE4D030
:1010C0000A21FFF73CFA0028DFDB029908F101084A
:1010D00001EB810100EB41000290B9690898884753
:1010E0000A21FFF72CFA099AA9F10109B9F1000FB9
:1010F000C2F8008001DD0028E7DAF969089888471E
:101100000499029800FB016655EA040004D004F03B
:101110004041090002D006E0039898E0A40044EAA8
:101120009574AD00B61E04F00041080002D16D199F
:101130006441761E159810F0240F03D04FF00B0970
:101140005C4803E04FF028096FF07D008246564569
:1011500007DAAAEB06018944B9F1410F01DD4FF02E
:10116000410901200021A9F1010200F08DF9024698
:1011700028400B462140084301D0012100E0002116
:10118000501E029143F1FF3128402140084301D015
:10119000012000E000200299834651EA0B014FD064
:1011A000002108464FF00000039900F4400039B1D7
:1011B00000EB80004FF4400100EBD07001EA6000CA
:1011C0008015012802DD4FF0FF3000E013D0401CF5
:1011D00036D0029860B3BBF1000F0CD14A46012013
:1011E000002100F051F928402140084301D001209E
:1011F00000E00020E0B101204A46002100F044F95F
:10120000034640190A4661412D1A8C4111D3B9F1A8
:10121000400F09DD159810F0240F02D0AAF1340612
:1012200003E0AAF1170600E0761C00254FF0004409
:1012300006E05B1E42F1FF3220EA030521EA0204C8
:10124000CAF10100B04206DA1B4903980843019035
:10125000002000900EE0039AC4F3D321E80A0A4369
:10126000164940EA44500A433146CDE90002684637
:1012700002F0BAFE159810F0240F0BD01598C00795
:1012800015D13868DDE90012031D3B600068C0E934
:1012900000120CE002A8694602F040FE1598C00753
:1012A00005D13868029A011D396000680260404625
:1012B000F0E6000002FCFFFF0000F07F0000F03FBE
:1012C0002DE9FF4F92461D4685B04FF00041DDE904
:1012D000124BDDE914727F1E01EA4B50414940F088
:1012E000FF4940EA0108002122F02000492804912A
:1012F00002D04E2828D04CE03BA0012607C88DE83C
:101300000700A9690698641C88477F1E014606D419
:101310001DF8060018B121F0200181420BD0E969C7
:1013200006988847032E34D0082E32D06FF0010083
:1013300009B0BDE8F08F761C032E01D0082EE0D155
:10134000601CCAF80000DCE7A9690698641C88479D
:101350007F1E2AD420F02000412826D1A9690698B2
:10136000641C88477F1E20D420F020004E281CD10A
:10137000A9690698641C88477F1E48F4002849F430
:101380008009CAF8004001D4282806D0E9690698E7
:1013900088475FEACB7012D022E0A9690698641CE6
:1013A00088477F1E01D4002803DAE9690698884738
:1013B000BCE72928F1D1641CCAF80040E9E71BF01A
:1013C000240F07D028680499031D2B600068C0E92A
:1013D000001805E02868021D2A600068C0F8009027
:1013E0002046A5E70000F07F494E46494E49545932
:1013F0000000000010B50446AFF300802046BDE8B1
:101400001040FEF7C8BE00004FF0013C50F8042B1E
:1014100051F8043B9A4221D1A2EB0C03934313EA07
:10142000CC1317D150F8042B51F8043B9A4215D134
:10143000A2EB0C03934313EACC130BD150F8042B0B
:1014400051F8043B9A4209D1A2EB0C03934313EAEF
:10145000CC13DBD04FF00000704700BFD01A01BAA8
:10146000B1FA81F101F0180122FA01F0CB40C1F18B
:101470002001DBB2C0B2C01A2CFA01F3D11A914399
:1014800011EAC311E6D17047B2F120030AD5C2F1C7
:10149000200301FA02F120FA03F300FA02F041EA14
:1014A0000301704700FA03F14FF00000704700009D
:1014B00001491820ABBEFEE726000200704720F06D
:1014C0007F4C80EA030023F07F47ACEB070303F572
:1014D0007C5300F0004003F1FF032DE980494FEAFF
:1014E000154B09B44FEA144325EA0B4E24EA03488E
:1014F0000FF2042606EB132749083E785FEA320212
:1015000003FB0667C7F5000707FB06F64FEA5437EB
:101510004FEAD64606F1020607FB066CCCF1005CEA
:101520004FEA1C472CEA074C07FB06F40CFB06F5B8
:1015300004EB15464FEA961634BF00204FF00040EA
:101540004FEAD13706FB07FC4FEA1C4C0CFB0BF7AC
:10155000D21B03FB0CF761EB07010CFB0EF7B0EBA2
:10156000074072EB17420CFB08F734BFA2EB0742AF
:10157000B2EB074261EB17414FEA0C444FEA910787
:1015800006FB07FC4FEA1C4C0CFB0BF7B0EBC7400B
:1015900072EB573203FB0CF734BFA2EBC742B2EB3E
:1015A000C74261EB57310CFB0EF7B0EBC70072EB93
:1015B00057720CFB08F734BFA2EBC702B2EBC702AD
:1015C00061EB5771039F4FEA816141EA921104EB8D
:1015D000CC044FEAD1374FEA826206FB07FC42EAAD
:1015E00090124FEA80604FEA1C4C0CFB0BF7D21BA9
:1015F00003FB0CF761EB07010CFB0EF7B0EB0740A8
:1016000072EB17420CFB08F734BFA2EB0742B2EBB8
:10161000074261EB17414FEA8C554FEA910704EB03
:101620009C2406FB07FC4FEA1C4C0CFB0BF7B0EBB1
:10163000C74072EB573203FB0CF734BFA2EBC74233
:10164000B2EBC74261EB57310CFB0EF7B0EBC700B2
:1016500072EB57720CFB08F734BFA2EBC702B2EB78
:10166000C70261EB577115EB4C254FEA816141EAE6
:1016700092114FEA82624FEAD13742EA901206FB9A
:1016800007FC44F100044FEA80604FEA1C4C0CFB5D
:101690000BF7D21B03FB0CF761EB07010CFB0EF7FA
:1016A000B0EB074072EB17420CFB08F734BFA2EB1C
:1016B0000742B2EB074261EB174115EB1C154FEAED
:1016C000813141EA92414FEA823242EA90424FEA46
:1016D00080304FEA0C7644F1000448EA03434EEAB6
:1016E0000B484FF0000EB2EB080C71EB030724BF60
:1016F000624639464EEB0E0E4FF0000B0018524179
:1017000049414BEB0B0BB2EB080C71EB03077BF180
:10171000000B24BF624639464EEB0E0E4FF0000B15
:101720000018524149414BEB0B0BB2EB080C71EB2B
:1017300003077BF1000B24BF624639464EEB0E0EC9
:1017400051EA020718BF46F0010616EB0E7655F176
:10175000000254F1000103D5BDE88901BDE800880D
:10176000BDE88901BDE80048B619524141EB0101CD
:10177000A3F10103704780807F7E7D7C7B7A79783E
:10178000777676757473727171706F6E6E6D6C6C46
:101790006B6A6A69686867666665646463636261E8
:1017A0006160605F5F5E5E5D5D5C5C5B5B5A5A5969
:1017B00059585857575656555555545453535252D5
:1017C0005251515050504F4F4F4E4E4D4D4D4C4C2D
:1017D0004C4B4B4B4A4A4A49494948484847474776
:1017E00047464646454545444444444343434342B3
:1017F000424242414141000046EA0646A3F5705389
:101800004FEA164646EA42564FEAD22242EA41528F
:1018100010B54FEAD121A3F1010300F02FF820F019
:10182000004000F1020C00F0004701EB00501146AF
:10183000BCF5006F40EA070000D210BDBAF1000FFE
:101840000AD01CB503B44FF004004FF004014FF070
:1018500000000FBCBDE810404FF00001BBF1010FCC
:10186000B9BF04484FF0FF310348002140EA0700A8
:1018700010BD00BFFFFFEF7F0000F07F002B9C46F4
:1018800030D477002BD01CB54FEA370703B44FF0A4
:1018900010004FF01001BAF1000F06D0BCF1000F9C
:1018A000DCBF40F0080040F008014FF000000FBC22
:1018B000BDE810400BF1010BBBF1010F08BF5FEA5F
:1018C000170722BF12F1010211F101014FF000418F
:1018D00043F1000300F0004043EA00007047F9D3F1
:1018E0005708D0E746EA064613F1400F4FEA16467E
:1018F0001FDD13F1200FDFBF16430A4600212033FE
:101900005B42BED0C3F1200746EA064602FA07F75B
:101910004FEA164646EA0706C3F1200722FA03F209
:1019200001FA07F721FA03F14FF0000342EA070238
:10193000A7E746EA020646EA06464FEA164646EAA0
:101940000106BCBF46EA0646360C4FF000034FF0D6
:1019500000024FF0000194E72DE9804C9A4693462F
:1019600070B491E8380007C831EA400C48BF34EA47
:10197000430C03D5FFF7A3FDFFF780FFF0BCBDE8E4
:10198000008C2DE9804C9A46934670B491E838005B
:1019900007C831EA400C48BF34EA430C03D5FFF7CF
:1019A0008EFDFFF729FFF0BCBDE8008C2DE9804CCF
:1019B0009A46934670B491E8380007C810F0804FFB
:1019C00008BF13F0804F03D100F01AF8FFF756FF5D
:1019D000F0BCBDE8008C2DE9804C9A46934670B46B
:1019E00091E8380007C810F0804F08BF13F0804F0F
:1019F00003D100F005F8FFF7FFFEF0BCBDE8008C56
:101A000020F07F4780EA030023F07F4C07EB0C03B4
:101A1000A3F57C5300F00040A3F1FE0392F0000F09
:101A200000F0B38095F0000F00F077802DE90149B8
:101A30004FEA11404FEA144621EA004800FB06FC39
:101A400024EA064708FB06F607FB08F800FB07F741
:101A500018EB06484CEB164C4FEA124B18EB0748B4
:101A60004FEA15464CEB174022EA0B4E0BFB06FCE7
:101A700025EA06470EFB06F607FB0EFE0BFB07F7F3
:101A80001EEB064E4CEB164C4FF000061EEB074EBD
:101A90004CEB174B18EB0B0840F1000018EB0E0B4A
:101AA00058EB000840F100008F1A4FF000013CBFD6
:101AB000C943661B14BFB5EB040C00213CBFC943EE
:101AC000F61B4FEA17444EEA8E0E27EA04454FEA0A
:101AD0001C4704FB07622CEA074C05FB07F70CFBCD
:101AE00005F604FB0CFC16EB074642EB174216EB1F
:101AF0000C4642EB1C421BEB060658EB020241412E
:101B000046EA9E0601D5BDE80189B619524141EB6E
:101B10000101A3F10103BDE801894FEA14454FEA31
:101B2000114724EA054621EA074C05FB07F406FBAA
:101B300007F70CFB06F105FB0CFC11EB074144EB2E
:101B400017444FEA124711EB0C4144EB1C4422EAC4
:101B5000074C05FB07F206FB07F70CFB06F605FB37
:101B60000CFC16EB074642EB174216EB0C4642EB19
:101B70001C456A1854F1000148BF7047B61952411C
:101B800041EB0101A3F10103704795F0000F37D03D
:101B90004FEA11424FEA144721EA024624EA074C71
:101BA00002FB07F106FB07F70CFB06F402FB0CFC3B
:101BB00014EB074441EB17414FEA154714EB0C4473
:101BC00041EB1C4125EA074C02FB07F506FB07F732
:101BD0000CFB06F602FB0CFC16EB074645EB174523
:101BE00016EB0C4645EB1C42121951F1000148BF9F
:101BF0007047B619524141EB0101A3F1010370474F
:101C00004FEA14454FEA114724EA054621EA074CFA
:101C100005FB07F106FB07F70CFB06F24FF0000689
:101C200005FB0CFC12EB074241EB174112EB0C4297
:101C300051EB1C4148BF7047921841EB0101A3F1E1
:101C400001037047FEE70000014800F047B90000BB
:101C5000FC03002030B590F840500124AC40C56B27
:101C60006C60046863604368102B036803D099605C
:101C70000068C26030BD9A600068C16030BD7047C6
:101C800072B6FEE710B500F041FB0E494FF4FF724B
:101C9000C1F80402B1F8000290420AD291F802326F
:101CA0000B54B1F80002401C80B2A1F8000290422F
:101CB00001D301F07FFFBDE8104001220249034833
:101CC00001F05ABB5000002052020020B80300204F
:101CD00070B58EB000F01AFB3A4CD4F80412401ADA
:101CE000322864D9B4F80002002860D036A120461A
:101CF000FEF7ACFB050052D004F502704821064601
:101D0000FEF7E8FB04F51370011F821FA0F110031A
:101D1000CDE90C101438CDE90A32821FC31F011F10
:101D2000CDE90810CDE9063208380E3ACDE9042095
:101D30001439213BCDE902312438811ECDE9001050
:101D4000C31E324622492846FEF74CFA94F8201268
:101D50002D2009B984F8200294F8301209B984F8CA
:101D6000300294F8441209B984F8440294F83C1201
:101D700009B984F83C02D4F8100204F5027402F0A8
:101D800045F9C4E90401E06902F040F9C4E9080139
:101D900010492078097808442070A4F502744FF4A3
:101DA00000710848FEF796FB0020A4F80002684680
:101DB00001F02CFB0EB00122BDE870400649074837
:101DC00001F0DABA500000202447504747412C0068
:101DD000F85500081000002052020020B80300202F
:101DE000044900200122A1F8000201F20221024868
:101DF00001F0C2BA50000020B803002010B590F8DE
:101E000021100022022905D00421816380F82020BE
:101E1000012010BD01680B6823F00E030B60016800
:101E20000B6823F001030B6090F84030C46B012174
:101E300001FA03F3636080F8211080F82020104637
:101E400010BD000010B590F821100024022903D025
:101E50000421816301243DE001680A6822F00E023A
:101E60000A6001680A6822F001020A601A4A0168E1
:101E7000914201D1012121E0174A1432914201D14E
:101E800010211BE0144A2832914201D1891515E036
:101E9000114A3C32914201D189140FE00E4A50326E
:101EA000914202D14FF4803108E00B4A64329142F2
:101EB00002D14FF4801101E04FF08071064A083AD8
:101EC0005160012180F82110002180F82010416B21
:101ED00001B18847204610BD080002402DE9F05F9F
:101EE000C16B0C6801680B68D0F840C0042202FA8C
:101EF0000CF2494DDFF824A1494E4A4FDFF828B1D2
:101F0000DFF828E122422CD05A072AD50A68920627
:101F100003D40A6822F004020A600168A94201D1D0
:101F2000042219E0514501D1402215E0B14202D10D
:101F30004FF4806210E0B94202D14FF480420BE0CE
:101F4000594502D14FF4802206E0714502D14FF489
:101F5000800201E04FF080622F4908394A60C16A6F
:101F60003BE04FF0020808FA0CF818EA040F4FF0B3
:101F700000094FF0010235D05FEA837832D50B6853
:101F80009B0605D40B6823F00A030B6080F8212020
:101F90000168A94201D1022219E0514501D1202254
:101FA00015E0B14202D14FF4007210E0B94202D103
:101FB0004FF400520BE0594502D14FF4003206E0D5
:101FC000714502D14FF4001201E04FF00072124946
:101FD00008394A6080F82090816A00291AD0BDE84B
:101FE000F05F0847082505FA0CF5254212D01B07BB
:101FF00010D50B6823F00E030B6090F84010C36BF4
:1020000002FA01F15960826380F8212080F8209063
:10201000016BE2E7BDE8F09F080002401C000240AF
:102020003000024044000240580002406C00024070
:1020300030B528B308C8134914221944B1FBF2F192
:102040008900C16310498163022141771A6843F610
:10205000F0718A43D0E900142143D0E902452C43B2
:102060002143046921434469214384692143114385
:10207000196000214163012242770177084630BD93
:10208000012030BDF8FFFDBF0000024070B50446DE
:1020900090F82000002501280CD0012084F82000B1
:1020A00094F821600020012E06D084F8200002253B
:1020B000284670BD022070BD022684F82160A0630E
:1020C0002068066826F0010606602046FFF7C2FD7C
:1020D000E06A00282068016802D041F00E0106E0A5
:1020E00021F0040101602068016841F00A010160EB
:1020F0002068016841F001010160D9E770B504462C
:1021000000F004F90546601C02D00448007804443D
:1021100000F0FCF8401BA042FAD370BD1400002070
:102120002DE9F84FDFF8B891002409F1040A0AF10B
:10213000040B23460F270BF1040EC9E00125A5402F
:102140002A40AA427DD1674ED1F804C0ACEB060804
:10215000B44532D014DCBCF1030F3AD009DCBCF139
:10216000000F2AD0BCF1010F1CD0BCF1020F31D1FD
:102170001DE0BCF1110F17D0BCF1120F2AD119E0EC
:10218000B8F5881F19D006DCB8F5803F15D0B8F532
:10219000801F1FD111E0B8F5001F0ED0B8F5041F45
:1021A00018D10AE0CB6815E0CB681B1D12E0CB68A4
:1021B00008330FE0CB680C330CE08B682BB1012B9C
:1021C0004FF0080303D0456104E0042302E00561F9
:1021D00000E00023FF2A01D8064601E000F10406D2
:1021E0004FEA840501D9A5F12005D6F8008007FA49
:1021F00005FC28EA0C0803FA05F548EA0508C6F8C4
:1022000000804D68ED0062D5374DAE6946F001069D
:10221000AE61AD6924F0030605F001050095334D6C
:1022200006EB050CDCF80850A607360F07FA06F88F
:1022300025EA0805DFF8B880404503D14FF00008D3
:1022400017E044E0DFF8AC80404502D14FF00108D0
:102250000FE0DFF8A480404502D14FF0020808E00B
:10226000DFF89880404502D14FF0030801E04FF0BD
:10227000040808FA06F848EA0508CCF808804D6812
:10228000D9F80060ED034D4601D5164300E09643B2
:102290002E604D68DAF80060AD03554601D516434F
:1022A00000E096432E604D68DBF80060ED025D466D
:1022B00001D5164300E096432E604D68DEF80060BD
:1022C000AD02754601D5164300E096432E60641CAE
:1022D0000D682A46E5407FF431AFBDE8F88F000075
:1022E00000040140000011100010024000000140F5
:1022F00000080140000C01400010014000140140A2
:102300000AB1016170470904FBE7000001488068D9
:10231000704700001400002070B5040025D094F828
:102320003D00002520B984F83C50204600F00EFB0B
:10233000242084F83D002068016821F0010101603B
:102340002068016841F4004101602068016821F4BF
:102350000041016000F058FC4D4A6168914201D88B
:102360004C4900E04C49884201D2012070BD4B49E4
:102370002368B0FBF1F15E6826F03F060E435E6015
:102380006368934206D94FF4967359434FF47A73B6
:10239000B1FBF3F12368491C1E6A26F03F06314366
:1023A00019626168914210D84900401EB0FBF1F2F9
:1023B000521CC2F30B02042A01D2042022E0B0FB1B
:1023C000F1F0401CC0F30B001CE0A268F2B301EB7B
:1023D000C10303EB0116431EB3FBF6F35B1C43F48E
:1023E00080431B0549D092B301EBC10202EB0111FE
:1023F000401EB0FBF1F0401CC0F30B0040F48040E5
:1024000040F400402168CA694CF6FF739A431043B8
:10241000C861D4E9071001432068026822F0C002B5
:1024200011430160D4E9030101432068826848F246
:10243000FF339A4311438160D4E9050108432168C1
:10244000CA6822F0FF021043C86001E00EE016E007
:102450002068016841F0010101602564202084F8B2
:102460003D00256384F83E50002070BD01EB41061D
:10247000431EB3FBF6F35B1CB3E70120C2E701EB9D
:102480004101401EB0FBF1F0401CC0F30B00B7E768
:10249000A086010080841E0000093D0040420F001C
:1024A0002DE9F84F1F4690468A460446DDF82890ED
:1024B000FFF72CFF054694F83D0020287FD1192313
:1024C000012240492046009501F004FA002876D107
:1024D00094F83C00012872D0012084F83C00206868
:1024E0000168C90703D1016841F00101016020685A
:1024F000016821F400610160212084F83D00102072
:1025000084F83E0000262664C4F824806785608D28
:1025100020852D48E0622B464A465146204601F070
:1025200093F890B9206841698069009036E02A46A6
:102530004946204601F080FA50B1206C042804D1AD
:102540002068016841F4007101600120BDE8F88F46
:10255000606A216800780861606A401C6062618D71
:10256000491E6185218D491E89B2218522685369E2
:10257000DB435B070BD451B100781061606A401CEB
:102580006062608D401E6085208D401E20852A4639
:102590004946204601F078F90028CED1208D002848
:1025A000C5D154F83D0B016841F400710160202051
:1025B00004F81E09E67766770020C7E7FFE70220E8
:1025C000C4E70000020010000000FFFF2DE9FF4FEC
:1025D00083B00025DDE910799A4693460446DDF87C
:1025E00048800095FFF792FE064694F83D002028AB
:1025F0007CD11923012285492046009601F06AF911
:102600000028F5D194F83C0001286FD0012084F80F
:102610003C0020680168C90703D1016841F001014D
:1026200001602068016821F400610160222084F8C3
:102630003D00402084F83E0025646762A4F82A909B
:10264000608D20857248E062CDE9008653465A4687
:102650002046049901F046F800287DD1208DDFF84E
:10266000B491202768B1012814D00228206801689D
:102670001ED041F48061016020684169806900904A
:10268000B6E02068416981690091016841F40071F8
:102690000160ADE02068016821F48061016072B6DC
:1026A0002068416981690091016841F400710AE084
:1026B00041F40061016072B620684169816900914E
:1026C000016821F48061016062B691E0032868D856
:1026D00001280CD0022843464FF00002494620460C
:1026E00000960FD001F0F6F8B0BB10E08BE0324658
:1026F0004146204601F06DF970BB20680069616AAF
:1027000008706CE001F0E6F830BB72B634E0206887
:10271000016821F48061016072B620680069616A15
:102720000870606A401C6062208D401E2085608DAC
:10273000401E6085384846F2A8110068B0FBF1F0F1
:10274000C0EBC00000EB80000090401E009008D05D
:1027500020684069C04300E029E040070CD500989C
:10276000F3E744F8305F6773A573206940F02000F9
:10277000206162B625731AE02068016841F4007197
:10278000016020680069616A0870606A401C6062CC
:10279000218D491E2185618D491E618562B62168A2
:1027A0001BE032464146204601F013F918B10120E2
:1027B00007B0BDE8F08F20680069616A0870606A40
:1027C000401C6062218D491E2185618D491E6185F5
:1027D00021684A69D24352070AD409690170606AC4
:1027E000401C6062208D401E2085608D401E6085EB
:1027F000208D00287FF46AAF84F83D7084F83E5045
:1028000084F83C50D4E70220D2E700000200100018
:102810000000FFFF04000100200000202DE9FF4F11
:1028200083B09A46DDE9119793460446DDF840806F
:10283000FFF76CFD054694F83D0020287FD1192351
:10284000012240492046009501F044F8002876D145
:1028500094F83C00012872D0012084F83C002068E4
:102860000168C90703D1016841F0010101602068D6
:10287000016821F400610160212084F83D004020BE
:1028800084F83E0000262664C4F82480A4F82A9028
:10289000608D20852C48E062CDE9007553465A468C
:1028A0002046049900F09CFF70B930E02A46394672
:1028B000204601F0C1F858B1206C042804D12068EA
:1028C000016841F400710160012007B0BDE8F08F9C
:1028D000606A216800780861606A401C6062218D2E
:1028E000491E89B22185628D521E62852268536914
:1028F000DB435B070BD469B100781061606A401C50
:102900006062208D401E2085608D401E6085208D78
:102910000028CBD12A463946204600F0B5FF0028D2
:10292000CAD154F83D0B016841F4007101602020C8
:1029300004F81E09E67766770020C6E7FFE7022065
:10294000C3E70000020010000000FFFF10B586B0D2
:102950000021009101910291039100681049884281
:102960001BD1104CA06940F00800A061A069694625
:1029700000F0080004904FF4406000901220019095
:10298000032003900848FFF7CBFBE06940F4800088
:10299000E061E06900F48000049006B010BD000022
:1029A0000058004000100240000C014002488168BD
:1029B000027811448160704714000020074810B568
:1029C000016841F010010160032000F075F80F204C
:1029D00000F006F800F024F8002010BD00200240AE
:1029E00070B50D4D04464FF47A712878B1FBF0F0C4
:1029F0000A490968B1FBF0F000F0ECFA48B9102C74
:102A000007D200222146501E00F036F800206C60EC
:102A100070BD012070BD00001400002020000020C7
:102A20000C4808B5816941F001018161816901F0BB
:102A300001010091C16941F08051C161C06900F09C
:102A4000805000900448416821F0E06141F000713D
:102A5000416008BD0010024000000140002809DB71
:102A600000F01F02012191404009800000F1E020A8
:102A7000C0F8001170470000F0B40E4B1B680C4604
:102A8000C3F30223C3F10705042D00D90425191D42
:102A9000072901D2002300E0DB1E012606FA05F11A
:102AA000491E214099409E40761E16403143F0BC9D
:102AB00001F00FBA0CED00E0064900F007020868CB
:102AC0004FF6FF03184040EA0220034A1043086013
:102AD000704700000CED00E00000FA052DE9F0471A
:102AE0000F46050061D0434E306800F00700B84241
:102AF00009D2306820F0070038433060306800F0B9
:102B00000700B84251D128683B4C810712D54007D5
:102B100003D5606840F4E06060602878000703D562
:102B2000606840F4605060606068A96820F0F00060
:102B3000084360602878C00728D06868012810D052
:102B40002168022810D0890700292EDA616821F057
:102B5000030101436160FFF7D9FB804641F28839E8
:102B60000DE021688903EFE78901EDE7FFF7CEFB70
:102B7000A0EB0801494502D90320BDE8F087606851
:102B8000696800F00C00B0EB810FEFD1306800F005
:102B90000700B8420BD9306820F007003843306096
:102BA000306800F00700B84201D00120E5E728783E
:102BB000400705D56068E96820F4E060084360607C
:102BC0002878000706D56068296920F4605040EA3B
:102BD000C100606000F038F86168084AC1F3031171
:102BE000515CC8400649086006480068FFF7F8FED7
:102BF0000020C2E700200240001002404C550008AF
:102C00002000002018000020044805490068496899
:102C1000044AC1F30221515CC840704720000020E3
:102C2000001002405C5500080448054900684968E6
:102C3000044AC1F3C221515CC84070472000002003
:102C4000001002405C55000812A185B00FC98DE844
:102C50000F0014A0144A006804905168134801F052
:102C60000C03042B10D0082B0ED1C1F38343C903EE
:102C70001DF803000AD5516804AAC1F34041515C14
:102C80000A4A5043B0FBF1F005B070470849484389
:102C9000FAE7000002030405060708090A0B0C0DF9
:102CA0000E0F1010010200000010024000127A0006
:102CB00000093D002DE9F84F040070D02078C04D88
:102CC000C00749D06868C0F38100012807D0686850
:102CD000C0F38100022809D16868C00306D52868BE
:102CE000800339D560680028E7D035E06068B0F52A
:102CF000803F0BD010B1B0F5A02F11D0286820F480
:102D000080302860286820F4802002E0286840F4A1
:102D100080302860606890B1FFF7F8FA06460AE054
:102D2000286840F480202860F0E700BFFFF7EEFA43
:102D3000801B642873D828688003F7D50CE0FFF760
:102D4000E5FA064605E000BFFFF7E0FA801B6428BD
:102D5000F0D828688003F7D420789A4E80074FF087
:102D600001094FF0000839D5686810F00C0F07D042
:102D70006868C0F38100022809D16868C00306D4DE
:102D80002868800714D52069012808D110E020693F
:102D9000B0B1C6F80090FFF7B9FA074605E00AE1BE
:102DA000FFF7B4FAC01B0228C4D828688007F7D5FB
:102DB0002868616920F0F80040EAC10028600DE051
:102DC000C6F80080FFF7A2FA074604E0FFF79EFA74
:102DD000C01B022823D828688007F7D42078000772
:102DE0002CD57948A169D9B1C0F80090FFF78EFAC7
:102DF000074604E0FFF78AFAC01B02280FD8686A6A
:102E00008007F7D571484FF4FA510068B0FBF1F034
:102E1000009000BF0098411E0091FAD20EE080E0C1
:102E2000C0F80080FFF772FA074604E0FFF76EFA79
:102E3000C01B022875D8686A8007F7D4207840073D
:102E400060D5E8690027C00008D4E86940F08050E8
:102E5000E861E869012700F0805000905C48016853
:102E6000C90513D40168834641F480710160FFF7FE
:102E70004DFA824606E000BFFFF748FAA0EB0A00D1
:102E800064284ED8DBF80000C005F5D5E0680128BD
:102E90000AD008B1052813D0286A20F00100286262
:102EA000286A20F0040002E0286A40F0010028624D
:102EB000E06841F2883B98B1FFF728FA82460BE0C0
:102EC000286A40F004002862EEE700BFFFF71EFA10
:102ED000A0EB0A0159455AD8286A8007F6D50CE0BC
:102EE000FFF714FA824605E0FFF710FAA0EB0A019B
:102EF00059454CD8286A8007F6D41FB1E86920F0FC
:102F00008050E861E06988B36968C1F381010229F2
:102F100044D00228C6F8608004D0FFF7F7F90446D1
:102F200038E034E0FFF7F2F9074604E0FFF7EEF986
:102F3000C01B02282BD828688001F7D4206AB0F57E
:102F4000803F05D16868A16820F4003008436860BC
:102F5000D4E908010843696821F4741108436860E2
:102F6000C6F86090FFF7D2F9044606E025E000BFFE
:102F7000FFF7CCF9001B022809D828688001F7D593
:102F80001BE000BFFFF7C2F9001B022802D9032093
:102F9000BDE8F88F28688001F4D40EE00128F7D04E
:102FA0006868226A00F48031914204D1616A00F4B9
:102FB0007010884201D00120EAE70020E8E7000015
:102FC00000100240000042428004424220000020E3
:102FD0000070004010B5401EB0F1807F01D3012089
:102FE00010BD4FF0E02460610F21601700F071FF09
:102FF0000020A06107202061002010BD70477047AD
:10300000F8B5026804461068D168536910F00F0FD4
:103010004FF0000553D003F0010601F490773743D9
:103020005FD0C20705D0CA0503D5226C42F0010269
:103030002264420705D5DA0703D0226C42F002026F
:103040002264820705D5DA0703D0226C42F004021D
:103050002264020707D501F02002324303D0226C1C
:1030600042F008022264226C002A34D0800604D583
:10307000880602D5204600F02FFE20684069216CAA
:10308000C0F38010090700D430B3204600F003FEDF
:103090002068416949061BD5416921F04001416121
:1030A000A06BA8B158494163A06BFEF7CBFE002886
:1030B00011D0A06B416B01B0BDE8F040084783061A
:1030C0000FD58B060DD52046BDE8F84000F004BEB4
:1030D0002046FFF794FFF8BD2046FFF790FF2564D8
:1030E000F8BD266B2023012E52D1C60650D5CE0640
:1030F0004ED5106850680090506940062AD5A16BE3
:10310000086840680004000CEAD0A68D8642E7D922
:10311000E0858869202818D0D06820F48070D060BD
:103120002068416921F0010141612068416921F075
:103130004001416184F83E3025632068C16821F078
:103140001001C160A06BFEF759FEA08DE18D401A01
:1031500081B219E0A08DE18D401A81B2E08D002886
:10316000BED00029BCD0D06820F49070D060206818
:10317000426922F00102426184F83E3025632068F2
:10318000C26822F01002C2602046FFF737FFF8BD88
:1031900005062BD50D0629D594F83D002128F6D13A
:1031A000A068B0F5805F01D12069B0B1206A411CF0
:1031B0002162216800784860E08C401E0004000C09
:1031C000E084E4D12068C16821F08001C1602068FA
:1031D000C16841F04001C160F8BD206A0088C0F3B9
:1031E00008005060206A801C2062E5E74006F3D5A5
:1031F0004806F1D5D168204621F04001D16084F81D
:103200003D3000F0F7F8F8BDC93B000870B5040088
:1032100004D094F83D00002510B106E0012070BDF7
:1032200084F83C50204600F023F8242084F83D0028
:103230002068C16821F40051C160204600F0A8FD5B
:103240002068016921F4904101612068416921F001
:103250002A0141612068C16841F40051C1602564C0
:10326000202084F83D0084F83E00002070BD00005E
:10327000F0B585B0002400940194029403940646AE
:10328000374F0368374902220320374DBB4226D10E
:103290008B6943F480438B618B6903F4804304930F
:1032A0008B6943F004038B618969039001F0040189
:1032B00004911102CDE9001269462846FEF730FF5D
:1032C0002815CDE90004694628460294FEF728FF38
:1032D000002211462520FFF7CFFB25203BE0234F9E
:1032E000BB423AD1CB6943F40033CB61CB6903F4E1
:1032F000003304938B6943F004038B618969039065
:1033000001F0040104910421CDE900126946284628
:10331000FEF706FF0820CDE900046946284602941E
:10332000FEF7FEFE134D1248C5E900048020C5E9F2
:1033300002402C616C61AC612846EC61FEF778FEBE
:1033400008B1FEF79DFCB5630022114626206E628F
:10335000FFF792FB2620FFF781FB05B0F0BD0000D0
:1033600000380140001002400008014000440040C5
:103370006C000240FC03002090F83E30202B0ED160
:1033800059B152B190F83C30012B08D0012380F89C
:103390003C300023036300F057BD0120704702203A
:1033A000704700000249884201D1FEF76BBC7047AC
:1033B000B8030020704790F83D30202B18D1A9B1F8
:1033C000A2B190F83C30012B12D001628284C284F9
:1033D00000210164212280F83D2080F83C10006823
:1033E000C16841F08001C160002070470120704732
:1033F00002207047704710B501216B2000F09CFB44
:103400000221BDE81040372000F096BB2DE9F041C5
:103410000646032000F056F801F0BEFE254D69680F
:1034200001F0D2FE244F394601F0D8FDA96801F021
:1034300073FD224C2060072000F044F801F0ACFE40
:10344000696801F0C1FE394601F0C8FDE96801F084
:1034500063FD6060052000F035F801F09DFE6968AD
:1034600001F0B2FE394601F0B9FD154901F078FFCF
:103470000146A06001F0A8FE07466068014601F021
:10348000A3FE05462068014601F09EFE294601F094
:1034900043FD394601F040FD01F012FD00F0F2FE5F
:1034A00000F042FF206221463046BDE8F0412C2268
:1034B000FCF7DEBF000000200000204124000020B7
:1034C0003333E4411FB54FF4FA73022203A98DE8A8
:1034D0000E00024601233C210448FFF777F8BDF8AF
:1034E0000C0004B040BA00B210BD00002003002060
:1034F0001FB54FF4FA73012203A98DE80E0013469D
:1035000002463C210348FFF761F89DF80C0004B027
:1035100010BD00002003002010B504460020FFF776
:10352000E7FF00F0E30040EA8400C1B2BDE81040CC
:10353000002000F05BB810B504460220FFF7D8FF6A
:1035400000F0FC012143BDE81040022000F04EB81D
:1035500070B50D4601F020FE034CA060284601F036
:103560001BFEE06070BD0000000000200E4908282E
:1035700009D2DFE800F004060D0F111315170B4AEE
:1035800000E00B4A4A604007010E012000F02EB80F
:10359000084AF7E7084AF5E7084AF3E7084AF1E777
:1035A000084AEFE7084AEDE70000002048E13A3F0B
:1035B0001F856B3FF6289C3F5C8FC23FAE47114092
:1035C0000AD7234085EB414033338B4010B5044686
:1035D0000020FFF78DFF00F09F0040EA4410C1B2C9
:1035E000BDE81040002000F001B8000003B583B032
:1035F0004FF4FA73012204A98DE80E001346024627
:103600003C210448FFF70AF90A20FEF777FD05B0D0
:1036100000BD000020030020FEE701684A69D24394
:1036200052050FD46FF480624A61002140F8301FC8
:10363000202242738173026942F004020261017325
:103640000120704700207047F8B50446C06A1E4646
:103650000D461746082807D0012805D010F5803FF1
:1036600002D0206B122804D12068016841F48071D7
:103670000160134600224FF001112046009600F031
:1036800029F940B120680068C00502D54FF40070E8
:1036900020640320F8BD2069B0F5804F0ED00620CD
:1036A000216800EAD51040F0F000086133463A4640
:1036B0000B49204600F042F978B902E005F0FE001F
:1036C00000E0E8B221680861054933463A46891F9F
:1036D000204600F033F90028DCD00120F8BD0000BE
:1036E000080001002DE9F84F0446006889460B9D4B
:1036F00001689846174641F48061016020680168BE
:1037000041F48071016000954FF0011B0022594681
:1037100020460A9B00F0DEF84FF4007A40B12068A2
:103720000068C00501D5C4F840A00320BDE8F88FAB
:10373000216809F0FE0008612B46284920460A9AB4
:1037400000F0FCF8F0BB20684169806900902A46CF
:1037500020460A9900F070F940B1206C04283AD153
:103760002068016841F40071016034E0FEB2B8F1F4
:10377000010F09D02168380A08612A4620460A99B3
:1037800000F05AF90028E8D1206806612A46204650
:103790000A9900F051F90028DFD12068016841F44E
:1037A0008071016000950022594620460A9B00F076
:1037B00091F80028B3D1216809F0FF0040F0010022
:1037C000086100E007E02B46044920460A9A00F011
:1037D000B5F80028AAD00120A8E7000002000100E7
:1037E0002DE9F843044600680D46DDE908970168B5
:1037F0009846164641F4807101604B4600224FF016
:1038000001112046009700F065F848B12068006873
:10381000C00502D54FF4007020640320BDE8F88392
:10382000216805F0FE0008613B464A4615492046DE
:1038300000F084F888B920684169806900903A46B0
:103840004946204600F0F8F848B1206C042804D11D
:103850002068016841F4007101600120DEE7F5B2E3
:10386000B8F1010F09D02168300A08613A4649468B
:10387000204600F0E1F80028E7D12068056100202B
:10388000CCE700000200010070B516460D46044664
:103890000DE02046FFF7C1FE08B1012070BD681C95
:1038A00005D0FEF733FD801BA84207D835B120684C
:1038B0004069C0434007ECD4002070BD002044F8AC
:1038C000300F20216173A073216941F02001216133
:1038D0002073E2E72DE9F0471E4690460D46044668
:1038E000C1F30747DDF8209008E0701C06D0FEF712
:1038F0000DFDA0EB0900B0420FD876B12068012F72
:1039000018D0806925EA00000004000C14D00021C2
:103910004145EAD00020BDE8F087002044F8300F90
:1039200020216173A073216941F02001216120737E
:103930000120F0E74069E5E70121E9E72DE9F047DB
:103940009A4691460E46044600254FF02008C1F3E2
:10395000074725E020684069C043400514D420682B
:10396000016841F40071016021686FF48060486172
:10397000256384F83D8084F83E50206C40F00400BC
:10398000206484F83C501FE0B9F1FF3F08D0FEF7F7
:10399000BDFCA0EB0A0149450CD8B9F1000F09D0D4
:1039A0002068012F13D0806926EA00000004000C73
:1039B0000BD0CFE744F8305F84F80D80A573206901
:1039C00040F02000206125730120BDE8F0874069A8
:1039D000EAE72DE9F041002590460E4604462027EF
:1039E00017E04069C043C0060CD454F8301B6FF098
:1039F0001000486144F810596777A577206A206263
:103A0000257717E0FEF782FCA0EB0800B04208D84B
:103A10003EB120684169C9434906E2D40020BDE8AF
:103A2000F08144F8305F6773A573206940F020008F
:103A3000206125730120F2E770B516460D46044655
:103A40000DE02046FFF7E9FD08B1012070BD681CBC
:103A500005D0FEF75BFC801BA84207D835B1206873
:103A60004069C0430006ECD4002070BD002044F83B
:103A7000300F20216173A073216941F02001216181
:103A80002073E2E730B585B0002418480094019413
:103A900002940394816941F020018161816901F000
:103AA00020010491816941F004018161816901F083
:103AB00004010491816941F00801816180690C4D24
:103AC00000F008000490002210212846FEF718FCA0
:103AD000102000900120CDE90104022003906946E6
:103AE0002846FEF71DFB05B030BD00000010024067
:103AF0000008014010B5FFF77EFC0020FFF736FDFF
:103B00000020FFF718FD0620FFF706FD0320FFF752
:103B10005DFD16210A20FFF71BFD0122102103483D
:103B2000FEF7EEFBBDE81040FEF75AB90008014071
:103B3000FEE7FEE77047704708B5064A022310709B
:103B400051704FF47A700090D0210348FEF7A8FC22
:103B500008BD00000000002020030020FEF726BF63
:103B600010B590B028216846FCF7B4FC14210AA8CF
:103B7000FCF7B0FC022000900120049010200024EB
:103B8000059007946846FFF795F808B172B6FEE70E
:103B90000F20CDE90A040C940D9400210AA80E947C
:103BA000FEF79CFF002801D072B6FEE710B010BDF2
:103BB000704700004FF4007201490248FFF7FBBB59
:103BC000500000207403002010B5406A0021C18518
:103BD000C184FFF714FA10BD70B5446A20684069CB
:103BE00094F83D10C0F3C0100025212904D118B16C
:103BF000E584204600F067F82068406994F83E109C
:103C0000C0F38010222904D118B1E585204600F0C8
:103C100042F8206C40F0100020642046FFF7EFF9D6
:103C200070BD10B50146406A0968096889061BD451
:103C30000021C1850168CA6822F48072CA600168E7
:103C40004A6922F001024A6101684A6922F0400291
:103C50004A61202180F83E10016B012904D10168DE
:103C6000CA6822F01002CA60016B012902D0FFF776
:103C700099FB10BD818DFFF7C1F910BD10B5406AE9
:103C8000016B012902D0FFF795FB10BD818D49081A
:103C9000FFF7B4F910BD0168CA6822F49072CA60D7
:103CA00001684A6922F001024A61016B012904D1CD
:103CB0000168CA6822F01002CA60202180F83E1014
:103CC0000021016370470168CA6822F0C002CA601F
:103CD000202180F83D10704708B590F83E10222949
:103CE00001D0022008BD82684FF480539A4201D16E
:103CF000016921B1816A9A421BD04AB10AE0026887
:103D0000816A5268C2F308020A80816A891C08E04D
:103D1000026972B10268526802F07F020A70816A19
:103D2000491C8162C18D491E0904090CC18503D05B
:103D300019E002685268F1E70168CA6822F02002BF
:103D4000CA600168CA6822F48072CA6001684A6960
:103D500022F001024A61202180F83E10016B012906
:103D600003D0FFF71FFB002008BD0021016301689D
:103D7000CA6822F01002CA6001680A68D20602D539
:103D80000A6849680091818DFFF738F9EBE7000078
:103D900070B5044600680169E26821F4405111439E
:103DA00001612169A0680843616908432168CA6804
:103DB00041F20C639A430243CA6020684169A269D8
:103DC00021F44071114341611E492068884202D1AB
:103DD000FEF72AFF01E0FEF717FF00EBC00101EB41
:103DE0000012606864218000B2FBF0F3B3FBF1F3D2
:103DF0006FF018067343B2FBF0F5B2FBF0F605EB7B
:103E00008305322303EB0515B5FBF1F5B6FBF1F69F
:103E100005F0F00505EB0615B2FBF0F6B2FBF0F08D
:103E2000B0FBF1F06FF01802504306EB800003EB9B
:103E30000010B0FBF1F0216800F00F00284488600A
:103E400070BD00000038014038B5816282850025D0
:103E5000134604460564222084F83E00A26B1348F2
:103E60009062A26B1248D062A26B12481063A06BE2
:103E70000A4645632168A06B091DFEF707F9206813
:103E800001684168009184F83C50C16841F4807138
:103E9000C1602068416941F00101416120684169C8
:103EA00041F040014161002038BD0000233C000882
:103EB0007D3C0008D93B00080148FFF7A1B800008D
:103EC000740300200148FFF79BB80000B8030020EE
:103ED000FEE70907090E002804DB00F1E02080F866
:103EE0000014704700F00F0000F1E02080F8141D6E
:103EF0007047002213461046114600F003BB40F203
:103F0000013200204FF0E04101F0D4BA024A002013
:103F1000110701F0CFBA000001FDFFFF10B5044604
:103F2000D1E9000100F002F8206010BDF8B50446A8
:103F30000D466A4600F0DEF800987E3000900028BA
:103F40001EDC002213462046294600F033FC17D021
:103F5000002140F608004FF00000064620462946A2
:103F600000F0E2F9044640F6080006EA00014FF0CE
:103F7000000034F0004004BF0220FCF7DAFA29E028
:103F80000098FF2828DB002108464FF0000000F4CD
:103F90004006002213462046294600F07FFD8CBFD4
:103FA000002501250220FCF7C4FA4FF0FF4446B17A
:103FB000002D0CBF4FF400004FF48000B04218BF3A
:103FC000084C042108464FF00000002D04BF84F087
:103FD0000040F8BD2046F8BD20462946BDE8F8401F
:103FE00000F0A2B9FFFF7F7F10B504460A46D4E96E
:103FF0000003194600F0AAF8C4E9000110BD3038EA
:104000000A2801D2012070470020704770B505468C
:1040100000F056FF00220F4B00F022F804460E4637
:104020000D49284600F0DAFF01F09AF801F0B4F8E3
:1040300005460022094B2046314600F063FA064649
:104040000C46284600F03CFF32462346BDE870404F
:1040500000F09CB9000059400000C84200004E40EA
:1040600070B514461D460E46002814BF01210021DC
:10407000314321F00041C1F17F6101F1E041C90FFD
:1040800016D1002C14BF01210021294321F0004149
:10409000C1F17F6101F1E041C90F09D11449B1EBD0
:1040A000460F08BF00281CD0690008BF002C18D09C
:1040B000314600F045FC024640F2FF7030EA1150F4
:1040C0000DD0F017B0EBE17F09D0084665F31E0074
:1040D00084460B462046614600F016FD0246104617
:1040E00070BD0120FCF725FABDE87040FFF701BF65
:1040F0000000E0FF10B5144600222260114A21F0B2
:1041000000439342A8BF10BD53EA000208BF10BD90
:10411000B3F5801FA8BF226807DA362201F0CAF97A
:104120006FF0350221F000432260DFF81CC06FF30E
:104130001E510CEB23531A4441F0FF5141F0005142
:10414000226010BD0000F07F02FCFFFF2DE9F0416E
:1041500006460C4640F2FF75174635EA14502BD040
:1041600000221346304600F025FB25D03A46304663
:10417000214601F09FF906460C4635EA145010D04E
:1041800000221346304600F015FB15D10220FCF743
:10419000D0F9FFF7BBFE0A46214662F31E01BDE8D7
:1041A000F0810220FCF7C5F9FFF7A9FE0A46214677
:1041B00062F31E01BDE8F08130462146BDE8F08182
:1041C00008B5FEF7FBFBFFF7CBFCFFF75BFC2848CD
:1041D0002649002401602749C0E901144FF48041B9
:1041E000C0E9034144618461C4610462FEF794F84C
:1041F00008B172B6FEE72048416941F00101416112
:104200004069002200F00100009011461020FEF7E6
:1042100033FC1020FEF722FC1548184998304FF463
:1042200016550160C0E901540C26C460C0E904467B
:104230008461C461FEF7EAFF08B172B6FEE70C487C
:104240000F4954300160C0E90154C460C0E904461C
:104250008461C461FEF7DAFF08B172B6FEE7FFF7CA
:1042600049FC00BFFDF734FDFCE7000000580040AA
:1042700020030020801A0600001002400044004085
:10428000003801402DE9F04106460F4600F048FC99
:10429000041E0D4618BF0120284320F00040C0F145
:1042A0007F6000F1E040C00F0ED0301C18BF01202D
:1042B000384320F00040C0F17F6000F1E040C00FC3
:1042C00004BF0120FCF735F920462946BDE8F081FE
:1042D00010B500290AD00878002807D0054878448E
:1042E000FDF792F8002801D0002010BD0248784464
:1042F00010BD0000961300008E13000010B50029B9
:104300000AD00878002807D005487844FDF77CF8E3
:10431000002801D0002010BD0248784410BD0000E4
:10432000861300007E13000021F00042A2F16052CB
:10433000B2F5801F01F0004328BFD2F17F6C0BD98A
:104340005FEA001C43EAC20242EB507018BF70479C
:1043500028BF20F001007047B2F5801FBCBF18468F
:1043600070474FEA410C1CF5001F02D2084600F0CE
:10437000F2BF70B500F096FA00000089FFF7F6BFB3
:104380004FF00040A0F580007047000010B591EAA2
:10439000030F48BF83F0004300F1B084841A71EB2F
:1043A000030C05D2121943EB0C03001B61EB0C014B
:1043B000DFF824E14FEA1154A4EB135C1EEA430F2B
:1043C00018BF9EEA445F73D023EA0E03DCF1200E8F
:1043D00021EA045143F4801332D322FA0CFE10EB8D
:1043E0000E0023FA0CFE41EB0E01CCF1200E03FA75
:1043F0000EFE10EB0E0051F10001B1F5801FCCF163
:10440000200E32D201EB045112FA0EF2BDE8104038
:1044100058BF7047401C38BF5FEA420218BF704760
:10442000002814BF20F0010041F100014FEA4103D0
:1044300013F5001F38BF7047A1F1C04100F028BB41
:10444000012A43EB0302ACF1200CDCF11F0E32BF5A
:104450004FF0000E23FA0CF310EB030041EB045174
:10446000B4EB115FD0D0A1EB045101F580114908E4
:104470005FEA300001EB04510ED350F1000038BF69
:1044800012FA0EFE08D1BDE81040C9E7401C38BF43
:104490005FEA4202CAD1C3E7BDE810404FEA4103D8
:1044A00013F5001F38BF7047A1F1C04100F0F0BA0A
:1044B0009EEA445F08D011EA5E0FBDE8104004BFD9
:1044C00001F0004100207047BDE8104070B500F0D9
:1044D000E9F900BF64FBBE3E0000E0FF02494FF077
:1044E000000000F0B5BF00BF0000F87F491058BFC2
:1044F000C1F140415B1058BFC3F140438B42EFF321
:10450000008070472DE9C04130B4DFF8A0C23CEA1A
:10451000111418BF3CEA131400F0EC8081EA030583
:104520001CEA111444EAD57418BF1CEA131500F0F4
:10453000C780A4EB05044FF0004545EAC12145EAD8
:10454000C32341EA505143EA525304F17F74994224
:1045500004F500344FEAC0204FEAC22208BF90425F
:1045600000F09C804FEA13650FF24016765D4FEA2B
:10457000134506FB05F7C7F1807706FB07F74FEAFF
:10458000D737A7FB03687642C8F58038A7FB06CE6D
:1045900038BFA8F1010807FB08E64FF0000EA6FBA4
:1045A000028CE6FB03CEDCF1000CCEF1004E38BFEE
:1045B000AEF1010EA6FB0C584FF000074FF00005BE
:1045C000E6FB0E87A1FB08C6A0FB07CE16EB0E0686
:1045D00045F10005E1FB076515F1E04E7EBFA4F54E
:1045E00080345FEA46066D4116F1800745F100050B
:1045F0004FEA17274FEA066647EA0567A6F1DE4647
:10460000B6F1805F4FEA15251FD9384624F0010C1A
:1046100005EBC471BCF1FE6F01EB0C1102D8F0BCCC
:10462000BDE8008124425CBF01F5801E9EEAC47F84
:1046300002D4F0BCBDE80081244238D4F0BCA1F122
:10464000C041BDE8004100F023BA4FEAD22242EA5D
:1046500043524FEAD323A7FB02864FEAD02040EA19
:10466000415007FB03661EEA0E0F4FEAD12105FBFE
:10467000026658BFA6EB0056B6EB00564FEA520E44
:104680004EEAC37E18EB0E0E56EB530EBDD518EB5B
:1046900002085E417F1C55F10005B6E74FF4801516
:1046A0004FF000074FF000064FF00008ADE7F0BCF8
:1046B0004FF0000001F1C04101F00041BDE8008170
:1046C00011EA0C1F0CEA131500D00CE013EA0C1FC2
:1046D00000F025804FF00000F0BC81EA030101F0FA
:1046E0000041BDE80081F0BCBDE8004181EA030162
:1046F00000F0CEB9F0BCBDE8004170B500F0D2F8D2
:10470000097EFC3E00F007B881EA03014FF000008B
:1047100001F00041704781EA030100F0B9B9F0BC33
:10472000BDE800414FF0000021497047FFFDFBF953
:10473000F7F5F4F2F0EEEDEBE9E8E6E4E3E1E0DED4
:10474000DDDBDAD8D7D5D4D3D1D0CFCDCCCBCAC846
:10475000C7C6C5C4C2C1C0BFBEBDBCBBBAB9B8B76D
:10476000B6B5B4B3B2B1B0AFAEADACABAAA9A8A860
:10477000A7A6A5A4A3A3A2A1A09F9F9E9D9C9C9B2E
:104780009A999998979796959594939392919190D9
:104790008F8F8E8E8D8C8C8B8B8A8989888887876A
:1047A0008685858484838382828181800000FF07DF
:1047B0000000F87F51EA030C17D41CF5801F58BF86
:1047C000BCF5801F00F10680994218BF704708BFF2
:1047D0009042704707D711F5801F58BF13F5801F0F
:1047E00019D499427047894270471CF5801F08D53B
:1047F000BCF5801FF7D58B4218BF704708BF8242B7
:1048000070474FF4001C1CEB410F38BF1CEB430FEB
:1048100001D28B42704770B500F044F892244900F1
:104820004FF000514FF08053FFF760BE51EA030C88
:1048300017D41CF5801F58BFBCF5801F00F10680FF
:10484000994218BF704708BF9042704707D711F5CB
:10485000801F58BF13F5801F19D4994270478942B1
:1048600070471CF5801F08D5BCF5801FF7D58B421B
:1048700018BF704708BF824270474FF4001C1CEB02
:10488000410F38BF1CEB430F01D28B42704770B50C
:1048900000F008F8922449004FF000514FF0805387
:1048A000FFF724BE0EF1020E2EF0030E5EF8046B2D
:1048B000364205D4012A43EB030515F5001F12D833
:1048C000012841EB010C1CF5001F0CD80ED14FEA5A
:1048D000D17C15F5001F0CEB4C0C0CF1020C08BF41
:1048E0004CEBD37C04E04FF0080C01E04FEAD37CA2
:1048F0000CEB4C0526FA05F606F00706B6F1040C9B
:1049000006D20EEB860CBDE870404CF0010C6047FF
:10491000DFE80CF0090B02024FF000414FF00000FD
:10492000A1F5002170BD19461046012851EB010484
:1049300018BFD4F5001484BF002001F0004170BD01
:10494000DFF844C170B53CEA111418BF3CEA1315F6
:1049500000F08F8011F1004F1CEA13150CEA1114BE
:1049600068BF45F0050518BF11EA0C1F00F07980FB
:104970002E4621EA4C1123EA4C1341F4801143F4F2
:104980008013A5F58035AC423DDD801A9941A4F530
:10499000803609D54042C1F1000134BFB1F10101B7
:1049A000B1F1000185F0010511F4F01F08D011F4F8
:1049B000801FE8D1400041EB0101A4F58034F6E707
:1049C00021F00041B1FA81F6202E04BFB0FA80FE3A
:1049D0000EF12006A6F10B06B6F1200EA4EB06445C
:1049E0000CD2C6F1200E01FA06F120FA0EF641EAC9
:1049F0000601CEF1200600FA06F003E000FA0EF1FF
:104A00004FF00000BFE750EA410E23D04FEA244E9A
:104A1000BEEB254F0FDB994208BF904204D00AD36A
:104A2000520043EB0303B0E74FEA1646B6EB144FD0
:104A300008BF85F00105B4F5803401EB041181EA6B
:104A4000C57100DB70BD01F1C0414FF0000001F005
:104A5000004170BD4FEA45714FF0000001F0004188
:104A600070BD1CEA131F09D04FF0000001F0004197
:104A700070BDFFF717FF00BFEDFFFF3EBDE87040C0
:104A80004FF00000014970470000FF070000F87F69
:104A90000808A0F500114FEA3101704753EA010CF4
:104AA00017D41CF5801F58BFBCF5801F00F106808D
:104AB0008B4218BF704708BF8242704707D713F573
:104AC000801F58BF11F5801F19D48B4270479B423D
:104AD00070471CF5801F08D5BCF5801FF7D599429B
:104AE00018BF704708BF904270474FF4001C1CEB82
:104AF000430F38BF1CEB410F01D2994270470FB4EE
:104B00000CBC03BCFFF7C3BE91EA030F10B581F0E4
:104B100000413FF543AC83F0004300F0EFB80000E4
:104B20002DE9F04101F5801CBCF5001FC0F2C380E7
:104B30004FEA115C21EA0C510CF1FD0C41F480119B
:104B40005FEA5C0C0CF5C07C01D3400049413DA4F8
:104B5000890241EA905187028E0E0A0CA45D04FB83
:104B600004F602FB06F6C6F14046A4FB0662F60D0B
:104B700046EA422606FB06F4A4FB01235242C3F197
:104B8000404338BF5B1EA6FB02420024E6FB032421
:104B9000D20B42EA4446A6FB0623A1FB02E2A3FB9A
:104BA00007E4A4184FF0000252F10002E3FB0142B7
:104BB0006442C2F1404E38BFAEF1010EA6FB0423A1
:104BC0004FF00002E6FB0E32A2FB03464FF000045A
:104BD000B61954F10004E2FB0264A1FB06E6A4FB53
:104BE00007E816EB08064FF0000858F10008E4FB50
:104BF00001687642C8F1405838BFA8F10108A2FB0D
:104C000006E4A3FB08E52D194FF0000454F100045D
:104C1000E2FB0854A1FB05E6A7FB04E818EB060835
:104C20004FF0000656F10006E1FB048618F120055E
:104C300056F10006A809A8F11B08B10908F03F08C1
:104C4000B8F10A0F40EA86601CD901EB0C51BDE8AF
:104C5000F08100BFFCF5EEE8E2DDD8D3CFCBC7C3CF
:104C6000C0BDB9B6B4B1AEACA9A7A5A3A19F9D9B89
:104C70009A9896959392908F8D8C8B89888786854C
:104C800084838281A0FB006800FB01F208EB4208EC
:104C9000B8EB872807D5341858EB0104D5D5401C4C
:104CA00051F10001D1E7341A78EB0104CDD4401E54
:104CB00071F10001C9E75FEA4C0C5FEA9C5C0DD121
:104CC00005D34FF0000001F00041BDE8F081BDE8E0
:104CD000F04170B5FFF7E6FD6DDBFFBEBDE8F041CA
:104CE0004FF00000004970470000F87F10B591EACE
:104CF000030F48BF83F000433FF550AB841A71EBBC
:104D0000030C07D212198CF0004C43EB0C03001B70
:104D100061EB0C01DFF8A4E14FEA1154A4EB135C42
:104D20001EEA430F18BF9EEA445F00F0B08023EAFA
:104D30006E03524221EA0451C3EB6E0338BF5B1E7F
:104D4000DCF1200E25D322FA0CFE10EB0E0043FA04
:104D50000CFE41EB0E01CCF1200E03FA0EFE10EB1F
:104D60000E0051F10001CCF1200E29D412FA0EF2FE
:104D700001EB0451BDE8104058BF7047401C1CBFF8
:104D8000B2F1004F704700280CBF491C20F0010011
:104D9000704712EB020E43EB030218BF4FF0010EF7
:104DA0004EEA4202ACF1200CDCF11E0E54D943FA5B
:104DB0000CFE10EB0E0051F1FF31CCF11E0ED5D5DB
:104DC0000EF1010E12FA0EFE404141EB010101EB22
:104DD000445C5FEA5C5C10D910EBDE7001EB0451BF
:104DE00038BFBEF1004FBDE8104018BF7047002823
:104DF0000CBF491C20F00100704730D24FEAD42C80
:104E000011F5001124F400641BD0B1FA81F20B3AC1
:104E1000A41AA41ED2F12003914030FA03F31943DF
:104E2000904001EBCC71002C01EB0451BDE8104027
:104E3000A8BF704701F1C0414FF0000001F00041F0
:104E40007047B0FA80F310FA03F100D110BDE41AF4
:104E5000173C4805C90AE4E701EB045110BD4910AD
:104E600001EB0451BDE810404FEA300002E04FF082
:104E7000000170474A0008BF0042F8D0B2F5001F99
:104E800028BF704701F000414FF0000070479EEAD4
:104E9000445F07D011EA5E0FBDE8104004BF002157
:104EA00000207047BDE8104070B5FFF7FBFC00BF65
:104EB00040DFF63E83F00041104670470000E0FFFF
:104EC00043004FEAD30C4FEA3C0C43401FBF40075E
:104ED0000CF1605113F0FE4F70471CF0006F03D1CE
:104EE00000200CF0004170470CF0004343EA507082
:104EF00010B540EACC0000F0E8F900BF00000092D5
:104F00004FEA0001FFF7C4BD4FF000414FF0000031
:104F1000A1F500217047000090EA010F48BF81F021
:104F2000004100F12482421A3CBF801A89184FEADE
:104F3000D0524FF07F4C1CEA410FA2EBD15318BF67
:104F40009CEA026F00F03B804FF0004C4CEA0020DE
:104F50004CEA012121FA03FC10EB0C0C1ED202F1E9
:104F6000FF325FEA1C2040EBC25038BF70471CF094
:104F70007F0F4FEA400C18BFBCF17F4F38BF70471E
:104F8000C3F12003994008BF20F00100BCF17F4F1E
:104F900038BF7047A0F1C04000F0DDB94FEA3C00D7
:104FA000000A40EBC25028BF1CF0FF0F4FEA400C34
:104FB000E6D018BFBCF17F4F38BF7047EAE79CEAE4
:104FC000026F05D010EA5C0F08BF00F00040704788
:104FD00010B500F07AF900BF64FBBE3E4FF47F0CC1
:104FE0001CEAD0121EBF1CEAD11392EA0C0F93EAFE
:104FF0000C0F00F0858090EA010F48BF42F48072E8
:1050000040F4000C41F400002CF07F4120F07F4080
:1050100000B58142A2EB03020FF2081CACEB504E2C
:10502000C0F100009EF800E04FEA4E0E00FB0EFCBF
:1050300038BF49004FEA2C1C02F5FA020CFB0EF3B4
:105040004FEACE1E4FEA112C4FEAC1210EEB635EF0
:1050500042EB22420EFB0CFC4FEA1C5300FB0311F7
:105060004FEA112C4FEA01310EFB0CFC4FEADC4CED
:1050700000FB0C11C14228BF09184CEB03335DF84B
:1050800004EB10EB410143EBC250B2F57C0F38BF8B
:10509000704729D512F0F00F1CBF00F1C04000F09E
:1050A00000407047008182838485868788898B8C45
:1050B0008D8E8F919293959697999A9C9D9FA0A281
:1050C000A3A5A7A8AAACAEB0B2B3B5B7B9BCBEC0D1
:1050D000C2C5C7C9CCCED1D4D7D9DCDFE2E6E9EC72
:1050E000F0F3F7FAFE0000004FEA400C0CF1807C70
:1050F000BCF17E4F28BF7047B0F1C04000F02BB923
:1051000090EA010F0CEAD11348BF42F48072624565
:1051100038BF634507D213F47F0F16D080EA010031
:1051200000F00040704710B500F0CFF8097EFC3E5B
:1051300000F005B880EA010000F00040704780EA06
:10514000010000F0004000F006B912F47F0F04BF28
:105150000248704780EA010000F0FDB80000C07FFF
:1051600041000B0ED3F19E0208D950F400034FEA20
:10517000032323FA02F048BF4042704710B500F005
:10518000A4F800BF49922480002070476FF00042CD
:1051900082EA20007047000010F0004148BF404202
:1051A000B0FA80F310FA03F2C3F19D030BD051EA79
:1051B000C35101EB1220530638BF704700F10100C4
:1051C00008BF20F0010070474FF47F0C1CEAD0129A
:1051D0001EBF1CEAD11392EA0C0F93EA0C0F00F0E9
:1051E000478090EA010F48BF42F480724FF0004CB4
:1051F0004CEA00204CEA012102EB0302A0FB011360
:10520000A2F50002002918BF43F001035B0028BF8C
:105210004FEA330342EB22425FEA132C4CEBC250BD
:105220002EBFBCEB436FB2F57C0F70474FEA036CA7
:10523000BCF1004F08BF20F00100B2F57C0F38BF71
:1052400070470BD582F0FF0212F5803FC8BF704750
:1052500000F1C040D8BF00F00040704700F5000CDE
:105260005FEA4C0C48BF7047B0F1C04000F073B823
:1052700090EA010F0CEAD11348BF42F480726245F4
:1052800038BF634504D280EA010000F00040704757
:1052900010B500F01AF800BF8900013E00F007B811
:1052A00000F009B85FEA410C5FEA1C6C08D080EAA4
:1052B000010000F050B85FEA400C5FEA1C6CF6D1C8
:1052C0004FF00040A0F5800070470EF1020E2EF066
:1052D000030E5EF8044B244204D44FEA4102B2F1BB
:1052E0007F4F11D84FEA4003B3F17F4F0CD80ED156
:1052F0004FEAD07CB2F17F4F0CEB4C0C0CF1020C5E
:1053000008BF4CEBD17C04E04FF0080C01E04FEA01
:10531000D17C0CEB4C0324FA03F404F00704B4F141
:10532000040C06D20EEB840CBDE810404CF0010CCE
:105330006047DFE80CF0070802024FF00040A0F5DC
:10534000800010BD0846420018BFD2F1807288BFAD
:1053500000F0004010BDFF2141EAD050C005704769
:1053600090EA010F48BF81F000413FF5DCAD421AE1
:1053700004D882F00042A0EB020011444FEAD05260
:105380004FF07F4C1CEA410FA2EBD15318BF9CEAAF
:10539000026F4AD04FF0004C4CEA00204CEA012149
:1053A00021FA03FCB0EB0C0C0FD412F0FE0F36D038
:1053B0005FEA4C001DD5001240EBC25038BF704769
:1053C0001CF03F0F18BF70470BE0A2F101025FEA2B
:1053D0001C2040EBC25038BF70471CF07F0F18BF35
:1053E0007047C3F12003994014BF401E20F0010014
:1053F000704780084FEA122308BF7047B0FA80FC5C
:10540000A2EB0C02CCF1280C60FA0CF093EA122FFC
:1054100004BF00EBC25070474FEAC3707047130AD5
:105420005FEADC1008BF7047F6E79CEA026F04D021
:1054300010EA5C0F08BF0020704710B5FFF745FF6A
:1054400040DFF63E81F0004070474FF000007047AB
:105450000CF00F03092B08BF082000F05F800A2B17
:105460000BD0082B18BF704708BF1CF0400F0AD0A4
:105470004FF000004FF0000170471CF0400F18BFC4
:105480004FF0004070471CF0100F08D020F0704320
:1054900000F07F4242EAD3014FEA4370704700F0C8
:1054A000604021F07F4242EA000201F07F4040EA82
:1054B000727070474FF0FF0C4CF4E06C1CEA115313
:1054C0001CBF9CEA030C9445C2BFDA4201EB0251B7
:1054D0007047002B0DD0BCF1000F0FD0002A01F057
:1054E0000041A4BF41F0E04141F07F614FF0000076
:1054F000704701F000414FF00000704750EA01335F
:105500004FF09B0C18BF4CF0806C7EF4E7AF7047F7
:10551000FBF74AB9FBF744BDFBF7D2BE1CF4801F72
:1055200011D01CF4E02F03D06FEACC314900704752
:105530004FF04050EFF3008222F0704242EA000246
:1055400082F3008870474FF00000704700000000B1
:105550000000000001020304060708090000000023
:105560000102030402400000000000A0000000004F
:1055700005400000000000C8000000000C400000D2
:105580000000409C00000000194000000020BCBE4C
:105590000000000034400000BFC91B8E0000000462
:1055A000B5400000504BCFD06607E2CF01000000AD
:1055B0006C4100003E8251AADFEEA73401000000DA
:1055C000D9420000DCB5A0E23A301F97FFFFFFFF91
:1055D000B4450000FD25A0C8E9A3C14FFFFFFFFFB0
:1055E000FF3F00000000008000000000FF3F0000BF
:1055F00000000080000000002447504747412C2550
:1056000032686864253268686425326868642E25CB
:105610003368642C25662C25632C25662C25632C89
:10562000256868642C256868642C25662C25662C02
:1056300025632C2568642C25732C2A2532730D0ACA
:1056400000000000A0570008000000202400000017
:1056500028010008C4570008240000207C0A00002C
:1056600044010008000000000000F07FFFFFFFFF82
:10567000FFFFEF7F1C00000043000000F8FFFFFF6A
:105680000C0000000E0000000F0000002E000000C3
:105690001001000043000000F8FFFFFF0040404001
:1056A00040404040404041414141414040404040F5
:1056B00040404040404040404040404040050202A1
:1056C0000202020202020202020202020220202060
:1056D00020202020202020020202020202029090BC
:1056E00090909090101010101010101010101010BA
:1056F000101010101010101002020202020288880E
:105700008888888808080808080808080808080819
:105710000808080808080808020202024000000001
:105720000000000000000000000000000000000079
:105730000000000000000000000000000000000069
:105740000000000000000000000000000000000059
:105750000000000000000000000000000000000049
:105760000000000000000000000000000000000039
:105770000000000000000000000000000000000029
:105780000000000000000000000000000000000019
:105790000000000000000000000000000000000009
:1057A0000000000048E13A3F000000000000000057
:1057B00003000000010000001000000000000000D5
:0457C0000024F400CD
:04000005080000ED02
:00000001FF
