:020000040800F2
:1000000010500020810200088B28000803240008FB
:1000100089280008F1070008455800080000000082
:10002000000000000000000000000000AD3C0008DF
:10003000F307000800000000072A0008B93C000888
:100040009B0200089B0200089B0200089B0200081C
:100050009B0200089B0200089B0200089B0200080C
:100060009B0200089B0200089B0200089B020008FC
:100070009B0200089B0200089B0200089B020008EC
:100080009B0200089B0200089B0200080000000081
:100090000000000000000000000000009B020008BB
:1000A0009B0200089B0200089B0200089B020008BC
:1000B0009B0200089B0200089B0200089B020008AC
:1000C0009B0200089B0200089B0200089B0200089C
:1000D0009B0200089B0200089B0200080000000031
:1000E0009B0200089B0200089B0200080000000021
:1000F0000000000000000000000000009B0200085B
:10010000000000009B0200089B0200089B02000800
:1001100000000000000000000000000000000000DF
:100120009B0200089B0200089B0200089B0200083B
:100130009B0200080000000000000000000000001A
:100140000000000000000000000000008D280008F2
:100150009B0200089B0200089B0200089B0200080B
:100160009B0200089B020008000000000000000045
:10017000000000000000000000000000000000007F
:10018000000000009B0200080000000000000000CA
:100190009B0200089B02000800F002F800F061F8E2
:1001A0000AA090E8000C82448344AAF10107DA45D2
:1001B00001D100F056F8AFF2090EBAE80F0013F0C3
:1001C000010F18BFFB1A43F001031847AC6F000082
:1001D000CC6F00000A444FF0000C10F8013B13F004
:1001E000070408BF10F8014B1D1108BF10F8015B90
:1001F000641E05D010F8016B641E01F8016BF9D183
:1002000013F0080F1EBF10F8014BAD1C0C1B09D1D9
:100210006D1E58BF01F801CBFAD505E014F8016B4B
:1002200001F8016B6D1EF9D59142D6D370470000DD
:100230000023002400250026103A28BF78C1FBD8EF
:10024000520728BF30C148BF0B607047752900F0C6
:10025000C380002070471FB506F012FF1FBD10B508
:1002600010BD00F042FA1146FFF7F5FF06F012FB51
:1002700000F060FA03B4FFF7F2FF03BC00F068FA85
:100280000948804709480047FEE7FEE7FEE7FEE72A
:10029000FEE7FEE7FEE7FEE7FEE7FEE70448054966
:1002A000054A064B70470000553D000899010008BB
:1002B000103000201050002010400020104000207E
:1002C00053EA020C00F069802DE9F04B4FF0000674
:1002D000002B1FBFB3FA83F503FA05F424FA05F6E1
:1002E0005E4012BF1643B2FA82F502FA05F4C5F178
:1002F00020051EBF22FA05FC44EA0C04203556EA0C
:10030000044C4FEA144418BF641C4FF000084FF02F
:100310000009904271EB030C39D3002919BFB1FADF
:1003200081F701FA07F6B0FA80F700FA07F6C7F18D
:1003300020071EBF20FA07FC46EA0C062037B6FB52
:10034000F4FCA7EB0507103F07F01F0BCBF12006CD
:100350000CFA0BFB2CFA06F644BFB3460026202FFE
:10036000A4BF5E464FF0000B5BEA060C08BF4FF0DF
:10037000010B19EB0B09ABFB027C48EB0608C01B19
:1003800006FB02CC0BFB03CC71EB0C01C1E70B4667
:10039000024641464846BDE8F08B13B54FF00000D9
:1003A0004FF00001AFF30080BDE81C407047000033
:1003B0000FB41CB5074B06AA7B446946009005980C
:1003C00000F07BF90020694600F08AF91CBC5DF85A
:1003D00014FB0000250300002DE9F041064600242F
:1003E00010687529314616A510D0AFF3008000289B
:1003F00002DA404213A507E031688A0701D512A549
:1004000002E0490704D511A5012401E0AFF3008003
:1004100000210A2206F1240709E0B0FBF2FCB0FB40
:10042000F2F302FB1C00303078541846491C0028B7
:10043000F3D123462A463046BDE8F04100F0DFB84C
:10044000000000002D0000002B0000002000000034
:100450002DE9F0410F460546002028622846E9684C
:10046000884770B3252805D0D5E901219047286A2F
:10047000401CF2E7E9682846002688476C280446B5
:100480000AD0682C08D04C2C35D06A2C31D0742C72
:1004900031D07A2C2FD016E0E968064628468847E6
:1004A000B042044608D16C2E23D04FF48066284613
:1004B000E9688847044606E06C2E03D04FF4807646
:1004C00001E01EE04026E4B1A4F14100192802D861
:1004D000203446F400663A46214628462E60FFF74F
:1004E000B5FE60B1012808D0FF1D27F007070837C7
:1004F000B4E78026DBE70026D9E73F1DAEE72046BC
:10050000B2E7286ABDE8F08110B5431C02E010F89C
:10051000011B71B18107FAD14FF0013202C88C1A68
:100520008C4314EAC211F9D0C01A0A0603D0C01EC7
:1005300010BDC01A10BD0A0401D0801E10BD0902F2
:10054000FCD0401E10BD10B5203AC0F00B80B1E8C1
:100550001850203AA0E81850B1E81850A0E81850F8
:10056000BFF4F5AF5FEA027C24BFB1E81850A0E801
:10057000185044BF18C918C0BDE810405FEA827C1B
:1005800024BF51F8043B40F8043B08BF7047D20732
:1005900028BF31F8023B48BF11F8012B28BF20F8D3
:1005A000023B48BF00F8012B70474FF0000200B536
:1005B000134694469646203922BFA0E80C50A0E886
:1005C0000C50B1F12001BFF4F7AF090728BFA0E834
:1005D0000C5048BF0CC05DF804EB890028BF40F800
:1005E000042B08BF704748BF20F8022B11F0804F42
:1005F00018BF00F8012B70477047704770472DE90E
:10060000F0470D4699469246044600F124080168D9
:10061000880604D5E06921F01001216000E0012086
:10062000A84201DD471B00E00027A1697A1902EB0F
:100630000900081AA0612078C00602D42046AFF352
:100640000080002608E0D4E901211AF8060090474E
:10065000206A401C761C20624E45F4DB2078C006E0
:100660000AD52046AFF3008006E0D4E9012130200E
:100670009047206A401C2062381EA7F10107F4DC75
:1006800007E0D4E9012118F805009047206A401CD2
:100690002062281EA5F10105F3DC2046AFF300809F
:1006A0002078000602D50220BDE8F0870120FBE794
:1006B00001694A1C02610878704700B58FB0CDE926
:1006C00001310021059105497944CDE90310114616
:1006D0006846FFF7BDFE0FB000BD0000E5FFFFFF5D
:1006E0000A6802F8010B0A607047754600F02CF8A2
:1006F000AE4605006946534620F00700854618B00F
:1007000020B5FFF7CBFDBDE820404FF000064FF0CD
:1007100000074FF000084FF0000B21F00701AC4636
:10072000ACE8C009ACE8C009ACE8C009ACE8C00955
:100730008D46704710B50446AFF300802046BDE8F3
:100740001040FFF797BD000000487047AC2F002015
:1007500001491820ABBEFEE72600020070470000EA
:100760000146014801F0D8BA5401002010B50448F0
:1007700001F0E4FA042801D0012010BD002010BDD2
:100780005401002010B500F00BF8012801D0012021
:1007900010BDBDE81040014801F0E6BA5401002048
:1007A00008B501208DF800009DF8000008BD00008C
:1007B00038B50024009313460A460146034801F069
:1007C0008BFB00B10124204638BD000054010020FD
:1007D00038B50024009313460A460146034801F049
:1007E00067FC00B10124204638BD00005401002000
:1007F000FEE7704772B6FEE7002200F001B8000085
:1008000030B50E4B054601205C7A002C14D1587A85
:100810001C54587A03EB800045605D7A03F10800B0
:100820002A54587A421C5A72303008703A20487064
:100830002F208870CC70002030BD000020230020C5
:1008400070B5044600F004F90546601C02D0044867
:100850000078044400F0FCF8401BA042FAD370BDBD
:10086000180000202DE9F84FDFF8B8A1002201247C
:1008700003254FF00F090AF1040BAAF1040E00BF83
:100880000B6804FA02F63340B34273D10F7907F0D4
:100890000307012F01D0022F16D187684FEA4208C3
:1008A00005FA08FC27EA0C07D1F80CC00CFA08FC82
:1008B0004CEA070CC0F808C04768B7430E79C6F386
:1008C000001696403E4346600E79F643B6070DD0BB
:1008D000C768560005FA06FC27EA0C07D1F808C0DD
:1008E0000CFA06FC4CEA070CC0F80CC00E7906F0B6
:1008F0000306022E10D1D60800EB8608D8F8206037
:1009000057074FEAD76C09FA0CF7BE430F6907FA8D
:100910000CF73743C8F8207006684FEA420C05FA16
:100920000CF7BE430F7907F0030707FA0CF73743BC
:1009300007604E6816F4403F6DD03B4E376847F471
:1009400080473760366822F0030706F48046009639
:10095000364E07EB060CDCF8086897073F0F09FADC
:1009600007F826EA0806DFF8C880404503D14FF0B3
:1009700000081EE04FE0DFF8BC80404502D14FF098
:10098000010816E0DFF8B080404502D14FF00208C0
:100990000FE0DFF8A880404502D14FF0030808E0DF
:1009A000DFF89C80404502D14FF0040801E04FF091
:1009B000070808FA07F848EA0608CCF80888DAF8C1
:1009C00000605746D1F804C09E435FEACC2C00D5A6
:1009D0001E433E60DBF800605F46D1F804C09E43D2
:1009E0005FEA8C2C00D51E433E60DEF8006077463F
:1009F000D1F804C09E435FEA8C3C00D51E433E60A4
:100A0000084F083F3E68D1F804C09E435FEACC3CE3
:100A100000D51E433E60521C102AFFF431AFBDE8E2
:100A2000F88F0000083C014044380240003001408B
:100A3000000002400004024000080240000C024096
:100A4000001002400AB1816170470904FBE7000011
:100A50000148806870470000180000200248816843
:100A60000278114481607047180000200B4810B5CF
:100A7000016841F400710160016841F48061016026
:100A8000016841F480710160032000F06FF80F20CD
:100A900000F006F800F024F8002010BD003C0240F1
:100AA00070B50D4D04464FF47A712878B1FBF0F023
:100AB0000A490968B1FBF0F001F0D0FB48B9102CED
:100AC00007D200222146501E00F030F800206C6052
:100AD00070BD012070BD000018000020240000201F
:100AE0000A4808B5016841F480410160006800F4DB
:100AF000804000900548001F016841F0805101606E
:100B0000006800F08050009008BD000044380240AA
:100B1000002809DB00F01F020121914040098000FC
:100B200000F1E020C0F8001170470000F0B40E4B57
:100B30001B680C46C3F30223C3F10705042D00D93B
:100B40000425191D072901D2002300E0DB1E012620
:100B500006FA05F1491E214099409E40761E164036
:100B60003143F0BC04F06FBE0CED00E0064900F02C
:100B7000070208684FF6FF03184040EA0220034AC4
:100B800010430860704700000CED00E00000FA051B
:100B900070470068416200207047F0B50368586AEA
:100BA00039B19C6A4FF4827600EB144400204D1E4C
:100BB0000AE040EA024098620FE006EB8007DF5946
:100BC000401C04EB1744C0B2A842F6D344EA0240EA
:100BD0004FF4807202EB810158500020F0BDD0F834
:100BE000080503F0CDBB01EBC10200EB8202D0F897
:100BF0000805D26C03F022BB01EBC10200EB8202BC
:100C0000D0F80805D2F88C2203F073BBD0F80805A1
:100C100003F0B8BB0A0601F00F0101EBC10100EBC4
:100C2000810101D53C3101E001F51F71006804F03C
:100C300051BC70B504460B0601F00F0000EBC0017B
:100C400004EB81014FF001024FF0000503D581F85C
:100C50003D203C3103E081F87D5201F51F710870A1
:100C600094F8BC04012808D084F8BC24206804F05F
:100C7000EBF884F8BC54002070BD022070BD70B544
:100C8000044601F00F006268904201D9012070BD56
:100C90000B0601F00F0101EBC10104EB81014FF0E4
:100CA00001024FF0000503D581F83D203C3103E0FF
:100CB00081F87D5201F51F718D70087094F8BC04A5
:100CC000012808D084F8BC24206804F0B9FA84F81C
:100CD000BC54002070BD022070BD10B5044690F8D1
:100CE000BC0401280AD0012084F8BC04080607D5FA
:100CF00001F00F01206804F061FC04E0022010BD47
:100D0000206804F03DFC002084F8BC0410BD01F014
:100D10000F0101EBC10100EB8100D0F89C0270478C
:100D20002DE9F04104460F0601F00F0000EBC00171
:100D300004EB81014FF001064FF0000503D581F867
:100D40003D603C3103E081F87D5201F51F71087070
:100D5000CA600B714A7802B10881022B00D14D7133
:100D600094F8BC04012809D084F8BC64206803F01E
:100D7000C3FF284684F8BC54BDE8F0810220FBE79D
:100D800070B50C4601F00F0505EBC50100EB8101C4
:100D9000C1F89432C1F88C220023C1F89C3281F84A
:100DA0007D3281F87C52036901F51F71012B00D15E
:100DB0004A612207027C006803D004F099FA0020FF
:100DC00070BD04F083F9FAE770B504460D4601F0F2
:100DD0000F006168884201D9012070BD29064FF0DB
:100DE00000064FF0010207D500EBC00104EB8101C2
:100DF00081F83D203C3107E005EBC50104EB8101A2
:100E000081F87D6201F51F718A70087094F8BC0446
:100E1000012807D084F8BC24206804F03DFA280794
:100E200002D007E0022070BD217C04F2C442206899
:100E300004F0DAF984F8BC64002070BD70B50C468B
:100E400001F00F0505EBC50100EB81014B65CA649C
:100E50000023CB65012381F83D3001F83C5F036935
:100E6000012B00D14A612207027C006803D004F004
:100E70003FFA002070BD04F029F9FAE72DE9FC5F84
:100E800005680446284604F0C6FB00287DD120688A
:100E900004F0EDFB002878D0D5F80808C0F30D2049
:100EA000C4F8FC04206804F0E2FB800704D5206845
:100EB000416901F002014161206804F0D8FBC106DC
:100EC00004F2C440009034D52068816921F01001FB
:100ED00081612F6A07F00F0000EBC00004EB800671
:100EE000C7F3434006F51F76022802D0062811D02A
:100EF0001AE047F6F070074216D0C7F30A121746F9
:100F00002846316904F0B7FB306938443061306AF3
:100F1000384408E008222846009904F0ACFB306A07
:100F2000C7F30A11084430622068816941F010015A
:100F30008161206804F09BFB00034FF0080B4FF029
:100F4000000A4FF001097CD50026206804F06EFBF2
:100F5000074674E0F80770D0F1B2206804F07FFB18
:100F60008046C00707D005EB4611C1F8089B314603
:100F7000204601F091FC5FEA087024D505EB46118C
:100F8000C1F808BB2068016C00E025E200EB4610C8
:100F90000191D0F8082BFC4B994205D9110403D5D7
:100FA0004FF40041C0F8081B204600F002FBF64950
:100FB0000198884207D92069012804D120680121BD
:100FC000009A04F011F95FEAC86004D505EB4611F8
:100FD0001020C1F8080B5FEA88701DD5686900060B
:100FE00005D5D5F8040840F48061C5F8041806EB6F
:100FF000C60004EB800090F87F1200F51F700129F5
:1010000005D180F803A0F1B2204600F0EBF905EB22
:1010100046110220C1F8080B5FEA886004D505EB91
:1010200046102021C0F8081B5FEA884005D505EB73
:1010300046104FF40051C0F8081B7F08761C002FA3
:1010400088D1206804F013FB40036FD5206804F0BA
:10105000E6FA0746002667E0F80763D0F1B2206899
:1010600004F0EBFA8046C00723D006F00F0209FA1D
:1010700002F0D5F834288243C5F8342805EB461031
:10108000C0F80899206901280FD106EBC60004EBCF
:101090008000D0E912211144C16436B9606D20B9D5
:1010A00020680121009A04F09FF8F1B22046FFF772
:1010B0009AFD5FEA087003D505EB4611C1F808B93F
:1010C0005FEAC86004D505EB46111020C1F8080995
:1010D0005FEA486004D505EB46104021C0F80819C6
:1010E0005FEA887017D53146284604F067FA06EBA8
:1010F000C60004EB800090F83F103C30012905D178
:1011000080F803A0F1B2204600F068F905EB461123
:101110000220C1F808095FEA086003D5314620467D
:1011200001F020FC7F08761C002F95D1206804F088
:101130009EFA002811DAD5F8040820F00101C5F85C
:10114000041894F8F40401282BD0204600F015FA76
:101150002068416901F000414161206804F087FA8C
:1011600000050BD5D5F80808C00702D0204600F0CE
:1011700049FA2068416901F400614161206804F086
:1011800076FAC00466D5D5F8040820F00100C5F849
:1011900004081021206804F011FA00214FF67F3274
:1011A0001FE084F8F4A400212046FFF7F1FCCFE70C
:1011B00005EB4110C0F80829D0F8003923F40013DA
:1011C000C0F80039C0F8082BD0F8003B23F4001316
:1011D000C0F8003BD0F8003B43F00063C0F8003B90
:1011E000491C60688842E3D8D5F81C0840F001111A
:1011F000C5F81C18206B002828460DD0D0F88408AC
:1012000040F00B01C5F88418D5F8440840F00B01F4
:101210002846C5F844180DE0D0F8140842F22B0116
:101220000843C5F81408D5F8100840F00B0128460B
:10123000C5F81018D0F8000820F4FE61C5F80018B1
:10124000217C2068009A03F0CFFF2068416901F4F7
:1012500080514161206804F00AFA800415D52068A5
:1012600003F08AFD206804F0C9F9E06000F07CFA20
:101270000146227B206804F05DFA204600F06AF9FE
:101280002068416901F400514161206804F0EFF9E0
:10129000000707D5204600F074F92068416901F085
:1012A00008014161206804F0E2F9000616D5A8693A
:1012B00020F08000A86101260DE000BF06EBC6000B
:1012C00004EB800090F87F02012803D1F1B22046A0
:1012D000FFF7A0FC761C6068B042EFD8206804F0ED
:1012E000C6F9C00221D501264F4616E005EB46108F
:1012F000D0F8001906EBC60004EB800090F84020FF
:10130000012A09D1002907DA80F83F70F0B240F0D5
:1013100080012046FFF77EFC761C6068B042E5D86D
:101320002068416901F480114161206804F09FF94F
:10133000800234D501204B4629E000BF05EB401167
:10134000D1F8001B00EBC00204EB820696F8802265
:10135000012A1BD1002919DA94F8FC2401F4803108
:1013600002F00102914211D186F87F32A96941F061
:101370008002AA616969090608D4D5F8040840F416
:101380000070C5F8040805E00A30544F401C61683D
:101390008142D3D82068416901F40011416120687D
:1013A00004F065F9400007D52046FFF718FC2068D7
:1013B000416901F080414161206804F058F940071B
:1013C0000AD520684568680702D52046FFF71EFC4D
:1013D0002068416829434160BDE8FC9FD0F80805BA
:1013E00003F02CB8D0F8080503F03CB82DE9F04123
:1013F0008AB0040005D094F8BD042668002520B109
:1014000008E001200AB0BDE8F08184F8BC54204611
:1014100000F05EF8032084F8BD04F06BC00500D432
:101420002561206803F04CFE04F110012822884653
:101430006846FFF788F894E80F0003F0ABFC02263B
:10144000C8BB0021206804F035F9002001270EE018
:1014500000EBC00104EB810181F83D7001F83C0F05
:1014600008810D71CD600D61401CC0B28D61616855
:101470008142EDD8002011E000EBC00104EB8101B6
:1014800081F87D5281F87C0281F88052C1F888523F
:10149000C1F88C52401CC0B2C1F8945261688142BC
:1014A000EAD8282241466846FFF74DF894E80F0035
:1014B00003F04CFD10B184F8BD64A2E784F8385005
:1014C00084F8BD74206803F033FD00209AE7000023
:1014D00010B586B0044614216846FFF766F8206808
:1014E000B0F1A04F2FD119480021026842F001024B
:1014F0000260006800F0010005904FF4C0500090B9
:101500000220CDE90101032003900A2004906946DE
:101510000F48FFF7A7F90D48001D016841F0800151
:1015200001600A481430016841F48041016000689C
:10153000002200F48040059011464320FFF7F6FAA0
:101540004320FFF7E5FA06B010BD00003038024036
:101550000000024070B50446C0680125022801D091
:10156000FFF748F92946D4F8080502F0E9FFD4F856
:101570000805BDE8704002F09EBFD0F8080502F0F3
:10158000C8BFD0F8080502F0CEBF10B5044690F8E9
:10159000BC0401280BD0012084F8BC0484F8381066
:1015A000206804F0B5F8002084F8BC0410BD0220C7
:1015B00010BDD0F8082500F2C441104602F0CCBF9F
:1015C00010B50446006894F8BC14012906D0012126
:1015D00084F8BC14A16A012902D008E0022010BDE1
:1015E000A169012903D0816B41F4803181632068B6
:1015F00003F0BFFF206803F08DFC002084F8BC04DA
:1016000010BD000010B50446D0F8080502F0E6FF52
:101610002068D0F8001E41F00101C0F8001E206AC9
:10162000002804D00248016841F00601016010BDA5
:1016300010ED00E02DE9F0470E46050065D0DFF81B
:101640001481D8F80000F7B200F00700B04207D2CA
:1016500088F80070D8F8000000F00700B04254D1BC
:1016600028683D4C810712D5400703D5206840F417
:10167000E05020602878000703D5206840F46040DF
:1016800020602068A96820F0F000084320602878D6
:10169000C0072DD0304968680839012812D00228C7
:1016A00013D0032811D00968890700292DDA216891
:1016B00021F0030101432160FFF7CAF9814641F29D
:1016C000883A0EE009688903EFE709688901ECE7C9
:1016D000FFF7BEF9A0EB0901514502D90320BDE88F
:1016E000F0872068696800F00C00B0EB810FEFD143
:1016F000D8F80010404601F00701B14207D9077041
:10170000006800F00700B04201D00120E7E7287828
:10171000400705D52068E96820F4E05008432060C0
:101720002878000706D52068296920F4604040EA3F
:10173000C100206000F03EF82168084AC1F303119F
:10174000515CC8400649086006480068FFF7A8F9E0
:101750000020C4E7003C0240083802408A700008BC
:10176000240000201C000020014800687047000091
:10177000240000200448054900680968044AC1F3B0
:101780008221515CC8407047240000200838024084
:101790009A7000080448054900680968044AC1F3C2
:1017A0004231515CC8407047240000200838024094
:1017B0009A700008154810B5006810F00C02144823
:1017C00013D04110042A0FD0082A0ED10F4C241F29
:1017D0002268236802F03F025B0207D52068C0F34D
:1017E0008810A0FB010106E0084610BD2168C1F386
:1017F0008811A1FB00010023FEF762FD2168C1F3FF
:101800000141491C4900B0FBF1F010BD083802400D
:101810000024F4002DE9F84F04006ED02078DFF8A2
:101820004C93C007A9F104054AD009F104000168EE
:10183000C1F38101012908D00068C0F381000228AA
:101840000AD1D9F80000400206D52868800337D5B0
:1018500060680028E1D033E06068B0F5803F10D0C8
:10186000B0F5A02F286810D020F4803028602868B8
:1018700020F4802028606068A8B1FFF7E9F80646E8
:101880000DE0286840F48030F4E740F480202860C0
:10189000F7E700BFFFF7DCF8801B642873D82868DF
:1018A0008003F7D50CE0FFF7D3F8064605E000BF4C
:1018B000FFF7CEF8801B6428F0D828688003F7D49F
:1018C0002078DFF8AC8280074FF0000A3ED5A748A9
:1018D000001D016811F00C0F08D00068C0F38100F2
:1018E00002280BD1D9F80000400207D428688007ED
:1018F00016D5E068012800D112E033E1E068B8B104
:101900000120C8F80000FFF7A3F8064605E000BF75
:10191000FFF79EF8801B0228C0D828688007F7D5FB
:101920002868216920F0F80040EAC10028600DE035
:10193000C8F800A0FFF78CF8064604E0FFF788F827
:10194000801B02281FD828688007F7D4207800075A
:1019500022D5864F87486169703771B101210160D6
:10196000FFF776F8064604E0FFF772F8801B0228BE
:1019700009D838688007F7D50EE0C0F800A0FFF757
:1019800067F8064605E082E0FFF762F8801B022850
:101990007DD838688007F7D42078400768D5DFF80D
:1019A000CCB100270BF13C0BDBF80000C0000BD4DE
:1019B000DBF8001041F08051CBF80010DBF800009C
:1019C000012700F0805000906B4E3068C00510D4A5
:1019D000306840F480703060FFF73AF8009005E01E
:1019E000FFF736F80099401A022850D83068C00531
:1019F000F6D55E4EA0686C3601280FD005283068F9
:101A000010D020F001003060306820F00400306019
:101A1000A068B8B1FFF71CF800900FE0306840F004
:101A20000100F4E740F004003060F7E7FFF710F83A
:101A30000099411A41F28830814266D830688007A7
:101A4000F4D50EE0FFF704F8009007E0FFF700F888
:101A50000099411A41F28830814256D83068800797
:101A6000F4D42FB1DBF8001021F08051CBF8001036
:101A7000A069C8B33D49091D0968C1F38101022964
:101A80004AD00228504607D0C8F8600000E03CE089
:101A9000FEF7DEFF04463BE04746C8F86000FEF76D
:101AA000D7FF064605E000BFFEF7D2FF801B0228E5
:101AB0002BD828688001F7D4D4E907010843A16A2C
:101AC0002E4A490802EB0141626A41EA8211084349
:101AD00094F82C1040EA0161C9F800100120386622
:101AE000FEF7B6FF044606E03EE000BFFEF7B0FF9B
:101AF000001B022809D828688001F7D534E000BF10
:101B0000FEF7A6FF001B022802D90320BDE8F88FCC
:101B100028688001F4D427E00128F7D0D9F8000024
:101B2000E26900F4800191421CD1226A00F03F0179
:101B3000914217D147F6C071626A0140B1EB821F32
:101B400010D1A26A4FF0FF3300F4403103EB520290
:101B5000B1EB024F06D194F82C1000F07060B0EB9E
:101B6000016F01D00120D1E70020CFE70438024007
:101B700000004742800E4742007000400000FFFF17
:101B8000F0B5426E920F0A70426EC2F383624A70E1
:101B9000426EC2F301628A70426E120CCA70B0F8D3
:101BA0006420120A0A7190F864204A71826E120D44
:101BB000CA80826EC2F303420A72B0F86820C2F390
:101BC000C0324A72B0F86820C2F380328A72B0F82C
:101BD0006820C2F34032CA72B0F86820C2F3003203
:101BE0000A7300264E73426C4FF40075012462B1F3
:101BF000012A3AD0026847499163816B41F08051D4
:101C0000816380F834400120F0BDB0F86820C36ED5
:101C10009205120D42EA93720A61C26EC2F3C26269
:101C20000A75C26EC2F302624A75C26EC2F34252B4
:101C30008A75C26EC2F38242CA75C26EC2F3C232E4
:101C40000A760A69521C42650B7E03F007039B1C4F
:101C50009A4042650B7A03F00F0704FA07F3836595
:101C60005B0A5A43C0E917250EE090F86820C36E5E
:101C70009206920A42EA13420A610A69521C9202CF
:101C80004265C0E91652056630F86C2FC2F3803207
:101C900001F8192F0288C2F3C6124A70027802F0C6
:101CA0007F028A704268D20FCA704268C2F34172E2
:101CB0000A714268C2F382624A714268C2F3835277
:101CC0008A714268C2F34052CA710E724268C2F30E
:101CD00000424A728288C2F3C0328A728288C2F39A
:101CE0008032CA728288C2F340320A738288C2F399
:101CF00000324A738288C2F381228A738288C2F3D7
:101D00000122CA730079C0F3460008744C740020A5
:101D1000F0BD0000FF054000426C0A60826C4A6022
:101D2000C26C8A60026DCA60426D0A61826D4A614E
:101D3000C26D8A61006EC8610020704770B50446AC
:101D4000B0F8500000250104206801F074FC18B1BF
:101D5000A16B0143A16304E00021206801F036FB80
:101D60000546C5F3432070BD70B504000ED094F84D
:101D70003400002518B92577204600F04FF80320DD
:101D800084F83400204600F00BF808B1012070BD43
:101D9000A5632563012084F83400002070BD000095
:101DA000FEB50025044676200095CDE90150294670
:101DB0000B460A46206801F00CFB48BB154E46F85E
:101DC000A05F206801F017FB012535600220FEF7B7
:101DD00037FD204601F07EFE30B100BF84F834505C
:101DE000A16B0143A16313E0204601F0FBFD002835
:101DF000F4D14FF40071206801F04CFB002808D0AA
:101E0000226805499163A16B0143A16384F83450B2
:101E10000120FEBD00802542FF0540002DE9F04174
:101E200086B0044614216846FEF7BFFB25492068AA
:101E3000884243D124484FF00008016841F4006112
:101E40000160006800F4006005901F4814380168C4
:101E500041F001010160016801F001010591016893
:101E600041F002010160016801F002010591016881
:101E700041F0040101600068022400F004000590B4
:101E8000402001278DE8910003250C26CDE903565B
:101E900069460E48FEF7E6FCA0038DE81101CDE986
:101EA000035669460A48FEF7DDFCE0018DE8910023
:101EB000CDE9035669460748FEF7D4FC06B0BDE8F5
:101EC000F0810000002C0140443802400000024034
:101ED00000040240000802402DE9F04F87B09B4605
:101EE00016460D460446FEF7B3FD00903DB194F84A
:101EF0003400012807D0A06B40F000500DE0A06B2B
:101F000040F0006009E00020A063E26D06EB0B01E9
:101F1000914204D9A06B40F00070A06386E00321D9
:101F200084F834102168C862616C012900D07602FF
:101F30004FF0FF3101914FEA4B2102914FF0010820
:101F400003AA902102278146CDF8188082E88202F8
:101F500001A9206801F024FABBF1010F05D927631C
:101F60003146206801F0F0FA05E0C4F830803146CF
:101F7000206801F002FBDFF834A130B12268C2F81A
:101F800038A0A16B0143A1634CE0029E1EE0406BB0
:101F9000000413D596B10027206801F030FA05F847
:101FA000010B010A05F8011B010C05F8021B000ECC
:101FB000361F7F1C05F8010C082FEDD3FEF748FDF6
:101FC0000099411A109881421DD2E0B12068426BFD
:101FD00040F22A310A42DAD0416BC90509D5BBF17A
:101FE000010F06D9616C032903D001F055FB0028CD
:101FF000C4D12068416B09071AD5C0F838A0A06B7E
:1020000040F0080050E02168C1F838A0A06B40F013
:102010000040A06384F83480C4F83090032007B0F7
:10202000BDE8F08F84F83480C4F830900120F6E7E2
:10203000416B890705D5C0F838A0A06B40F00200BD
:1020400032E0416B89061BD5C0F838A0A06B40F088
:10205000200029E001F0D3F905F8010B010A05F889
:10206000011B010C05F8021B000E05F8010C361FC0
:10207000FEF7EEFC0099411A109881420ED268B129
:102080002068416B890201D5002EE3D1216840F21E
:102090003A50886384F834800020C0E72168C1F892
:1020A00038A0A06B40F00040A063BBE7FF054000F4
:1020B0002DE9F04F8DB09B4616460D460446FEF7BF
:1020C000C7FC0A903DB194F83400012807D0A06BFA
:1020D00040F000500DE0A06B40F0006009E00020EF
:1020E000A063E26D06EB0B01914204D9A06B40F0B6
:1020F0000070A0637AE0032184F834102168C8627C
:10210000616C012900D076024FF0FF3103914FEA54
:102110004B2104919021CDE905104FF00109CDE943
:102120000709824603A9206801F03AF9BBF1010FC3
:1021300006D9202020633146206801F0C7FA05E067
:10214000102020633146206801F0D9FA5FEA0008C8
:1021500006D0216840488863A06B40EA080071E01F
:10216000049E27E0406B40041CD5DEB15FF0000701
:1021700015F8010B009015F8011B361F40EA0120ED
:10218000009015F8021B40EA0140009015F8011C70
:1021900040EA016000906946206801F043F97F1C25
:1021A000082FE5D3FEF754FC0A99411A169881428C
:1021B00020D2F8B12068416B40F21A321142D1D0DE
:1021C000416BC90523D5BBF1010F20D9616C0329EF
:1021D0001DD001F061FAD0B122681F499163A16B53
:1021E0000143A16384F83490C4F830A001200DB0FD
:1021F000BDE8F08F216818488863A06B40EA0800AA
:10220000A06384F83490C4F830A00320EFE720687E
:10221000416B090705D510498163A06B40F00800A8
:1022200010E0416B890705D50B498163A06B40F035
:10223000020007E0416BC90606D507498163A06B20
:1022400040F01000A063CDE740F23A51816384F87A
:1022500034900020CBE70000FF05400010B5401E81
:10226000B0F1807F01D3012010BD4FF0E024606108
:102270000F21601703F0E7FA0020A061072020611A
:10228000002010BD70B5040004D094F83D00002576
:1022900010B106E0012070BD84F83C50204600F0EB
:1022A00023F8242084F83D002068C16821F40051FF
:1022B000C160204601F056FD2068016921F490417B
:1022C00001612068416921F02A0141612068C168EB
:1022D00041F40051C1602564202084F83D0084F859
:1022E0003E00002070BD000010B586B004461421E9
:1022F0006846FEF75AF913492068884220D11248EF
:102300000021026842F400320260006800F40030EC
:1023100005900D481038026842F001020260006822
:1023200000F0010005900C2000900220CDE9010191
:10233000032003900720049069460448FEF792FAB0
:1023400006B010BD0044004040380240000002408A
:102350002DE9F843044690F83D001F4616460D4609
:1023600020284CD1C5B1BEB194F83C00012846D01C
:10237000012084F83C004FF00008C4F84080212080
:1023800084F83D00FEF764FBA6848146E684A068DD
:10239000B0F5805F03D004E00120BDE8F883206938
:1023A00028B12E465FF0000584F83C800EE0002640
:1023B000FAE78021204601F05BFDA0B9AEB116F826
:1023C000010B21684860E08C401EE084E08C4B46A5
:1023D0004FF0000200970028EBD14FF0400120465B
:1023E00001F046FD30B10320D7E735F8020BC0F30A
:1023F0000800E6E7202084F83D000020CDE7022019
:10240000CBE7FEE7F0B500230A24302537261F4628
:1024100011E000BFB4EB107F02D905EB107C01E0A6
:1024200006EB107C01F813C001EB430C00015B1CB0
:102430008CF80170DBB29342ECD3F0BD2DE9F04192
:102440000546D0F8D40205EB8000D0F8C042002C3D
:102450001ED094F81C020F4E40B9D4F8180228B1CF
:10246000607A18B93178284602F0A6F80A4F284653
:10247000397802F0A1F8607A022809D13978284623
:1024800002F09AF831782846BDE8F04102F094B89D
:10249000BDE8F081E5000020E400002070B50546AD
:1024A000D0F8D40205EB8000D0F8C042002C65D0F3
:1024B000D4F81402C4F83402D4F81802C4F838026C
:1024C0002F480178284601F075FF1F280DD12D49AE
:1024D000D4F81002884208D194F81D12012904D8BA
:1024E00094F81E0208B1102809D994F81D1220236F
:1024F0000522284600F004FE0220607209E004F282
:102500001F22284600F0D6FA0028207A08DA05288B
:1025100004D02846BDE87040FFF790BF012128E0B5
:1025200002282BD0012829D0032827D0E668FEB145
:10253000D5F8D412284605EB810104F11002D1F838
:10254000C01200291AD0D1F81832B34200D3334652
:10255000D1F83842A41BC1F83842002481F83C422B
:1025600004240C7208490978BDE8704002F03FB8B5
:1025700000212846BDE8704000F0DCB870BD0000C6
:10258000E500002055534243E400002010B5044606
:10259000D0F8D40204EB8000D0F8C002002818D094
:1025A000407A022809D0090613D5012811D0204607
:1025B000BDE81040012100F0BDB806480178204672
:1025C00001F0FAFF044801782046BDE8104001F010
:1025D000F3BF10BDE4000020E500002010B5044664
:1025E000D0F8D40204EB8000D0F8C022002A17D023
:1025F000107A022805D0032801D0042810D1002128
:1026000009E092F81D12204602F21F2200F052FA51
:10261000002805DA01212046BDE8104000F08AB804
:1026200010BD10B50446D0F8D40204EB8000D0F8F9
:10263000C022002A17D0107A80B1012813D192F855
:102640001D12204602F21F2200F034FA00280ADA96
:102650002046BDE81040012100F06CB82046BDE8DE
:102660001040FFF71BBF10BDD0F8D41200EB810063
:10267000D0F8C002002801D000210172704700008C
:1026800070B50546D0F8D40205EB8000D0F8C04202
:10269000002C24D000202072607284F8610284F83B
:1026A000600284F86202D5F8D40205EB8000D0F80D
:1026B000C402016800208847094E2846317801F09D
:1026C00070FE08480178284601F06BFE04F504729C
:1026D00031782846BDE870401F2301F0E3BE70BD8D
:1026E000E5000020E400002070B50546D0F8D402D3
:1026F00005EB8000D0F8C042002C16D000202072DC
:102700000120607209480178284601F085FD084ED5
:102710002846317801F080FD04F5047231782846AE
:10272000BDE870401F2301F0BDBE70BDE400002075
:10273000E500002070B50546D0F8D40205EB800016
:10274000D0F8C042002C18D00C48C4F8300284F8ED
:102750003C12002020720A480D2304F50C72017807
:10276000284601F044FF074804F504721F2301784E
:102770002846BDE8704001F095BE70BD55534253E8
:10278000E4000020E500002010B504490448FEF7ED
:1027900033F80249491E087010BD00002A000020CD
:1027A000A470000870B586B014216846FDF7FDFEE0
:1027B0001E480024016841F080010160016801F0B9
:1027C00080010591016841F001010160016801F09B
:1027D00001010591016841F002010160016801F009
:1027E00002010591016841F008010160016801F0F2
:1027F00008010591016841F00401016000680C4E78
:1028000000F004004FF48055059000222946304620
:10281000FEF718F901200095CDE90104694630461C
:102820000394FEF71FF806B070BD00003038024078
:10283000000C024010B500220F49104801F0D9FCED
:1028400008B1FDF7D7FF0E490C4802F04CF808B16B
:10285000FDF7D0FF0B49094801F0B6FF08B1FDF7BD
:10286000C9FF064802F0C2F8002803D0BDE81040B6
:10287000FDF7C0BF10BD0000380000202C23002051
:10288000AC00002088000020FEE7FEE70148FEF7CC
:10289000F5BA0000A02A00202DE9F04103680D469A
:1028A00004461E6C03EB4511D1F8080BD4F810E078
:1028B0004FF400474FF0200C04F2C442BEF1010F68
:1028C00009D0DFF898E0764539D1020432D500BF4F
:1028D000C1F8087B3FE0224B5FEA007E04D59E42B0
:1028E00039D90004F4D436E05FEA806E02D5C1F82D
:1028F00008CB30E010F0280F2DD19E4201D9000402
:10290000E6D405EBC50004EB8000D1F8101BD0F82D
:102910009832C1F31201591AC0F89C1200F51F70C9
:10292000ADB983691BB10269114401610FE0012156
:1029300020680AE080060AD5C1F808CB07E035B95F
:10294000D4F8940218B90021184602F04DFCE9B2FF
:102950002046FEF751F90020BDE8F0810A31544FBE
:102960000A30544F2DE9F84F0E4601EBC60100EB3B
:10297000810481460568616DE06D3C34884202D96E
:102980000120BDE8F88F081AE168814200D20846AC
:10299000C01C870805EB46181BE000BFA0EB010A2E
:1029A000E068504500D282460AF10300870899F892
:1029B000100000901FFA8AF3F2B22846216902F053
:1029C0002DFF216901EB0A002061216A01EB0A0059
:1029D0002062D8F8180980B2B84205D3216AA069EC
:1029E000814201D20028D9D1216AA069884208D841
:1029F00006F00F0101208840D5F834188143C5F84E
:102A000034180020BDE7704730B5D0F8D4424FF0FD
:102A1000FF3500EB8404D4F8C04244B11A44D4F822
:102A200068329A4205D92123052200F069FB284625
:102A300030BD002030BD000070B50446D0F8D4028F
:102A4000134604EB80024FF0FF35D2F8C00280B18C
:102A5000D0F818627EB15E78F60716D0997871B119
:102A600080290FD090F81D1224230522204600F063
:102A700047FB284670BD90F81D122023F5E706227B
:102A80000A490FE008220A490CE0D2F8C42201EBFF
:102A9000C1011B79D26902EB81010A79521D93426F
:102AA00000D81A4600F082FB002070BD1201002001
:102AB000180100202DE9F041D0F8D4324FF0FF3654
:102AC00000EB8303D3F8C05255B3137802270024D8
:102AD000252B70D00FDC1A2B53D005DC0BB3032B46
:102AE00023D0122B17D124E01B2B26D01E2B3FD036
:102AF000232B10D15BE05A2B4ED006DC282B62D062
:102B00002A2B68D02F2B06D16DE09E2B57D0A82BF7
:102B10005DD0AA2B63D02023052200F0F1FA6F725A
:102B200020E0BDE8F04100F011BBBDE8F04100F04D
:102B3000A3BABDE8F041FFF77FBF95F86232012BE1
:102B400004D1137903F00303022B4FD0117901F064
:102B50000300012812D0022807D0C84380070DD0F7
:102B6000EC6017E03046BDE8F08185F86272F7E767
:102B7000107918B1012085F86202F1E785F8624208
:102B8000EEE7117917232846172900D80B461A4675
:102B90001D4909E02046E6E7117A1B2328461B2938
:102BA00000D80B461A46194900F000FBF2E7BDE8D1
:102BB000F04100F01EBABDE8F04100F08AB9BDE86E
:102BC000F04100F0C1B9BDE8F04100F0CFB8BDE878
:102BD000F04100F022B9BDE8F04100F0F7BABDE8DD
:102BE000F04100F065BB5278920704D524230522FA
:102BF00000F086FAB6E7D5E99B23FFF705FF00282A
:102C0000B0DB2046EC60AEE7200100203701002059
:102C10002DE9F0470646D0F8D402884606EB80003E
:102C20004FF0FF37D0F8C042FCB1B4F86412D4F8CA
:102C300070524FF400724D43954200D31546B5FBD8
:102C4000F1F1D0F8C4028BB204F11001D0F810C039
:102C5000D4F86C2289464046E047002808DA112360
:102C600004224146304600F04BFA3846BDE8F08772
:102C700010482B464A460178304601F0B8FCB4F8BB
:102C80006402D4F86C22B5FBF0F1B5FBF0F011440E
:102C9000C4F86C12D4F87012081AC4F87002D4F890
:102CA0003812A1EB0501C4F8381201D103202072BB
:102CB0000020DBE7E40000202DE9F0470746D0F8CC
:102CC000D402894607EB80004FF0FF38D0F8C042AD
:102CD000FCB1B4F86412D4F870624FF400754E433E
:102CE000AE4200D32E46B6FBF1F1D0F8C4028BB24F
:102CF00004F11001D0F814C0D4F86C228A4648467A
:102D0000E047002808DA032304224946384600F049
:102D1000F7F94046BDE8F087B4F86402D4F86C22B5
:102D2000B6FBF0F11144C4F86C12B6FBF0F1D4F824
:102D30007022531AC4F87032D4F83812A1EB06018D
:102D4000C4F838120BD04343AB4200D32B4606489D
:102D500052460178384601F0A5FB0020DAE7002151
:102D60003846FFF7E7FCF8E7E50000202DE9F041E1
:102D70000646D0F8D402154606EB80008846D0F807
:102D8000C0424FF0FF375CB3217AD1BB94F81C12DC
:102D9000090631D594F86212022905D0D0F8C40290
:102DA00081684046884730B13A2302224146304686
:102DB00000F0A6F914E06888297940BA000440EAD6
:102DC0000122687941460243C4F86C22B5F8070035
:102DD00043BA3046C4F87032FFF716FE002802DA14
:102DE0003846BDE8F081B4F86412D4F87002484364
:102DF000D4F81812884205D0202394F81D12052219
:102E0000D5E701E0022020724FF40070E0604146F7
:102E10003046BDE8F041FFF7FBBE2DE9F041064624
:102E2000D0F8D402154606EB80008846D0F8C042A0
:102E30004FF0FF3784B3217A89BB94F81C1209063E
:102E400037D594F86212022905D0D0F8C4028168FF
:102E50004046884730B13A2302224146304600F0CE
:102E60004FF919E06888297940BA000440EA012244
:102E700068790243C4F86C22E888297A40BA0004D1
:102E800040EA0123687A414603433046C4F8703271
:102E9000FFF7BAFD002803DA3846BDE8F0810FE0FD
:102EA000B4F86412D4F870024843D4F81812884277
:102EB00004D0202394F81D120522CFE702202072AF
:102EC0004FF40070E06041463046BDE8F041FFF746
:102ED0009FBE2DE9F0410546D0F8D4020F4605EB20
:102EE00080004FF0FF36D0F8C0424CB1D0F8C40299
:102EF00004F51972111D436838469847E8B902E095
:102F00003046BDE8F08194F86202022815D0D4F86A
:102F10006802401E010E2174010C6174010AA17443
:102F2000E074002020756075B4F86402010AA17590
:102F3000E0750820E0600020E3E73A2302223946EA
:102F4000284600F0DDF8DBE72DE9F0410646D0F831
:102F5000D402154606EB80008846D0F8C0424FF0F8
:102F6000FF374CB1D0F8C40204F51972111D436843
:102F70004046984798B902E03846BDE8F08194F899
:102F8000620202280BD06889297B40BA000440EA1B
:102F90000120697B0843E060002001460AE03A23F3
:102FA00002224146304600F0ABF8E5E72218401C0B
:102FB0001174C0B2E2688242F8D8D4F86802401EA8
:102FC000020E2275020C6275020AA275E075217666
:102FD0006176B4F86402010AA176E0766889297BFB
:102FE00040BA000440EA0120697B0843E060002009
:102FF000C3E72DE9FC410546D0F8D4020F4605EBA6
:1030000080004FF0FF36D0F8C04244B1D0F8C4027F
:103010006A4601A943683846984730BB02E030460B
:10302000BDE8FC8194F8620202281ED0002001460F
:103030002218401C80B211740C28F9D30820E074C7
:103040000198401E020E2275020C6275020AA275DA
:10305000E075022020766176BDF80000010AA176B5
:10306000E0760C20E0600020DAE73A2302223946BD
:10307000284600F045F8D2E730B5D0F8D4124FF02A
:10308000FF3400EB8101D1F8C01231B3D1F818320E
:103090002BB3002004460B18401CC0B21C7412282D
:1030A000F9D3702008740C20C87591F8600291F86B
:1030B000613298421CD001EBC003401C93F840528F
:1030C0008D7493F844520D7793F84532C0B24B7724
:1030D00081F86002042809D00AE0204630BD91F84A
:1030E0001D122023052200F00BF8F6E781F860425C
:1030F0001220C8601079122800D8C860002030BDA6
:10310000D0F8D41200EB8100D0F8C00200281CD007
:1031100090F8611200EBC10181F8402290F8611231
:1031200000EBC10181F8443290F86122002100EBEC
:10313000C20282F8451290F86122521CD2B280F885
:103140006122042A01D180F8611270472DE9F04113
:103150000546D0F8D402884605EB80004FF0FF37D3
:10316000D0F8C042E4B1D4F8181239B194F81D1265
:10317000202305222846FFF7C3FF11E094F86212CE
:103180000526022905D0D0F8C40281684046884748
:1031900048B13A23022241462846FFF7B1FF267282
:1031A0003846BDE8F0810020E060FAE710B508B1CC
:1031B000C26007E04FF0FF3010BD521E92B284187B
:1031C0008B5C2374002AF8D1002010BD2DE9F0415A
:1031D0000546D0F8D402164605EB80008846D0F8A4
:1031E000C0424FF0FF37ECB3217A29B1414628465F
:1031F000BDE8F041FFF760BDD4F8181299B394F818
:103200001C1209063DD4D0F8C402816840468847A4
:1032100028B13A230EE02846FFF772FF25E0D5F8E3
:10322000D40205EB8000D0F8C402C168404688474C
:1032300018B1272302224146EDE77088317940BA60
:10324000000440EA0122707941460243C4F86C222E
:10325000B6F8070043BA2846C4F87032FFF7D4FB2B
:10326000002801E001E00CE002DA3846BDE8F08118
:10327000B4F86402D4F870324343D4F81802984288
:1032800004D0202394F81D120522C4E74FF40070E7
:10329000834200D3034601202072044804F1100247
:1032A0000178284601F0FEF80020DFE7E500002065
:1032B0002DE9F0470646D0F8D402154606EB80000B
:1032C0008946D0F8C0424FF0FF3884B3217A29B143
:1032D00049463046BDE8F047FFF7EEBCD4F8181277
:1032E00019B194F81C12090607D594F81D12202371
:1032F00005223046FFF704FF34E0D0F8C4028168AD
:1033000048468847052708B13A230AE0D6F8D40290
:1033100006EB8000D0F8C402C1684846884738B13F
:103320002723022249463046FFF7EAFE277219E0BA
:103330006888297940BA000440EA0122687902438A
:10334000C4F86C22E888297A40BA000440EA0123D4
:10335000687A494603433046C4F87032FFF754FB9D
:10336000002802DA4046BDE8F087B4F86402D4F8D9
:1033700070324343D4F818029842B6D14FF400702B
:10338000834200D3034601202072044804F1100256
:103390000178304601F086F80020E4E7E5000020DF
:1033A0000A6842624A688262D1E902231A43D1E97B
:1033B00004310B43C16A1A4321F0F7011143C16282
:1033C00000207047006800F003007047084440691F
:1033D000704770B50DF1100C11439CE87000234349
:1033E000194329434268314347F6FF639A430A432E
:1033F0004260002070BD0321016000207047D0F8BA
:10340000800070470A688260D1E901231A43D1E93C
:1034100003310B43C1681A436FF30B011143C160C1
:10342000002070470968C0F880100020704710B570
:1034300085B004463720CDE90010402002900020DE
:1034400003904FF48060049069462046FFF7DAFF4E
:1034500041F288323721204600F06AF905B010BDEC
:1034600010B504460A4885B001432920CDE9001073
:1034700040200290002003904FF480600490694641
:103480002046FFF7BFFF204600F00AFA05B010BD46
:103490000000108010B585B004461020CDE9001062
:1034A00040200290002003904FF480600490694611
:1034B0002046FFF7A7FF41F288321021204600F096
:1034C00037F905B010BD000030B585B000240546C1
:1034D000009401944FF480600294CDE90340694662
:1034E0002846FFF78FFF0B484FF4FA510068B0FBF6
:1034F000F1F041F288314843401E03D24FF00040C2
:1035000005B030BD696B0906F6D5C520A863204615
:10351000F6E700002400002010B585B004464FF403
:10352000D570009008200190402002900020039068
:103530004FF48060049069462046FFF763FF204601
:1035400000F014FA05B010BD10B585B00446122085
:10355000CDE9001040200290002003904FF48060DD
:10356000049069462046FFF74DFF41F28832122150
:10357000204600F0DDF805B010BD10B585B004465A
:103580001120CDE9001040200290002003904FF45C
:103590008060049069462046FFF734FF41F288328C
:1035A0001121204600F0C4F805B010BD10B585B05B
:1035B00004460720CDE9002040200290002003901F
:1035C0004FF48060049069462046FFF71BFF41F2EC
:1035D00088320721204600F0ABF805B010BD10B5C9
:1035E00085B0044600210220CDE90010C020CDE9BD
:1035F00002014FF48060049069462046FFF702FF05
:10360000204600F025F905B010BD10B585B0044680
:103610000920CDE90010C0200290002003904FF453
:103620008060049069462046FFF7ECFE204600F0DB
:103630000FF905B010BD10B585B004460D20CDE9D9
:10364000001040200290002003904FF4806004900E
:1036500069462046FFF7D6FE41F288320D2120460A
:1036600000F066F805B010BD30B585B00C460546D3
:1036700000210320CDE900104020CDE90201000126
:10368000049069462846FFF7BDFE224603212846DE
:1036900000F028F905B030BD10B585B00446002112
:1036A0000C20CDE900104020CDE90201000104907A
:1036B00069462046FFF7A6FE034A0C21204600F08B
:1036C00037F805B010BD000000E1F50510B585B074
:1036D00004461920CDE900104020029000200390FC
:1036E0004FF48060049069462046FFF78BFE41F25C
:1036F00088321921204600F01BF805B010BD10B526
:1037000085B004461820CDE900104020029000202A
:1037100003904FF48060049069462046FFF772FEE4
:1037200041F288321821204600F002F805B010BDA1
:10373000454B10B51B684FF4FA54B3FBF4F35343F5
:103740005B1E02D24FF0004010BD426B12F0450FDD
:10375000F6D01205F4D4426B520703D504218163DD
:10376000084610BD426BD20702D00121816305E0FB
:10377000C52282630269D2B28A4201D0012010BD03
:103780000021FFF723FE3149084201D1002010BD7E
:10379000002802DA4FF0007010BD410001D5402032
:1037A00010BD810001D5802010BDC10002D54FF4AD
:1037B000807010BD010102D54FF4007010BD4101B1
:1037C00002D54FF4806010BDC10102D54FF40060F6
:1037D00010BD010202D54FF4805010BD410202D548
:1037E0004FF4005010BD810202D54FF4804010BD4F
:1037F000C10202D54FF4004010BD410302D54FF481
:10380000003010BD810302D54FF4802010BDC103EC
:1038100002D54FF4002010BD010402D54FF48010F2
:1038200010BD410402D54FF4001010BD810402D533
:103830004FF4800010BD000702D54FF4000010BD0A
:103840004FF4803010BD00002400002008E0FFFD90
:1038500012494FF4FA520968B1FBF2F141F2883291
:103860005143491E02D24FF000407047426B12F0A4
:10387000450FF6D01205F4D4416B490703D5042156
:10388000816308467047416BC90703D001218163FA
:1038900008467047C521816300207047240000203E
:1038A0000F494FF4FA520968B1FBF2F141F2883244
:1038B0005143491E02D24FF000407047426B12F054
:1038C000450FF6D01205F4D4416B490703D5042106
:1038D000816308467047C52181630020704700005E
:1038E0002400002030B5204B4FF4FA541B68B3FB82
:1038F000F4F341F2883463435B1E02D24FF0004080
:1039000030BD446B14F0450FF6D02405F4D4436B5E
:103910005B0703D504218163084630BD436BDB0799
:1039200002D00121816303E00369DBB28B4201D045
:10393000012030BDC52181630021FFF747FD10F450
:10394000604F04D0410406D54FF4005030BD000C48
:103950001080002030BD000402D54FF4805030BDEF
:103960004FF4803030BD00002400002014494FF493
:10397000FA520968B1FBF2F141F288325143491E13
:1039800002D24FF000407047426B12F0450FF6D064
:103990001205F4D4416B490703D50421816308461D
:1039A0007047416BC90703D0012181630846704706
:1039B000416B490601D5402181630020704700001A
:1039C0002400002010B5064C01202070FCF7CEFE2C
:1039D00018B9207820F001002070207810BD000078
:1039E0002800002010B590B004460120ADF8380042
:1039F0002068FFF7E7FC002854D0606C032842D011
:103A00002068FFF7ECFD00284AD100212068FFF76D
:103A1000DDFC606704212068FFF7D8FCA06708215F
:103A20002068FFF7D3FCE0670C212068FFF7CEFC8D
:103A3000C4F88000606C032825D00EA92068FFF729
:103A400013FE00282CD1606C03281CD0BDF8380070
:103A5000206501042068FFF7D8FD002820D100214F
:103A60002068FFF7B3FC606604212068FFF7AEFC16
:103A7000A06608212068FFF7A9FCE0660C212068F9
:103A8000FFF7A4FC206704212068FFF79FFC000DCE
:103A9000E06403A92046FEF773F830B14FF0805080
:103AA00010B010BD4FF08060FAE7B4F8500000236A
:103AB00002042068FFF77AFD0028F1D104F110001C
:103AC00007C88DE8070094E80F00FFF782FC00208C
:103AD000E6E700002DE9F84F00260446009635463B
:103AE000B0460068FFF7F0FC002827D12068FFF7F8
:103AF00013FD4FF0805B4FF001094FF6FF7748B19F
:103B0000A6642068FFF7E0FC002817D1A06C01280C
:103B100002D020E0C4F8489000212068FFF787FC1D
:103B200058B918E000212068FFF781FC002805D172
:103B300051462068FFF794FC10B15846BDE8F88F55
:103B400000212068FFF742FC05464FEAD078009834
:103B5000401C009002E0DFF82CA00098B84202D28E
:103B6000B8F1000FDED00098B84202D34FF0807059
:103B7000E4E7680002D5C4F8449000E066640020E1
:103B8000DCE70000000010C170B5064C05460120BE
:103B90002070FCF7F7FD18B92846FFF713FF2070D7
:103BA000207870BD2800002010B5124888B0144657
:103BB0000078C00702D0032008B010BDC1B10129B0
:103BC00005D0022908D003290CD00420F4E7684668
:103BD000FCF7C6FD06980AE06846FCF7C1FD0798A9
:103BE000208005E06846FCF7BBFD0798400A20608E
:103BF0000020E1E72800002070B51D461646084663
:103C00000124A31E2A463146FCF7D2FD28B900BF85
:103C1000FCF7ACFD0028FBD10024204670BDFFF767
:103C2000D1BE000070B51D46164608460124A31EED
:103C30002A463146FCF7CCFD28B900BFFCF796FDBB
:103C40000028FBD10024204670BD00000348036912
:103C50000B60808A10800020704700000828002038
:103C60000020704710B503490348FEF755F80020BF
:103C700010BD0000082800205401002000207047DB
:103C80000020704708B50A2000900248FEF724F98A
:103C9000002008BD5401002008B50A200090024809
:103CA000FEF706FA002008BD540100207047017895
:103CB000407841EA00207047FCF7D0BE10B592B0C2
:103CC00030216846FCF771FC14210CA8FCF76DFC50
:103CD0001E480024016841F080510160006800F036
:103CE000805011901A48016841F440410160006819
:103CF0004FF4803100F4404011900320CDE90001E1
:103D0000012103911021049102214A05CDE90612F7
:103D10000422CDE90A100892482209926846FDF76C
:103D200079FD08B172B6FEE70F20CDE90C044FF41F
:103D30008050CDE90E4000210CA81094FDF77AFCCC
:103D4000002801D072B6FEE712B010BD4038024024
:103D5000007000400248016841F470010160704742
:103D600088ED00E070B5044600680169E26821F45E
:103D70004051114301612169A068E269084361690A
:103D8000114308432168CA6849F20C639A4302430D
:103D9000CA6020684169A26921F440711143416100
:103DA00031492068884202D03049884202D1FDF76B
:103DB000F1FC01E0FDF7DEFCE26900231921642536
:103DC0003226B2F5004F626828D0A0FB0101930FA4
:103DD0009200FCF775FA0146B0FBF5F06FF018029F
:103DE000504301EB800006EB0010B0FBF5F000F053
:103DF000F002B1FBF5F002EB0012B1FBF5F06FF051
:103E00001803584301EB800006EB0010B0FBF5F0FF
:103E100000F00F0021681044886070BDA0FB010114
:103E200092185B41FCF74CFA0146B0FBF5F0020139
:103E3000B1FBF5F06FF01803584301EB800006EB7F
:103E4000C000B0FBF5F000F0F80002EB4002B1FB5F
:103E5000F5F0584301EB800006EBC000B0FBF5F035
:103E600000F00700D6E700000010014000140140F8
:103E70002DE9F041984617460E460446069D27E078
:103E8000681C25D02DB1FCF7E3FDA0EB0800A8428B
:103E90001ED920680C3050E8001F21F4D07140E892
:103EA0000012002AF5D12068143050E8001F21F0DC
:103EB000010140E80012002AF5D1202084F83D00DD
:103EC00084F83E00002084F83C000320BDE8F08127
:103ED0002068006836EA000004D00020B842CFD045
:103EE0000020F3E70120F9E710B5D0F8B82200244C
:103EF0005268904700B10324204610BD002070474F
:103F000000207047134610B50A46002100F0CAFA97
:103F1000002010BD134610B50A46002100F067FBD3
:103F2000002010BD10B50446802100F045FB20465E
:103F3000BDE81040002100F03FBB10B50521C0F8DE
:103F4000941200231A46194600F0ACFA002010BD66
:103F500010B50223C0F8943282611346C2610A464A
:103F6000002100F044FB002010BD10B50421C0F872
:103F7000941200231A46194600F039FB002010BDA8
:103F800010B50A46024903A000F003F9004810BD2D
:103F9000082600204D534320436F6E66696700007A
:103FA00012200880004870475800002010B50A46CB
:103FB000024903A000F0EDF8004810BD08260020DB
:103FC0004D534320496E746572666163650000005D
:103FD00004200880004870475400002010B50A46AD
:103FE000024903A000F0D5F8004810BD08260020C3
:103FF00053544D6963726F656C656374726F6E695B
:104000006373000010B50A46024903A000F0C1F82E
:10401000004810BD0826002053544D3332204D6116
:1040200073732053746F72616765000010B51A20B6
:1040300008800A480168001D0468001D006808180F
:1040400009D008220649FEF7DDF90549042210319E
:104050002046FEF7D7F90248801E10BD107AFF1FD8
:104060006E000020F8B504460020ADF80000488836
:104070000D46010A08295FD2DFE801F05E04091746
:104080005E5E3C45D4F8B412207C0A6819E0207CBE
:1040900002260028D4F8B80205D0C16A68468847CD
:1040A0000146467039E0816AF8E7C0B2062843D27B
:1040B000DFE800F0030A1014181CD4F8B4024268B8
:1040C00005E0694690471CE0D4F8B402826892B3D8
:1040D000207CF6E7D4F8B402C268F8E7D4F8B4025A
:1040E0000269F4E7D4F8B4024269F0E7D4F8B40204
:1040F0008269ECE7207CF0B9D4F8B802416B6846DD
:104100008847014609E0207CA8B9D4F8B802016BC1
:1041100068468847014607204870EA888AB1BDF89A
:10412000000040B1824200D90246ADF8002020468E
:10413000FFF70EFFF8BDFFE729462046FFF7F2FE26
:10414000F8E72046FFF711FFF4E778B50E464288FE
:104150000178002504468A4212D9ADF800100AE021
:10416000694600F00FF84178052904D181780546A9
:10417000B14205D000256188BDF800209142EFD8FA
:10418000284678BD0A8803781A440A8001780844D2
:10419000704770B5002300281ED00025044602E0B9
:1041A0006D1CEDB2641C2678002EF9D1022404EBBC
:1041B000450414801278CA545B1C0322CA5400249C
:1041C0005B1C06E0CA545B1CDAB28C54521CD3B29E
:1041D000401C0278002AF5D170BD01004FF00000AC
:1041E00004D0012901D0022901D003207047012009
:1041F000704778B10023C0F8B832C0F8C432C0F8B4
:10420000D03209B1C0F8B412012180F89C120270BA
:1042100000F0D4B80320704710B5D0F8C802FCF7FE
:104220002EFDBDE81040FFF7D8BF10B5D0F8C8028A
:10423000FCF7FFFCBDE81040FFF7CFBF2DE9F041D0
:1042400017460446002521B194F89C02032842D069
:104250004CE0D4F8941204F11400022935D1D0E9CD
:1042600002639E4206D9F21A826039462046FFF761
:1042700051FE0FE0B34214D14068984211D3D4F8F4
:10428000981288420DD2002211462046FFF742FEC6
:10429000C4F8985200231A461946204600F002F945
:1042A00013E094F89C02032808D1D4F8B802C1683E
:1042B00021B1C4F8D452C1682046884780212046E5
:1042C00000F07AF92046FFF738FE94F8A00268B1B2
:1042D00084F8A0520AE0D4F8B802426932B1C4F8B6
:1042E000D452426920469047002800D10020BDE802
:1042F000F08170B513460446002221B194F89C0267
:10430000032830D03AE0D4F8941204F5AA700329B7
:1043100034D1D0E902518D420AD96A1A8260084626
:10432000824200D3024619462046FFF7EBFD25E006
:1043300094F8AA0210F01F0003D0012802D002282E
:1043400000D0002294F89C02032808D1D4F8B802C7
:10435000016921B1C4F8D42201692046884720466A
:10436000FFF703FE0AE0D4F8B802836933B1C4F85A
:10437000D422826920469047002800D1002070BDD9
:104380000020704710B50024012180F89C12D0F85D
:10439000B82222B152680179904700B10324204627
:1043A00010BD10B5D0F8C802FCF797FCBDE810406E
:1043B000FFF713BFD0F8C802FCF7A9BC10B501780D
:1043C00039BB15490222C1F80805C0F8C8124FF0E0
:1043D000A0400860042048600020C1E90320C1E932
:1043E000062008624862C86208630846FCF7FEFFC0
:1043F00008B1FCF7FFF980210748FCF7CAFB40220F
:1044000000210548FCF7C9FB802201210248FCF786
:10441000C4FB002010BD0000A02A00200A0601F005
:104420007F01D0F8C80201EBC10100EB810002D589
:1044300090F83E00704790F87E02704710B5D0F8B3
:10444000D42200EB8202D2F8B82222B190F89C323A
:10445000032B02D004E0032010BD126A02B1904782
:10446000002010BD10B5D0F8D42200EB8202D2F8A3
:10447000B82222B190F89C32032B02D004E0032032
:1044800010BD526A02B19047002010BD10B51C4605
:104490001346D0F8C8022246FCF742FCBDE81040A3
:1044A000FFF79BBE10B5D0F8C802FCF769FCBDE869
:1044B0001040FFF792BE2DE9F04100260125044689
:1044C00080F89C52C4F894626660C4F8A46280F8D4
:1044D000A062D0F8B80230B1426822B10021204673
:1044E000904700B103260022402311462046FFF7E3
:1044F000CDFF4027A4F864513B460022802120468E
:10450000C4F86071FFF7C2FFA58430462762BDE89A
:10451000F08190F89C12042903D190F89D1280F844
:104520009C120020704710B590F89C12032905D109
:10453000D0F8B81211B1C96901B18847002010BD87
:1045400001740020704710B5D0F8C802FDF71DF8BF
:10455000BDE81040FFF741BE70B5044600F2AA2046
:10456000054600F0AAF90120C4F89402B4F8B0029C
:10457000C4F8980294F8AA0210F01F010AD0012989
:104580000ED0022912D000F080012046BDE8704014
:1045900000F012B829462046BDE8704000F028BA65
:1045A00029462046BDE8704000F068BB29462046F9
:1045B000BDE8704000F0B2BA10B5D0F8C802FCF700
:1045C00003FCBDE81040FFF708BE10B5D0F8C802E4
:1045D000FCF7F6FFBDE81040FFF7FFBD90F89C1216
:1045E00080F89D12042180F89C120020704710B5BD
:1045F000D0F8C802FCF722FCBDE81040FFF7EDBD83
:1046000010B5FDF7EBFF002010BD10B5FEF709F85F
:10461000002010BD70B51B4D04466978FFF705FEFC
:104620006878002600F00F0000EB800004EB8000AB
:10463000A0F8646129782046FFF7F7FD287800F09C
:104640000F0000EB800004EB80008684D4F8D402D5
:1046500004EB8000D0F8C00290B12046FEF704F8C9
:10466000D4F8D40204EB8000D0F8C00200F03FFB85
:10467000D4F8D40204EB8000C0F8C062C4F8BC6275
:10468000002070BDE40000200A210180004870472E
:104690000801002070B5054681210848FFF755FD47
:1046A000044601210548FFF750FD402104B1A180D7
:1046B00000B1818020202880004870BDE8000020E3
:1046C00070B5054681210948FFF73FFD04460121E9
:1046D0000648FFF73AFD4FF4007104B1A18000B124
:1046E000818020202880014870BD0000E800002063
:1046F00070B5054681210848FFF727FD04460121D2
:104700000548FFF722FD402104B1A18000B181805E
:1047100020202880004870BDE80000202DE9F041ED
:1047200004464FF41D7000F0E3FA70B3D4F8D412CD
:10473000244D04EB81010126C1F8C002C4F8BC027B
:10474000207C60B34023022269782046FFF79EFE5A
:104750006878402300F00F0000EB800004EB80003D
:10476000A0F86461022229782046FFF78FFE28789E
:1047700000F00F0000EB800004EB800086842046F0
:10478000FDF77EFF0020BDE8F081FFE7D4F8D412EA
:10479000002004EB8101C1F8C0020220F3E74FF4CE
:1047A00000773B46022269782046FFF76FFE687863
:1047B0003B4600F00F0000EB800004EB8000A0F807
:1047C0006461CFE7E400002039B1D0F8D42200EBD7
:1047D0008200C0F8C4120020704703207047F8B56B
:1047E0000646D0F8D4020C4606EB80010025D1F82D
:1047F000C072ADF8005037B1207810F0600223D0BD
:10480000202A40D101E00320F8BD6278FE2A02D0C0
:10481000FF2A38D10EE0628882BBE288012A32D1B9
:10482000000630D5D1F8C40280698047012239469C
:1048300038601FE0618809BBE188F9B9000622D41D
:104840003046FDF751FF23E0607830B1012824D0D5
:104850000A2809D00B2816D111E096F89C020328EB
:1048600011D10222694605E096F89C0203280AD17C
:104870000122391D3046FFF76BFB09E003E096F893
:104880009C02032806D021463046FFF74BFB032548
:104890002846F8BDA0787860FAE796F89C020328CD
:1048A000F6D160880028F3D121793046FFF779FDF1
:1048B00021793046FDF76AFEEAE770B5054611F842
:1048C000010B2870087868704C1C2046FFF7EFF940
:1048D0006880A41C2046FFF7EAF9A880A01CFFF717
:1048E000E6F9E88070BD38B504460020ADF8000058
:1048F000A1B1C4F8B812D4F8D40204EB8000D0F807
:10490000B802C16A19B168468847C4F8D002D4F821
:10491000D802401CC4F8D802002038BD032038BD9E
:1049200002460020D2F8B832002B02D01B68104695
:10493000184770472DE9F04188462B4E89780025AD
:1049400004463170012906D941462046FFF7EAFAAC
:104950000320BDE8F08194F89C02022702280CD0C5
:1049600003281DD041462046FFF7DCFA3178204667
:10497000FFF7BAFA03252846EBE789B320466160C2
:10498000FFF7CEFF050004D041462046FFF7CAFAE4
:104990001DE02046FFF7E9FA032084F89C02EAE7CD
:1049A000C1B1606888421BD0C1B22046FFF79CFAB3
:1049B000317820466160FFF7B3FF050010D0414613
:1049C0002046FFF7AFFA21792046FFF78DFA84F8E9
:1049D0009C72D0E784F89C7220466160FFF784FAED
:1049E0002046FFF7C2FAC6E7A8000020FFF7EDBD9A
:1049F0002DE9F0410A78002512F060020CD0202A3F
:104A000001D0402A7DD1D0F8D42200EB8202D2F826
:104A1000B8229268904731E04B78002201260A2B99
:104A20006FD2DFE803F041666E586E08056E2D29DF
:104A3000FFF718FB67E004468888D8B9C888C8B96A
:104A40004888802816D200F07F0794F89C0203283B
:104A500010D084F89E7239462046FFF774FD204638
:104A6000FFF783FA1FB1022084F89C024BE084F820
:104A70009C6248E0204644E0FFF75CFF054642E0C8
:104A8000CB88012B3DD190F89C32012B04D0022B16
:104A900002D0032B35D104E08260012200F108012D
:104AA00016E00122011D13E090F89C22012A03D098
:104AB000022A01D0032A24D1CA88022A21D1C66041
:104AC000D0F8A41209B10321C160022200F10C0147
:104AD000FFF73EFA17E04A88012A02D0022A03D0E3
:104AE0000FE0C0F8A46216E08988090A80F8A012D5
:104AF00011E090F89C32012B08D0022B06D0032B3A
:104B000004D0FFF70FFA2846BDE8F0814988012953
:104B1000F9D1C0F8A422FFF728FAF4E72DE9F04113
:104B2000054608780C790E464FF0000810F060003A
:104B30000BD0202801D040286AD121462846FFF713
:104B4000DDF9FF2800D0D8B395E07078C8B301280C
:104B500024D003285CD195F89C02022802D00328B7
:104B600056D10CE0002C53D0802C51D02146284641
:104B7000FFF722FD80212846FFF71EFD7BE07088AD
:104B800040B93CB1802C05D0C88818B921462846C8
:104B9000FFF712FD2846FFF7E8F96CE095F89C0254
:104BA0000228DFD0032863D1708880BB600603D061
:104BB00021462846FFF730FB2846FFF7D6F9BCE729
:104BC00000E00AE0C5F8D402D5F8B8028268F2B174
:104BD00031462846904780464DE095F89C020027D4
:104BE000022802D0032843D113E00CB1802C3FD11E
:104BF000200604F07F0000EB800005EB800101D56A
:104C0000143101E001F5AA7102220F602CE032E0BC
:104C10002EE0200604F00F0000EB800005EB800082
:104C200009D5808C20B304F07F0000EB800005EBF9
:104C3000800614360AE0B0F86401C8B104F07F00C1
:104C400000EB800005EB800606F5AA764CB1802CBF
:104C500007D021462846FFF7E1FB10B10120306064
:104C600000E03760022231462846FFF771F902E082
:104C70002846FFF757F94046BDE8F08170B5054674
:104C8000087800240E4610F0600003D0202801D0E0
:104C9000402827D195F89C02012803D0022801D092
:104CA00003281FD1B088C1B201291AD8C1B2284641
:104CB000FFF726F9FF280CD058B9D5F8B8128A6842
:104CC0003AB1C5F8D4028A6831462846904704466E
:104CD00000E00324F088204307D12846FFF745F978
:104CE00003E031462846FFF71DF9204670BD7047A6
:104CF000004870472828002070B50A78012302F088
:104D00000F054E78AB401B4CD0F81C58012E17D025
:104D100045EA0343C0F81C3800EB4210D0F8002BE2
:104D200012040BD4D0F8002B8B890979C3F30A0342
:104D30001A4344EA81410A43C0F8002B002070BDA9
:104D40009BB21D43C0F81C5800EB4210D0F800394C
:104D50001B04F3D4D0F800398D890979C5F30A050D
:104D600089042B4341EA82510B432343C0F80039A5
:104D7000E4E7000000800010D0F800196FF30A018A
:104D8000C0F80019D0F8041841F48071C0F8041874
:104D90000020704770B5044606990A9E049D0D9840
:104DA000012916D0E06840F04000E060204600F0A5
:104DB0002BF8A16B1EB321F48031A163012D07D123
:104DC000A16841F00601A160A16841F02001A16045
:104DD00070BDA16B21F48031A163E168094A1140E3
:104DE000E160E16821F44011E160012803D1E0684D
:104DF00040F48010E060204600F006F8DEE741F461
:104E00008031DAE7BFFFBDFF08B500220D490092EF
:104E1000009B5B1C00938B420CD80369002BF7DAD4
:104E20000092026942F001020261009A521C009253
:104E30008A4201D9032008BD0269D207F5D10020BA
:104E400008BD0000400D030030B54C780A780123FE
:104E500000EB4212012C2CD0D2F8004B002C0BDAC4
:104E6000D2F8004B44F00064C2F8004BD2F8004B7B
:104E700044F08044C2F8004BD0F83C580C7804F061
:104E80000F0403FA04F425EA0444C0F83C48D0F8BF
:104E90001C48097801F00F018B4024EA0341C0F857
:104EA0001C18D2F8000B19490840C2F8000B00206A
:104EB00030BDD2F80049002C0BDAD2F8004944F09A
:104EC0000064C2F80049D2F8004944F08044C2F8B6
:104ED0000049D0F83C480D7805F00F0503FA05F5B8
:104EE000ADB2AC43C0F83C48D0F81C48097801F09A
:104EF0000F018B4099B28C43C0F81C48D2F80009CE
:104F000003490840C2F80009D1E700000078F3EF38
:104F1000007833ECD0F8001E21F00301C0F8001E29
:104F2000D0F8041821F00201C0F8041800207047DE
:104F3000D0F8001E21F00301C0F8001ED0F80418BC
:104F400041F00201C0F80418002070472DE9F04F2D
:104F500000250E460446DDF82CC0DDF824B0109F75
:104F60002846294604EB8002C2F80411401C0F2891
:104F7000F8D32046C7B1806B20F40012A263A06B67
:104F800040F40022A26308468846C4F8000ED4F814
:104F900000182046C4F80018BCF1010F16D0D0F854
:104FA000001841F0030116E0D0F8040840F00202B6
:104FB000C4F80428A06B40F40012A263A06B20F494
:104FC0000022A263A06B20F48022DBE7D0F8001857
:104FD0000BB141F00101C0F80018102100F0EEFA09
:104FE00000B10125204600F0CBFA00B10125404672
:104FF000C4F81088C4F81488C4F81C8800214FF045
:1050000000694FF0904A4FF67F3314E004EB4112F1
:10501000D2F800C9BCF1000F06DA11B1C2F800A93C
:1050200004E0C4F8009901E0C2F80009C2F81009D0
:10503000C2F80839491C8E42E8D8002115E000BFAB
:1050400004EB4112D2F800CBBCF1000F06DA11B12B
:10505000C2F800AB04E0C4F8009B01E0C2F8000B0A
:10506000C2F8100BC2F8083B491C8E42E8D8D4F8AD
:10507000101821F48072C4F81028A0616FF08040ED
:105080006061BBF1000F03D1A06940F01000A06186
:10509000A06909490843A0610C9818B1A06940F0C3
:1050A0000800A061012F03D1A06904490843A06151
:1050B0002846BDE8F08F000000383C800400004026
:1050C000816821F0010181600020704770B50D7882
:1050D0004E78444CEBB200EB4313012E21D0D3F8B1
:1050E000100B6FF31200C3F8100BD3F8100B204015
:1050F000C3F8100B886908B1C8688861C868C861BE
:10510000D3F8100B40F40020C3F8100BD3F8100BA9
:10511000CC69C4F312042043C3F8100B012A55D004
:1051200058E08E69002ED3F8106932D06FF3120662
:10513000C3F81069D3F810692640C3F810698E6966
:10514000CC68A64200D98C61D3F8104944F40024FD
:10515000C3F81049D3F810498E69C6F312063443D8
:10516000C3F81049012A22D000EB4512D2F80039C9
:1051700043F00443C2F800398A6932B3D0F83428C6
:10518000097801F00F03012199400A43C0F834283F
:1051900026E02640C3F81069D3F8104944F40024EF
:1051A000C3F81049D3F810496FF31204D8E74969DE
:1051B00019B100EB4512C2F8141900EB4510D0F8F4
:1051C000001941F00441C0F8001909E0086908B16C
:1051D000C3F8140BD3F8000B40F00440C3F8000BE5
:1051E000002070BDFFFF07E010B5036C134CA34215
:1051F00003D9D0F8003B002B1EDB0023C0F8103B86
:10520000D0F8103B43F40023C0F8103BD0F8103B1B
:1052100043F01803C0F8103BD0F8103B43F0C043F4
:10522000C0F8103B012907D1C0F8142BD0F8001B9F
:1052300041F08021C0F8001B002010BD0A30544FFF
:105240004A780B78012A00EB43100BD0D0F8002BE2
:1052500022F40012C0F8002B0979032914D0022986
:1052600012D017E0D0F8002922F40012C0F800296B
:105270000979032901D002290CD1D0F8001941F095
:105280008051C0F8001905E0D0F8001B41F08051B2
:10529000C0F8001B002070470A784B78D1B200EBB1
:1052A0004110012B12D0D0F8001B002906DB2AB1D7
:1052B000D0F8001B21F08041C0F8001BD0F8001B83
:1052C00041F40011C0F8001B00207047D0F800190D
:1052D000002906DB2AB1D0F8001921F08041C0F87E
:1052E0000019D0F8001941F40011C0F80019EBE7DB
:1052F000F8B50C784F78764DE3B26FF0604600EB6E
:105300004313012F27D0D3F8104B6FF31204C3F8C7
:10531000104BD3F8104B2C40C3F8104B8D69002D67
:1053200075D0CC6825446D1EB5FBF4F5ADB26C4369
:10533000CC61D3F8104B06EAC5452C43C3F8104B9B
:10534000D3F8104BCD69C5F312052C43C3F8104BAD
:10535000012A71D0A4E08F691FB3D3F810796FF3DD
:105360001207C3F81079D3F810792F40C3F81079D9
:105370008F69CD682F447F1EB7FBF5F506EAC5455A
:10538000D3F810693543C3F81059D3F810598E6912
:10539000C6F312063543C3F810590D79012D10D00C
:1053A0001BE0D3F810692E40C3F81069D3F81059E8
:1053B00045F40025C3F81059D3F810596FF31205BE
:1053C00009E0D3F8105925F0C045C3F81059D3F8B7
:1053D000105945F00055C3F81059012A18D000EBB8
:1053E0004413D3F8004944F00444C3F800490C794D
:1053F000012C2FD08A6962B3D0F83428097801F0E3
:105400000F03012199400A43C0F834285EE036E0DA
:105410004A691AB100EB4413C3F814290979012928
:105420000FD1D0F80818C90500EB4411D1F80029B4
:1054300003D442F0005202E02EE042F08052C1F864
:10544000002900EB4410D0F8001941F00441C0F8E5
:1054500000193BE0D0F80848E405D3F8004902D42D
:1054600044F0005401E044F08054C3F80049009235
:105470000A8B93B20A78096900F0D0F926E0D3F8D4
:10548000104BCD68C5F312052C43C3F8104BD3F86D
:10549000104B44F4002459E70A690AB1C3F8142BED
:1054A000097901290CD1D0F80808C005D3F8000B00
:1054B00002D440F0005001E040F08050C3F8000BEF
:1054C000D3F8000B40F00440C3F8000B0020F8BDF7
:1054D000FFFF07E038B50022009213464D780A78A6
:1054E00042F2107400EB4212012D19D0D2F8005B89
:1054F000002D3CDAD2F8005B45F00065C2F8005B95
:105500000A7800EB4212D2F8005B45F08045C2F801
:10551000005B009A521C0092A24221D9012326E08E
:10552000D2F80059002D22DAD2F8005945F0006572
:10553000C2F800590A7800EB4212D2F8005945F03F
:105540008045C2F80059009A521C0092A242E5D848
:105550000A7800EB4212D2F80029002AF3DB06E0B9
:105560000A7800EB4212D2F8002B002AD1DB184651
:1055700038BD816841F00101816000207047000062
:1055800008B500220C490092009B5B1C00938B42E3
:105590000AD80369002BF7DA009210220261009A00
:1055A000521C00928A4201D9032008BD0269D2062A
:1055B000F5D4002008BD0000400D030018B50023FD
:1055C0000D4A0093009C641C009494420CD804691A
:1055D000002CF7DA0093202343EA8111016100993E
:1055E000491C0091914201D9032018BD0169890627
:1055F000F5D4002018BD0000400D0300D0F80808C5
:1056000010F0060004D0022803D0062801D00F2095
:10561000704702207047406900F001007047D0F8E1
:105620001818D0F81C08084080B27047D0F8181835
:10563000D0F81C080840000C704710B5D0F810389E
:10564000D0F8342801F00F0400EB4110E24002F0E2
:105650000102D0F8080943EAC212104010BD00EB65
:105660004111D1F8081BD0F814080840704741696F
:1056700080690840704730B503460846940802F038
:105680000301002203F5805303E01D6840F8045B2A
:10569000521CA242F9D300290BD01C680022D5006D
:1056A00024FA05F3491E521C090400F8013B090CB9
:1056B000F5D130BD70B50446C068002520F0C0406B
:1056C000E060012901D079B120E0E06840F00050AD
:1056D000E0600120FBF7B4F860696D1C10F0010F69
:1056E00010D1322DF5D30DE0E06840F08040E0604D
:1056F0000120FBF7A5F860696D1C10F0010F01D0C7
:10570000322DF5D3322D01D0002070BD012070BDA7
:10571000D0F8002822F4FE62C0F80028D0F8002853
:105720004FF4FE6303EA01110A43C0F80028002089
:1057300070470000022A3ED1264A274B0A449A426B
:1057400001D20F2138E0254A254B0A449A4201D262
:105750000E2131E0234A244B0A449A4201D20D2102
:105760002AE0224A224B0A449A4201D20C2123E029
:10577000204A214B0A449A4201D20B211CE01F4AC5
:105780001F4B0A449A4201D20A2115E01D4A1E4BC2
:105790000A449A420FD31D4A1D4B0A449A4201D231
:1057A000082109E01B4A11441B4A914201D20721FA
:1057B00002E0062100E00921C26822F47052C260B2
:1057C000C2684FF4705303EA81210A43C26000208B
:1057D00070470000405327FF00350C00401E1BFFA0
:1057E00040420F0000DC0BFF804F1200808CF9FE5E
:1057F00020D6130060B6E5FE60E3160000D3CEFEAF
:1058000040771B00C05BB3FEC091210000CA91FE2F
:1058100020753800E05459FEE09C410010B5029C10
:1058200074B9DB1C9C0800EB0230002300F58050AB
:1058300004E000BF51F8042B02605B1CA342F9D3C3
:10584000002010BDFEE70907090E002804DB00F167
:10585000E02080F80014704700F00F0000F1E02015
:1058600080F8141D7047000010B504460020E07059
:10587000401E2063204601F028F908B1042010BD25
:1058800004F2322001F000F8A0F52A41553901D088
:10589000032010BD94F83400E92805D0EB2814D17A
:1058A00094F83600902810D104F16A0000F0E1FF6E
:1058B0000749B1EB002F06D004F1860000F0D9FFB4
:1058C0000449884201D1002010BD022010BD000013
:1058D0000046415446415433F0B50022144D13465E
:1058E00005EB021426685EB10768BE4209D16668FE
:1058F0008768BE4205D1A4684669B44204D000E07E
:105900000123521C022AEBD3022A01D069B904E018
:105910004BB9022907D01220F0BD05EB0210808997
:10592000B0F5807F01D00020F0BD1020F0BD000058
:10593000002300200020034902460A54401C80280E
:10594000FBDB70478022002030B50021054B0C4660
:1059500003EB01121568854200D11460491C02292D
:10596000F6D330BD002300200268C06A93895289B3
:105970005343B1FBF3F1001D04C81AB1914203D3A4
:10598000891AF8E700207047006808447047826968
:10599000891E921E8A4201D800207047C26A40893F
:1059A00001FB002070472DE9F04105680F0080469B
:1059B00006D000F076FE022809D20120BDE8F08171
:1059C0002E6916B1A869B04207D8012605E0411C2E
:1059D000F4D0A9698142F1D83E463446A869641CD6
:1059E000A04202D80224022E0AD32146404600F0EB
:1059F00058FE38B10128E1D0411CDFD0B442EDD1CE
:105A00000020DBE74FF0FF3632462146284601F002
:105A100075F830B957B122463946284601F06EF87C
:105A200020B101280FD001242046C7E72C61D5E919
:105A30000501891E884201D8401E6861287940F01E
:105A400001002871F0E73446EEE700002DE9F0414F
:105A50000E4624300D6804460B22202101F02EF85A
:105A60000020014608272A5C401C202A12D92F2A30
:105A70000BD05C2A09D02E2A01D0B94214D30B2FA7
:105A800022D02E2A20D10CE0401C2B5C2F2BFBD0E7
:105A90005C2BF9D028443060B1B12078E5281FD0C4
:105AA00020E008210B27DEE7802A03D3114B1A449C
:105AB00012F8802C10A300E05B1C93F800C0BCF12E
:105AC000000F04D09445F7D10620BDE8F081A2F183
:105AD0006103192B01D8203AD2B26254491CC2E7A3
