:020000040800F2
:1000000050090020A50100084D2A0008492A0008CF
:100010004B2A0008E11B0008BD2C0008000000006E
:10002000000000000000000000000000512A00084D
:10003000E31B0008000000004F2A0008532A0008B4
:10004000BF010008BF010008BF010008BF01000890
:10005000BF010008BF010008BF010008BF01000880
:10006000BF010008BF010008BF010008BF01000870
:10007000BF010008BF010008BF010008BF01000860
:10008000BF010008BF010008BF010008BF01000850
:10009000BF010008BF010008BF010008BF01000840
:1000A000BF010008BF010008BF010008BF01000830
:1000B000BF010008BF010008BF010008BF01000820
:1000C000BF010008BF010008BF010008BF01000810
:1000D000BF010008A52C0008B12C0008BF010008D2
:1000E000BF010008BF010008BF01000800F002F8CE
:1000F00000F048F80AA090E8000C82448344AAF17A
:100100000107DA4501D100F03DF8AFF2090EBAE877
:100110000F0013F0010F18BFFB1A43F0010318473B
:100120004C3E00006C3E0000103A24BF78C878C1F5
:10013000FAD8520724BF30C830C144BF04680C60ED
:10014000704700000023002400250026103A28BF35
:1001500078C1FBD8520728BF30C148BF0B60704739
:100160001FB500F07BFC04000020002102F098FF86
:10017000401C60600020002102F07CFFE0601FBD99
:1001800010B510BD00F0ACFE1146FFF7E9FF02F01C
:100190000DFF01F0FDF803B4FFF7F2FF03BC01F01F
:1001A00055F900000948804709480047FEE7FEE787
:1001B000FEE7FEE7FEE7FEE7FEE7FEE7FEE7FEE717
:1001C00004480549054A064B70470000A72A000865
:1001D000ED000008500300205009002050050020C9
:1001E000500500200FB400B58DB010A90990009102
:1001F0000B904FF0FF300A9000200C900648784496
:100200000690064878446A4607900F9909A800F0BE
:10021000F5FB0DB05DF814FB1B080000330800006F
:100220002DE9FF5F1D464FF0FF3B91464FF0000860
:100230005F46D5E90146A96901987F1C8847296A6C
:10024000824688470028F6D1BAF1FF3F0CD0002E35
:1002500024F4C06419DD600614D5BAF12B0F09D05F
:10026000BAF12D0F0ED103E0584604B0BDE8F09F5F
:1002700044F48064A96901987F1C8847761E8246F1
:10028000002E02DDBAF1300F03D0B9F1000F26D0F5
:1002900032E0A969761E01987F1C44F400748847F7
:1002A000002E824605DDBAF1780F06D0BAF1580F5C
:1002B00003D0B9F1000F10D01EE0B9F1000F02D049
:1002C000B9F1100F18D1A969761E01987F1C24F48A
:1002D000007488478246102002E0082000E00A20CF
:1002E000814609E0A96908FB0908761E01987F1C70
:1002F00044F4007488478246002E05DD4946504686
:1003000000F0EBF80028EDDAE96901988847A005CC
:1003100002D46FF00100A8E7E00725D1600613D5ED
:10032000600502D5C8F1000000E0404629680A1DBA
:100330002A600968220501D5087015E0220701D559
:10034000088011E008600FE02868011D296000683E
:10035000210502D580F8008006E0210702D5A0F82B
:10036000008001E0C0F8008038467EE72DE9FF5F9D
:100370004FF000089946144646469169D2E901A714
:10038000DDF838B001988847054659EA0B0005D0DA
:1003900009E0A1690198761C88470546216A28462C
:1003A00088470028F5D1681C03D05FEACA7005D0E1
:1003B00015E04FF0FF3004B0BDE8F09F2068011D4C
:1003C0002160D0F800800AE05FEACA7001D108F825
:1003D000015BA169761C01987F1E88470546002FA6
:1003E0001ADD681C18D0B9F1000F0DD0E81705EB25
:1003F000D060421120F01F0059F822102A1A012063
:1004000090400142E0D107E0BBF1000FDCD128466B
:10041000216A88470028D7D0E16901988847BBF155
:10042000000F07D1002E05DD5FEACA7002D100215E
:1004300088F80010A068B84203DDBBF1000F03D0BC
:1004400017B16FF00100B6E73046B4E730B50546A6
:100450000B462A4613F8014B12F8010B08B1A042D3
:10046000F8D01CB1002802D06D1CF1E7284630BD41
:100470004FF0000200B5134694469646203922BF3D
:10048000A0E80C50A0E80C50B1F12001BFF4F7AF88
:10049000090728BFA0E80C5048BF0CC05DF804EB6A
:1004A000890028BF40F8042B08BF704748BF20F8D8
:1004B000022B11F0804F18BF00F8012B70477047D6
:1004C0007047704710B500F0CDFA006810BD10B548
:1004D000044600F0C7FA046010BD3A2800D2303854
:1004E00020F02002412A01D3A2F13700884201D333
:1004F0004FF0FF30704700002DE9FF4F06468BB0EC
:100500000878FF2806D0491C2D2805D000244FF07C
:10051000000908E000200CE00124F8E709EB89035A
:10052000491C00EB43090878FF28F7D114B1C9F141
:1005300000008146107800252C46AA4629462D2821
:1005400001D02B2804D1521C2D2813D00020824624
:100550008B461078FF280FD04FF0000C0A21521C58
:10056000A5FB017804FB018105FB0C11C5194BEBC0
:100570000104EEE70120EAE7002108464FF0000001
:10058000BAF1000F02D000EB80004008C0F38157A1
:10059000012F01DD4FF0FF370E9955EA040009EBFA
:1005A00001080BD04FF0020918F5FA7F16DA4FEA6E
:1005B000CA70002F706008DD012007E04FEACA70A2
:1005C000C6E900B00FB0BDE8F08F0020306000F049
:1005D00049FAC0F800901821084616E0B8F5FA7FED
:1005E00018DD002F02DAF748784401E0F648784435
:1005F000D0E90010C6E9001040EACA70706000F04F
:1006000031FAC0F80090142108460FB0BDE8F04F51
:1006100003F0AFBB002108464FF00000B8F1000125
:10062000099002DAC7F1000200E03A4601DAC8F1A7
:10063000000106A800F0DEFB06AB93E8070003AB61
:1006400083E8070044F23E005BEA0401009058464C
:1006500004D144F21E012C465D460091210C090490
:10066000014306D10099240444EA15442D041039AD
:10067000009104F07F41014306D10099240244EA2D
:1006800015642D020839009104F07041014306D130
:100690000099240144EA15742D01091F009104F00A
:1006A0004041014306D10099A40044EA9574AD008D
:1006B000891E009104F00041084304D100986D198F
:1006C0006441401E00904FF001033A466846B8F17D
:1006D000000FCDE9014503A902DD01F04AF901E06F
:1006E00001F01DF9BAF1000F04460D4601D084F067
:1006F0000044002108464FF00000099940F2FF77BE
:10070000484010F00C0F07D124F00040284303D0DC
:10071000C4F30A50B84212D100F0A4F9C0F8009016
:10072000C4F30A50B8420AD1A8487844D0E900106E
:10073000C6E9001004F000410843706042E7C6E9D2
:1007400000543FE72DE9FF4F1F464FF0000A4FF0DE
:10075000FF38454691B0D7E90146CDF83CA000F0FE
:100760007DF9C0680168405C1090B96912986D1CF1
:100770008847396A814688470028F6D1B9F1FF3F9A
:100780000AD0002E24F4D06411DDB9F12B0F08D06B
:10079000B9F12D0F0BD102E0404615B013E744F438
:1007A0008064B96912986D1C8847761E8146600581
:1007B00004A901D52D2000E02B20002E01F1010B12
:1007C0000DF130088DF810003FDDB9F1690F08D048
:1007D000B9F1490F05D0B9F16E0F02D0B9F14E0F42
:1007E0001CD13B4601A8009580E85002DDE91212B9
:1007F0006FF0020003F024FBC11CCED10EE0B969FA
:1008000012986D1C884781461398761E44F4007434
:1008100005600F98401C002E0F9016DDB9F1300FC7
:10082000EDD0B9F1780F02D0B9F1580F0DD10F9872
:1008300001280AD13B46CDE90054DDE91212001F20
:10084000029603F0FBFAC11CA7D1109989453ED14D
:1008500044F0800406E01399681CAAF1010A44F4EC
:1008600000740860B9696D1C1298761E884730289C
:100870008146F0D02BE01099894505D1200603D49C
:10088000761E44F0800418E0484602F0AEFA08B341
:10089000761E0DF123018B4544F4007408D2A9F1B2
:1008A00030000BF8010B200607D5AAF1010003E088
:1008B000200602D40AF101008246A00502D5139950
:1008C000681C0860B96912986D1C88478146002E23
:1008D000D1DC53E0002E51DDB9F1650F02D0B9F142
:1008E000450F4BD1A00549D5B9696D1C1298761EEC
:1008F00024F440748847002E81460CDD2B2804D058
:10090000B9F12D0F07D144F48074B96912986D1CA8
:100910008847761E8146E00501D52D2100E02B2178
:1009200008F8011BCDF8008021E0761E0DF1390199
:10093000884544F400740CD2A9F1300010F0FF0097
:1009400088F8000002D10099884509D908F101080A
:1009500006E0E00501D51E4801E042F20F70824634
:10096000B96912986D1C8847814613980560002E5E
:1009700004DD484602F039FA0028D6D1F969129808
:100980008847FF2053468BF8000088F800000020BD
:100990000A900B9004AA0CA90AA8FFF7ADFDA005C8
:1009A00002D46FF00100F8E614F0240F12D0E00733
:1009B0001CD13868DDE90A12031D3B600068C0E9FC
:1009C000001213E0A83900009A3900005E380000D8
:1009D000F1D8FFFF0AA9684602F096F9E00705D1B1
:1009E0003868009A011D3960006802602846D4E624
:1009F000026811441378016018467047D1600549B8
:100A00007944516104497944116200211161114610
:100A100000F036B8EDFFFFFF63000000426842B10E
:100A2000016811F8013B23B1521EC0E900121846BB
:100A300070470121C160881E704742685AB1C3687F
:100A4000016843B983688B4205D0491E521CC0E936
:100A50000012002070474FF0FF3070470048704789
:100A60001003002000487047F002002010B5044633
:100A700000F05CFA0068005D00F0010010BD0000AD
:100A80002DE9F34F4FF0000A0C4656468DB0012079
:100A90000C9001F10C000B9062690B9801219047BA
:100AA000051E2DD0252D2CD0216A8847C0B1626942
:100AB0000B9801219047216A88470028F7D1626985
:100AC000411E0B98904700E0761CA1690D9888475D
:100AD000216A88470028F7D1E1690D988847DBE74C
:100AE000A1690D988847A842074601D1761CD3E733
:100AF000E1690D9888477F1C02D1BAF1000F6FD0D1
:100B00006CE162690B9800273D46394690472A28D8
:100B100004D162690B98012190470125DFF8D0824A
:100B200062690B9801219047A0F130010A290AD28D
:100B30004745E5DC07EB870100EB4107303FDFD499
:100B400045F01005ECE7E90601D46FF000476C288A
:100B50000AD04C2814D0682815D06A280DD07428E3
:100B60001CD07A281AD01DE062690B9801219047A9
:100B70006C2802D045F0040514E045F002050DE0B4
:100B800045F020050AE062690B980121904768282A
:100B900002D045F0080505E045F4006562690B9850
:100BA00001219047C4E9015765283DD019DC582838
:100BB0007AD00CDC452837D004DC252826D0412803
:100BC0009ED131E046282FD0472899D12CE05B28D0
:100BD00077D0612828D063287CD0642823D15AE0BC
:100BE000F7E06F2848D008DC66281DD067281BD0A6
:100BF000692821D06E2816D127E0702845D07328A7
:100C000068D0752847D078280DD14DE0A1690D989E
:100C10008847252805463FF469AFE1690D98884764
:100C20006D1C3FF46AAFD9E00D9923466A466FF018
:100C3000010003F001F9C6E045F0400023464FF003
:100C400000026060A80736D43EE0E8077FF447AFB3
:100C50002068011D21600068290501D506701BE789
:100C6000290701D5068017E7A90703D5F117C0E9C1
:100C7000006111E706600FE745F0400023464FF0A2
:100C800008026060A80716D41EE040F60E0125EAAF
:100C90000100606016E045F0400023464FF00A0274
:100CA0006060A80707D40FE045F040006060A80727
:100CB00008D5234610220D996FF00100AFF3008094
:100CC00081E007E0102223460D996FF00100FFF745
:100CD000A7FA78E04FF0000963284F46C8464B4614
:100CE000CB4602D05B2807D039E02079C00601D47A
:100CF0000120A060012732E06269D4F80CB00B98A3
:100D0000012190475E2807D14FF0010949466269E9
:100D1000D4F80CB00B989047216939B900210A46E4
:100D200003AB43F82120491C0829FADBD8B3216919
:100D300049B308F1010862690B98012190475D28C9
:100D4000F4D1B9F1000F09D0002003A951F82020F7
:100D5000D24341F82020401C0828F7DB03AB206970
:100D6000002820794FEA40701ED05B462246CDF81D
:100D70000080CDE901970D9900286FF0010020DA7D
:100D8000AFF300801FE0C11703AA00EBD1614B1144
:100D900021F01F0102EB8302411A136801208840F1
:100DA00003431360C7E719E00D99224600286FF04E
:100DB0000100009702DAAFF3008004E0FFF7D6FAF3
:100DC00001E0AFF3008000280ADA401C06D10C983D
:100DD00020B14FF0FF300FB0BDE8F08F5046FAE77A
:100DE000E90701D10AF1010A064400200C9053E6FC
:100DF000CCCCCC0C2DE9F047814616468AB035485C
:100E000078440DC88DE80D0032487844801C03AC4E
:100E10000DC884E80D0041F69B300844372190FB53
:100E2000F1F290FBF1F5A5F1800501FB12041B3CEA
:100E300002D56442012000E00020DFF898A080463F
:100E40000027FA44AAF1BE0A0EE0E0070AD03246B3
:100E5000684607EB470101230AEB810100F074FDAE
:100E60008DE8070064107F1C002CEED1194F7F44E1
:100E7000AE3F19E0E80715D007EB04100DF1180A92
:100E800090E80E008AE80E00C068F04201D198197F
:100E900008903246012306A903A800F055FD03ABD4
:100EA00083E807006D10641C002DE3D14FF00103AF
:100EB00032466946B8F1000F03A802D000F01AFDCF
:100EC00001E000F041FDC9E90001C9F808200AB0BD
:100ED000BDE8F0870431000000487047F0020020B0
:100EE0007546FFF7F9FFAE4605006946534620F008
:100EF0000700854618B020B5FFF762F9BDE820402D
:100F00004FF000064FF000074FF000084FF0000BC5
:100F100021F00701AC46ACE8C009ACE8C009ACE878
:100F2000C009ACE8C0098D467047000010B5FFF756
:100F300095FD001D10BD00BF692100002DE9FF4F88
:100F40001F464FF03C0987B04FF00042DDE9141016
:100F500001F10108DDF858A002EA4050039000209A
:100F600005908346054604460490B969461E0898D4
:100F70008847AAF1010A0290BAF1000F3BDD0298FE
:100F80002E2815D01021FFF7A8FA00282EDB4FF0ED
:100F9000010B0599014317D0B9F1000F0BDB4A464D
:100FA000C11700F03FFA05430C43A9F1040905E01D
:100FB000012004900BE008B145F0010501200590E7
:100FC000049820B9361D02E0049800B1361FB969B3
:100FD000089808F101088847BBF1000FAAF1010A3F
:100FE0000290C9D00999C1F80080C5E7029870281D
:100FF00008D0502806D0F96908988847BBF1000F3F
:1010000014D04FE0002002900120BBF1000F0490AB
:1010100009D0B969089808F101088847AAF10109BF
:10102000B9F1000F07DCF969089888476FF00100F3
:101030000BB0BDE8F08F2B2804D02D280CD14FF039
:10104000FF300490B969089808F101088847A9F1B0
:101050000109B9F1000FE6DD411CE4D00A21FFF7D8
:101060003CFA0028DFDB029908F1010801EB81015D
:1010700000EB41000290B969089888470A21FFF700
:101080002CFA099AA9F10109B9F1000FC2F8008000
:1010900001DD0028E7DAF969089888470499029881
:1010A00000FB016655EA040004D004F04041090049
:1010B00002D006E0039898E0A40044EA9574AD00DD
:1010C000B61E04F00041080002D16D196441761E7D
:1010D000159810F0240F03D04FF00B095C4803E083
:1010E0004FF028096FF07D008246564507DAAAEBDB
:1010F00006018944B9F1410F01DD4FF0410901209A
:101100000021A9F1010200F08DF9024628400B46AA
:101110002140084301D0012100E00021501E02912E
:1011200043F1FF3128402140084301D0012000E075
:1011300000200299834651EA0B014FD00021084656
:101140004FF00000039900F4400039B100EB80003B
:101150004FF4400100EBD07001EA600080150128D7
:1011600002DD4FF0FF3000E013D0401C36D0029873
:1011700060B3BBF1000F0CD14A460120002100F002
:1011800051F928402140084301D0012000E000200F
:10119000E0B101204A46002100F044F9034640191D
:1011A0000A4661412D1A8C4111D3B9F1400F09DD76
:1011B000159810F0240F02D0AAF1340603E0AAF12A
:1011C000170600E0761C00254FF0004406E05B1E89
:1011D00042F1FF3220EA030521EA0204CAF10100CC
:1011E000B04206DA1B4903980843019000200090A2
:1011F0000EE0039AC4F3D321E80A0A43164940EAF1
:1012000044500A433146CDE90002684601F0E2FD50
:10121000159810F0240F0BD01598C00715D1386819
:10122000DDE90012031D3B600068C0E900120CE01C
:1012300002A8694601F068FD1598C00705D1386815
:10124000029A011D3960006802604046F0E6000025
:1012500002FCFFFF0000F07F0000F03F2DE9FF4F90
:1012600092461D4685B04FF00041DDE9124BDDE9A5
:1012700014727F1E01EA4B50414940F0FF4940EA99
:101280000108002122F020004928049102D04E28B4
:1012900028D04CE03BA0012607C88DE80700A969CB
:1012A0000698641C88477F1E014606D41DF8060078
:1012B00018B121F0200181420BD0E96906988847D6
:1012C000032E34D0082E32D06FF0010009B0BDE8F3
:1012D000F08F761C032E01D0082EE0D1601CCAF8D6
:1012E0000000DCE7A9690698641C88477F1E2AD4A1
:1012F00020F02000412826D1A9690698641C88475F
:101300007F1E20D420F020004E281CD1A969069809
:10131000641C88477F1E48F4002849F48009CAF8F5
:10132000004001D4282806D0E969069888475FEA7A
:10133000CB7012D022E0A9690698641C88477F1EF2
:1013400001D4002803DAE96906988847BCE7292810
:10135000F1D1641CCAF80040E9E71BF0240F07D064
:1013600028680499031D2B600068C0E9001805E097
:101370002868021D2A600068C0F800902046A5E792
:101380000000F07F494E46494E4954590000000084
:1013900010B50446AFF300802046BDE81040FEF7CC
:1013A000FABE00004FF0013C50F8042B51F8043B0A
:1013B0009A4221D1A2EB0C03934313EACC1317D129
:1013C00050F8042B51F8043B9A4215D1A2EB0C03C0
:1013D000934313EACC130BD150F8042B51F8043B80
:1013E0009A4209D1A2EB0C03934313EACC13DBD04E
:1013F0004FF00000704700BFD01A01BAB1FA81F176
:1014000001F0180122FA01F0CB40C1F12001DBB25A
:10141000C0B2C01A2CFA01F3D11A914311EAC311D8
:10142000E6D17047B2F120030AD5C2F1200301FAD8
:1014300002F120FA03F300FA02F041EA03017047D7
:1014400000FA03F14FF00000704700000149182036
:10145000ABBEFEE726000200704720F07F4C80EA1A
:10146000030023F07F47ACEB070303F57C5300F048
:10147000004003F1FF032DE980494FEA154B09B401
:101480004FEA144325EA0B4E24EA03480FF20426E0
:1014900006EB132749083E785FEA320203FB066732
:1014A000C7F5000707FB06F64FEA54374FEAD64662
:1014B00006F1020607FB066CCCF1005C4FEA1C4704
:1014C0002CEA074C07FB06F40CFB06F504EB15466B
:1014D0004FEA961634BF00204FF000404FEAD13754
:1014E00006FB07FC4FEA1C4C0CFB0BF7D21B03FB63
:1014F0000CF761EB07010CFB0EF7B0EB074072EB4A
:1015000017420CFB08F734BFA2EB0742B2EB0742CD
:1015100061EB17414FEA0C444FEA910706FB07FCC9
:101520004FEA1C4C0CFB0BF7B0EBC74072EB573289
:1015300003FB0CF734BFA2EBC742B2EBC74261EB2F
:1015400057310CFB0EF7B0EBC70072EB57720CFB78
:1015500008F734BFA2EBC702B2EBC70261EB5771C9
:10156000039F4FEA816141EA921104EBCC044FEAF8
:10157000D1374FEA826206FB07FC42EA90124FEA3B
:1015800080604FEA1C4C0CFB0BF7D21B03FB0CF7E3
:1015900061EB07010CFB0EF7B0EB074072EB174253
:1015A0000CFB08F734BFA2EB0742B2EB074261EB3A
:1015B00017414FEA8C554FEA910704EB9C2406FB38
:1015C00007FC4FEA1C4C0CFB0BF7B0EBC74072EB6F
:1015D000573203FB0CF734BFA2EBC742B2EBC74252
:1015E00061EB57310CFB0EF7B0EBC70072EB577293
:1015F0000CFB08F734BFA2EBC702B2EBC70261EBEA
:10160000577115EB4C254FEA816141EA92114FEA7F
:1016100082624FEAD13742EA901206FB07FC44F19E
:1016200000044FEA80604FEA1C4C0CFB0BF7D21B06
:1016300003FB0CF761EB07010CFB0EF7B0EB074067
:1016400072EB17420CFB08F734BFA2EB0742B2EB78
:10165000074261EB174115EB1C154FEA813141EA56
:1016600092414FEA823242EA90424FEA80304FEA9A
:101670000C7644F1000448EA03434EEA0B484FF06D
:10168000000EB2EB080C71EB030724BF624639462B
:101690004EEB0E0E4FF0000B0018524149414BEB40
:1016A0000B0BB2EB080C71EB03077BF1000B24BFB3
:1016B000624639464EEB0E0E4FF0000B00185241B9
:1016C00049414BEB0B0BB2EB080C71EB03077BF1C1
:1016D000000B24BF624639464EEB0E0E51EA02075C
:1016E00018BF46F0010616EB0E7655F1000254F1D4
:1016F000000103D5BDE88901BDE80088BDE8890186
:10170000BDE80048B619524141EB0101A3F10103C4
:10171000704780807F7E7D7C7B7A7978777676755E
:101720007473727171706F6E6E6D6C6C6B6A6A69D6
:101730006868676666656464636362616160605F70
:101740005F5E5E5D5D5C5C5B5B5A5A5959585857E9
:101750005756565555555454535352525251515051
:1017600050504F4F4F4E4E4D4D4D4C4C4C4B4B4BA4
:101770004A4A4A49494948484847474747464646EA
:101780004545454444444443434343424242424125
:101790004141000046EA0646A3F570534FEA16465B
:1017A00046EA42564FEAD22242EA415210B54FEA87
:1017B000D121A3F1010300F02FF820F0004000F147
:1017C000020C00F0004701EB00501146BCF5006F21
:1017D00040EA070000D210BDBAF1000F0AD01CB5D4
:1017E00003B44FF004004FF004014FF000000FBCB1
:1017F000BDE810404FF00001BBF1010FB9BF044834
:101800004FF0FF310348002140EA070010BD00BF40
:10181000FFFFEF7F0000F07F002B9C4630D4770065
:101820002BD01CB54FEA370703B44FF010004FF030
:101830001001BAF1000F06D0BCF1000FDCBF40F080
:10184000080040F008014FF000000FBCBDE8104058
:101850000BF1010BBBF1010F08BF5FEA170722BFB5
:1018600012F1010211F101014FF0004143F10003B7
:1018700000F0004043EA00007047F9D35708D0E772
:1018800046EA064613F1400F4FEA16461FDD13F1F4
:10189000200FDFBF16430A46002120335B42BED033
:1018A000C3F1200746EA064602FA07F74FEA164652
:1018B00046EA0706C3F1200722FA03F201FA07F706
:1018C00021FA03F14FF0000342EA0702A7E746EAD4
:1018D000020646EA06464FEA164646EA0106BCBF3D
:1018E00046EA0646360C4FF000034FF000024FF078
:1018F000000194E72DE9804C9A46934670B491E834
:10190000380007C831EA400C48BF34EA430C03D51D
:10191000FFF7A3FDFFF780FFF0BCBDE8008C2DE9C9
:10192000804C9A46934670B491E8380007C831EA73
:10193000400C48BF34EA430C03D5FFF78EFDFFF798
:1019400029FFF0BCBDE8008C2DE9804C9A469346F7
:1019500070B491E8380007C810F0804F08BF13F04A
:10196000804F03D100F01AF8FFF756FFF0BCBDE836
:10197000008C2DE9804C9A46934670B491E838006B
:1019800007C810F0804F08BF13F0804F03D100F05C
:1019900005F8FFF7FFFEF0BCBDE8008C20F07F47A4
:1019A00080EA030023F07F4C07EB0C03A3F57C5384
:1019B00000F00040A3F1FE0392F0000F00F0B380AE
:1019C00095F0000F00F077802DE901494FEA1140B2
:1019D0004FEA144621EA004800FB06FC24EA0647C9
:1019E00008FB06F607FB08F800FB07F718EB0648AC
:1019F0004CEB164C4FEA124B18EB07484FEA1546D2
:101A00004CEB174022EA0B4E0BFB06FC25EA06477F
:101A10000EFB06F607FB0EFE0BFB07F71EEB064E52
:101A20004CEB164C4FF000061EEB074E4CEB174BE1
:101A300018EB0B0840F1000018EB0E0B58EB0008F8
:101A400040F100008F1A4FF000013CBFC943661BF4
:101A500014BFB5EB040C00213CBFC943F61B4FEA91
:101A600017444EEA8E0E27EA04454FEA1C4704FB52
:101A700007622CEA074C05FB07F70CFB05F604FB95
:101A80000CFC16EB074642EB174216EB0C4642EBFA
:101A90001C421BEB060658EB0202414146EA9E0639
:101AA00001D5BDE80189B619524141EB0101A3F10D
:101AB0000103BDE801894FEA14454FEA114724EAC2
:101AC000054621EA074C05FB07F406FB07F70CFB6C
:101AD00006F105FB0CFC11EB074144EB17444FEA00
:101AE000124711EB0C4144EB1C4422EA074C05FB66
:101AF00007F206FB07F70CFB06F605FB0CFC16EBE2
:101B0000074642EB174216EB0C4642EB1C456A189F
:101B100054F1000148BF7047B619524141EB010131
:101B2000A3F10103704795F0000F37D04FEA11423F
:101B30004FEA144721EA024624EA074C02FB07F168
:101B400006FB07F70CFB06F402FB0CFC14EB074446
:101B500041EB17414FEA154714EB0C4441EB1C4194
:101B600025EA074C02FB07F506FB07F70CFB06F618
:101B700002FB0CFC16EB074645EB174516EB0C4633
:101B800045EB1C42121951F1000148BF7047B619CC
:101B9000524141EB0101A3F1010370474FEA1445A3
:101BA0004FEA114724EA054621EA074C05FB07F1F5
:101BB00006FB07F70CFB06F24FF0000605FB0CFCDA
:101BC00012EB074241EB174112EB0C4251EB1C4167
:101BD00048BF7047921841EB0101A3F10103704720
:101BE000FEE7704710B500F01DFA0E494FF4FF7282
:101BF000C1F80402B1F8000290420AD291F8023210
:101C00000B54B1F80002401C80B2A1F800029042CF
:101C100001D300F049FFBDE810400122024903480A
:101C200000F0D4BE180000201A020020AC020020F0
:101C300070B58EB000F0F6F9394CD4F80412401AA1
:101C4000322864D9B4F80002002860D035A12046BB
:101C5000FEF7FCFB050052D004F502704821064651
:101C6000FEF706FC04F51370011F821FA0F110039C
:101C7000CDE90C101438CDE90A32821FC31F011FB1
:101C8000CDE90810CDE9063208380E3ACDE9042036
:101C90001439213BCDE902312438811ECDE90010F1
:101CA000C31E324621492846FEF79CFA94F82012BA
:101CB0002D2009B984F8200294F8301209B984F86B
:101CC000300294F8441209B984F8440294F83C12A2
:101CD00009B984F83C02D4F8100204F5027401F04A
:101CE0008BF8C4E90401E06901F086F8C4E9080151
:101CF0000F492078097808442070A4F502744FF445
:101D000000710748FEF7B4FB0020A4F800020EB0F3
:101D10000122BDE870400749074800F057BE0000A7
:101D2000180000202447504747412C00203F00085E
:101D3000000000201A020020AC020020044900200C
:101D40000122A1F8000201F20221024800F03EBE89
:101D500018000020AC02002010B590F821100022DD
:101D6000022905D00421816380F82020012010BDC4
:101D700001680B6823F00E030B6001680B6823F009
:101D800001030B6090F84030C46B012101FA03F3AA
:101D9000636080F8211080F82020104610BD0000FC
:101DA00010B590F821100024022903D0042181638A
:101DB00001243DE001680A6822F00E020A60016811
:101DC0000A6822F001020A601A4A0168914201D1B0
:101DD000012121E0174A1432914201D110211BE068
:101DE000144A2832914201D1891515E0114A3C323A
:101DF000914201D189140FE00E4A5032914202D132
:101E00004FF4803108E00B4A6432914202D14FF422
:101E1000801101E04FF08071064A083A51600121BB
:101E200080F82110002180F82010416B01B1884713
:101E3000204610BD080002402DE9F84FDFF8B891A8
:101E4000002409F1040A0AF1040B23460F270BF1C1
:101E5000040EC9E00125A5402A40AA427DD1674E63
:101E6000D1F804C0ACEB0608B44532D014DCBCF1A8
:101E7000030F3AD009DCBCF1000F2AD0BCF1010FEE
:101E80001CD0BCF1020F31D11DE0BCF1110F17D0F5
:101E9000BCF1120F2AD119E0B8F5881F19D006DC61
:101EA000B8F5803F15D0B8F5801F1FD111E0B8F507
:101EB000001F0ED0B8F5041F18D10AE0CB6815E05A
:101EC000CB681B1D12E0CB6808330FE0CB680C33E6
:101ED0000CE08B682BB1012B4FF0080303D0456158
:101EE00004E0042302E0056100E00023FF2A01D89A
:101EF000064601E000F104064FEA840501D9A5F188
:101F00002005D6F8008007FA05FC28EA0C0803FA39
:101F100005F548EA0508C6F800804D68ED0062D571
:101F2000374DAE6946F00106AE61AD6924F0030697
:101F300005F001050095334D06EB050CDCF8085063
:101F4000A607360F07FA06F825EA0805DFF8B88075
:101F5000404503D14FF0000817E044E0DFF8AC80C3
:101F6000404502D14FF001080FE0DFF8A480404562
:101F700002D14FF0020808E0DFF89880404502D116
:101F80004FF0030801E04FF0040808FA06F848EAA9
:101F90000508CCF808804D68D9F80060ED034D467F
:101FA00001D5164300E096432E604D68DAF80060D4
:101FB000AD03554601D5164300E096432E604D68AB
:101FC000DBF80060ED025D4601D5164300E0964364
:101FD0002E604D68DEF80060AD02754601D51643EF
:101FE00000E096432E60641C0D682A46E5407FF4AD
:101FF00031AFBDE8F88F000000040140000011106F
:10200000001002400000014000080140000C0140A7
:1020100000100140001401400AB101617047090439
:10202000FBE70000014880687047000004000020C2
:1020300002488168027811448160704704000020E2
:10204000074810B5016841F010010160032000F05D
:1020500075F80F2000F006F800F024F8002010BDFD
:102060000020024070B50D4D04464FF47A71287877
:10207000B1FBF0F00A490968B1FBF0F000F0ECFAAE
:1020800048B9102C07D200222146501E00F036F825
:1020900000206C6070BD012070BD000004000020B5
:1020A000100000200C4808B5816941F001018161F0
:1020B000816901F001010091C16941F08051C16164
:1020C000C06900F0805000900448416821F0E06150
:1020D00041F00071416008BD001002400000014065
:1020E000002809DB00F01F02012191404009800017
:1020F00000F1E020C0F8001170470000F0B40E4B72
:102100001B680C46C3F30223C3F10705042D00D955
:102110000425191D072901D2002300E0DB1E01263A
:1021200006FA05F1491E214099409E40761E164050
:102130003143F0BC00F0C3BD0CED00E0064900F0F7
:10214000070208684FF6FF03184040EA0220034ADE
:1021500010430860704700000CED00E00000FA0535
:102160002DE9F0470F46050061D0434E306800F07E
:102170000700B84209D2306820F0070038433060C9
:10218000306800F00700B84251D128683B4C810705
:1021900012D5400703D5606840F4E060606028789D
:1021A000000703D5606840F4605060606068A9680B
:1021B00020F0F000084360602878C00728D06868E5
:1021C000012810D02168022810D0890700292EDAB2
:1021D000616821F0030101436160FFF723FF80463E
:1021E00041F288390DE021688903EFE78901EDE7C5
:1021F000FFF718FFA0EB0801494502D90320BDE80D
:10220000F0876068696800F00C00B0EB810FEFD1D7
:10221000306800F00700B8420BD9306820F00700A2
:1022200038433060306800F00700B84201D0012028
:10223000E5E72878400705D56068E96820F4E060A4
:10224000084360602878000706D56068296920F493
:10225000605040EAC100606000F038F86168084AE8
:10226000C1F30311515CC840064908600648006884
:10227000FFF7F8FE0020C2E70020024000100240F5
:10228000743E0008100000200800002004480549A2
:1022900000684968044AC1F30221515CC840704794
:1022A0001000002000100240843E00080448054948
:1022B00000684968044AC1F3C221515CC8407047B4
:1022C0001000002000100240843E000812A185B0DA
:1022D0000FC98DE80F0014A0144A006804905168DB
:1022E000134801F00C03042B10D0082B0ED1C1F3BE
:1022F0008343C9031DF803000AD5516804AAC1F33A
:102300004041515C0A4A5043B0FBF1F005B07047C0
:1023100008494843FAE700000203040506070809D4
:102320000A0B0C0D0E0F10100102000000100240ED
:1023300000127A0000093D002DE9F84F040070D02A
:102340002078C04DC00749D06868C0F381000128DB
:1023500007D06868C0F38100022809D16868C0030B
:1023600006D52868800339D560680028E7D035E0B5
:102370006068B0F5803F0BD010B1B0F5A02F11D040
:10238000286820F480302860286820F4802002E04B
:10239000286840F480302860606890B1FFF742FE02
:1023A00006460AE0286840F480202860F0E700BF75
:1023B000FFF738FE801B642873D828688003F7D5A0
:1023C0000CE0FFF72FFE064605E000BFFFF72AFEF0
:1023D000801B6428F0D828688003F7D420789A4EB0
:1023E00080074FF001094FF0000839D5686810F0F8
:1023F0000C0F07D06868C0F38100022809D1686813
:10240000C00306D42868800714D52069012808D1A4
:1024100010E02069B0B1C6F80090FFF703FE074650
:1024200005E00AE1FFF7FEFDC01B0228C4D82868BA
:102430008007F7D52868616920F0F80040EAC100FC
:1024400028600DE0C6F80080FFF7ECFD074604E0C9
:10245000FFF7E8FDC01B022823D828688007F7D4BF
:10246000207800072CD57948A169D9B1C0F800902F
:10247000FFF7D8FD074604E0FFF7D4FDC01B022894
:102480000FD8686A8007F7D571484FF4FA51006891
:10249000B0FBF1F0009000BF0098411E0091FAD20D
:1024A0000EE080E0C0F80080FFF7BCFD074604E0C6
:1024B000FFF7B8FDC01B022875D8686A8007F7D4FB
:1024C0002078400760D5E8690027C00008D4E86993
:1024D00040F08050E861E869012700F080500090EA
:1024E0005C480168C90513D40168834641F48071D2
:1024F0000160FFF797FD824606E000BFFFF792FDFF
:10250000A0EB0A0064284ED8DBF80000C005F5D522
:10251000E06801280AD008B1052813D0286A20F005
:1025200001002862286A20F0040002E0286A40F0D6
:1025300001002862E06841F2883B98B1FFF772FD24
:1025400082460BE0286A40F004002862EEE700BFF4
:10255000FFF768FDA0EB0A0159455AD8286A8007A1
:10256000F6D50CE0FFF75EFD824605E0FFF75AFD69
:10257000A0EB0A0159454CD8286A8007F6D41FB150
:10258000E86920F08050E861E06988B36968C1F3C8
:102590008101022944D00228C6F8608004D0FFF7E8
:1025A00041FD044638E034E0FFF73CFD074604E017
:1025B000FFF738FDC01B02282BD828688001F7D40C
:1025C000206AB0F5803F05D16868A16820F400302A
:1025D00008436860D4E908010843696821F474116C
:1025E00008436860C6F86090FFF71CFD044606E0EB
:1025F00025E000BFFFF716FD001B022809D8286858
:102600008001F7D51BE000BFFFF70CFD001B02287F
:1026100002D90320BDE8F88F28688001F4D40EE0C9
:102620000128F7D06868226A00F48031914204D111
:10263000616A00F47010884201D00120EAE70020AE
:10264000E8E70000001002400000424280044242DD
:10265000100000200070004010B5401EB0F1807FD7
:1026600001D3012010BD4FF0E02460610F216017FD
:1026700000F025FB0020A06107202061002010BD94
:1026800070477047F8B5026804461068D16853690E
:1026900010F00F0F4FF0000553D003F0010601F4C6
:1026A000907737435FD0C20705D0CA0503D5226CA7
:1026B00042F001022264420705D5DA0703D0226CFA
:1026C00042F002022264820705D5DA0703D0226CA9
:1026D00042F004022264020707D501F020023243CF
:1026E00003D0226C42F008022264226C002A34D00B
:1026F000800604D5880602D5204600F0FFF9206840
:102700004069216CC0F38010090700D430B3204623
:1027100000F0DCF92068416949061BD5416921F0C8
:1027200040014161A06BA8B158494163A06BFFF71C
:1027300037FB002811D0A06B416B01B0BDE8F04021
:10274000084783060FD58B060DD52046BDE8F84017
:1027500000F0D4B92046FFF794FFF8BD2046FFF7FC
:1027600090FF2564F8BD266B2023012E52D1C606AA
:1027700050D5CE064ED5106850680090506940067E
:102780002AD5A16B086840680004000CEAD0A68D29
:102790008642E7D9E0858869202818D0D06820F4DF
:1027A0008070D0602068416921F00101416120689A
:1027B000416921F04001416184F83E302563206881
:1027C000C16821F01001C160A06BFFF7C5FAA08DB0
:1027D000E18D401A81B219E0A08DE18D401A81B2DD
:1027E000E08D0028BED00029BCD0D06820F49070C5
:1027F000D0602068426922F00102426184F83E30D4
:1028000025632068C26822F01002C2602046FFF7EC
:1028100037FFF8BD05062BD50D0629D594F83D00E8
:102820002128F6D1A068B0F5805F01D12069B0B150
:10283000206A411C2162216800784860E08C401EBB
:102840000004000CE084E4D12068C16821F080011C
:10285000C1602068C16841F04001C160F8BD206AD4
:102860000088C0F308005060206A801C2062E5E701
:102870004006F3D54806F1D5D168204621F0400145
:10288000D16084F83D3000F0DEF8F8BDBD2A0008C4
:1028900070B5040004D094F83D00002510B106E0A6
:1028A000012070BD84F83C50204600F023F824201D
:1028B00084F83D002068C16821F40051C1602046C1
:1028C00000F078F92068016921F4904101612068E5
:1028D000416921F02A0141612068C16841F4005139
:1028E000C1602564202084F83D0084F83E0000206B
:1028F00070BD000070B586B000240094019402946D
:1029000003942E4E03682E49022003222D4DB3421C
:1029100026D18B6943F480438B618B6903F4804338
:1029200004938B6943F004038B618969039201F07E
:10293000040104910102CDE9001069462846FFF721
:102940007BFA2815CDE90004694628460294FFF772
:1029500073FA002211462520FFF7D0FB252028E03E
:10296000194EB34227D1CB6943F40033CB61CB6915
:1029700003F4003304938B6943F004038B6189698A
:10298000039201F0040104910421CDE9001069468D
:102990002846FFF751FA0820CDE900046946284689
:1029A0000294FFF749FA002211462620FFF7A6FB02
:1029B0002620FFF795FB06B070BD000000380140EF
:1029C00000100240000801400044004090F83E30F2
:1029D000202B0ED159B152B190F83C30012B08D0C8
:1029E000012380F83C300023036300F03FB901204D
:1029F00070470220704700000249884201D1FFF76A
:102A0000F1B87047AC02002090F83D30202B18D16F
:102A1000A9B1A2B190F83C30012B12D0016282849E
:102A2000C28400210164212280F83D2080F83C10FE
:102A30000068C16841F08001C1600020704701203A
:102A40007047022070477047FEE7FEE7FEE77047D9
:102A50007047FFF7EDBA10B590B028216846FDF732
:102A600007FD14210AA8FDF703FD022000900120B4
:102A7000049010200024059007946846FFF75CFC42
:102A800008B172B6FEE70F20CDE90A040C940D944C
:102A900000210AA80E94FFF763FB002801D072B64C
:102AA000FEE710B010BD70474FF4007201490248B4
:102AB000FFF7AABF180000206802002010B5406A86
:102AC0000021C185C184FFF7DCFD10BD0168CA6823
:102AD00022F49072CA6001684A6922F001024A61D8
:102AE000016B012904D10168CA6822F01002CA6092
:102AF000202180F83E1000210163704708B590F84E
:102B00003E10222901D0022008BD82684FF4805374
:102B10009A4201D1016921B1816A9A421BD04AB11E
:102B20000AE00268816A5268C2F308020A80816A78
:102B3000891C08E0026972B10268526802F07F02E3
:102B40000A70816A491C8162C18D491E0904090C01
:102B5000C18503D019E002685268F1E70168CA68CC
:102B600022F02002CA600168CA6822F48072CA603A
:102B700001684A6922F001024A61202180F83E1072
:102B8000016B012903D0FFF737FF002008BD0021AA
:102B900001630168CA6822F01002CA6001680A680D
:102BA000D20602D50A6849680091818DFFF768FD59
:102BB000EBE7000070B5044600680169E26821F4A3
:102BC0004051114301612169A068084361690843CC
:102BD0002168CA6841F20C639A430243CA602068C4
:102BE0004169A26921F44071114341611E49206885
:102BF000884202D1FFF75AFB01E0FFF747FB00EBE9
:102C0000C00101EB0012606864218000B2FBF0F3A8
:102C1000B3FBF1F36FF018067343B2FBF0F5B2FBB0
:102C2000F0F605EB8305322303EB0515B5FBF1F553
:102C3000B6FBF1F605F0F00505EB0615B2FBF0F674
:102C4000B2FBF0F0B0FBF1F06FF01802504306EB6E
:102C5000800003EB0010B0FBF1F0216800F00F00E2
:102C60002844886070BD0000003801408162828580
:102C7000C28500210164222280F83E2080F83C10A9
:102C80000168CA6842F48072CA6001684A6942F009
:102C900001024A610068C16841F02001C160002062
:102CA000704700000148FFF7EDBC000068020020FB
:102CB0000148FFF7E7BC0000AC020020FEE709076F
:102CC000090E002804DB00F1E02080F800147047B2
:102CD00000F00F0000F1E02080F8141D7047002282
:102CE00013461046114600F0DFBA40F201320020D0
:102CF0004FF0E04101F072B8024A0020110701F0E4
:102D00006DB8000001FDFFFF10B50446D1E90001D8
:102D100000F002F8206010BDF8B504460D466A4682
:102D200000F0DEF800987E30009000281EDC0022C3
:102D300013462046294600F00FFC17D0002140F62C
:102D400008004FF0000006462046294600F0BEF974
:102D5000044640F6080006EA00014FF0000034F097
:102D6000004004BF0220FDF7B2FB29E00098FF28D5
:102D700028DB002108464FF0000000F44006002246
:102D800013462046294600F05BFD8CBF0025012537
:102D90000220FDF79CFB4FF0FF4446B1002D0CBF15
:102DA0004FF400004FF48000B04218BF084C0421DB
:102DB00008464FF00000002D04BF84F00040F8BD2D
:102DC0002046F8BD20462946BDE8F84000F07EB90F
:102DD000FFFF7F7F10B504460A46D4E90003194679
:102DE00000F0AAF8C4E9000110BD30380A2801D269
:102DF000012070470020704770B5054600F04CFE7A
:102E000000220F4B00F022F804460E460D492846DA
:102E100000F06EFE00F02EFF00F048FF0546002295
:102E2000094B2046314600F03FFA06460C4628463C
:102E300000F032FE32462346BDE8704000F078B91B
:102E4000000059400000C84200004E4070B51446D2
:102E50001D460E46002814BF01210021314321F0F8
:102E60000041C1F17F6101F1E041C90F16D1002C91
:102E700014BF01210021294321F00041C1F17F61EC
:102E800001F1E041C90F09D11449B1EB460F08BF68
:102E900000281CD0690008BF002C18D0314600F073
:102EA00021FC024640F2FF7030EA11500DD0F017BD
:102EB000B0EBE17F09D0084665F31E0084460B465F
:102EC0002046614600F0F2FC0246104670BD01202B
:102ED000FDF7FDFABDE87040FFF701BF0000E0FF1D
:102EE00010B5144600222260114A21F0004393429B
:102EF000A8BF10BD53EA000208BF10BDB3F5801F84
:102F0000A8BF226807DA362200F068FF6FF03502AA
:102F100021F000432260DFF81CC06FF31E510CEB60
:102F200023531A4441F0FF5141F00051226010BD7B
:102F30000000F07F02FCFFFF2DE9F04106460C4641
:102F400040F2FF75174635EA14502BD00022134685
:102F5000304600F001FB25D03A463046214600F0CD
:102F60003DFF06460C4635EA145010D000221346A9
:102F7000304600F0F1FA15D10220FDF7A8FAFFF76C
:102F8000BBFE0A46214662F31E01BDE8F081022025
:102F9000FDF79DFAFFF7A9FE0A46214662F31E01DE
:102FA000BDE8F08130462146BDE8F08186B0FFF7EC
:102FB00047F8FFF750FD002429480094019402943B
:102FC0000394816941F020018161816901F0200150
:102FD0000491816941F0040181618069214F00F011
:102FE00004000490002210213846FFF715F8102045
:102FF00000900120CDE90104022003906946384683
:10300000FEF71AFF194818494FF416550160C0E938
:1030100001540C26C460C0E904468461C461FFF712
:1030200037FC08B172B6FEE7104811494438016018
:10303000C0E90154C460C0E904468461C461FFF77B
:1030400027FC08B172B6FEE7012210213846FEF7D0
:10305000E3FFFEF773FE00BFFEF7EAFDFCE70000AA
:10306000001002400008014000440040AC02002073
:103070000038014010B500290AD00878002807D090
:1030800005487844FEF78EF9002801D0002010BDD5
:103090000248784410BD00001A0F0000120F000013
:1030A00010B500290AD00878002807D005487844D0
:1030B000FEF778F9002801D0002010BD02487844BE
:1030C00010BD00000A0F0000020F000021F00042B6
:1030D000A2F16052B2F5801F01F0004328BFD2F187
:1030E0007F6C0BD95FEA001C43EAC20242EB5070CE
:1030F00018BF704728BF20F001007047B2F5801F4D
:10310000BCBF184670474FEA410C1CF5001F02D2A5
:10311000084600F029BE70B500F096FA000000895C
:10312000FFF7F6BF4FF00040A0F5800070470000A9
:1031300010B591EA030F48BF83F0004300F1CA8342
:10314000841A71EB030C05D2121943EB0C03001B1C
:1031500061EB0C01DFF824E14FEA1154A4EB135C9E
:103160001EEA430F18BF9EEA445F73D023EA0E03A2
:10317000DCF1200E21EA045143F4801332D322FA09
:103180000CFE10EB0E0023FA0CFE41EB0E01CCF10D
:10319000200E03FA0EFE10EB0E0051F10001B1F506
:1031A000801FCCF1200E32D201EB045112FA0EF244
:1031B000BDE8104058BF7047401C38BF5FEA42026C
:1031C00018BF7047002814BF20F0010041F1000132
:1031D0004FEA410313F5001F38BF7047A1F1C0410A
:1031E00000F028BB012A43EB0302ACF1200CDCF118
:1031F0001F0E32BF4FF0000E23FA0CF310EB03004A
:1032000041EB0451B4EB115FD0D0A1EB045101F5B7
:10321000801149085FEA300001EB04510ED350F1F0
:10322000000038BF12FA0EFE08D1BDE81040C9E711
:10323000401C38BF5FEA4202CAD1C3E7BDE8104074
:103240004FEA410313F5001F38BF7047A1F1C04199
:1032500000F0F0BA9EEA445F08D011EA5E0FBDE8C4
:10326000104004BF01F0004100207047BDE810404D
:1032700070B500F0E9F900BF64FBBE3E0000E0FF5E
:1032800002494FF0000000F077BD00BF0000F87F5A
:10329000491058BFC1F140415B1058BFC3F14043D2
:1032A0008B42EFF3008070472DE9C04130B4DFF866
:1032B000A0C23CEA111418BF3CEA131400F0EC80E1
:1032C00081EA03051CEA111444EAD57418BF1CEA0C
:1032D000131500F0C780A4EB05044FF0004545EA44
:1032E000C12145EAC32341EA505143EA525304F154
:1032F0007F74994204F500344FEAC0204FEAC2229D
:1033000008BF904200F09C804FEA13650FF2401610
:10331000765D4FEA134506FB05F7C7F1807706FB9C
:1033200007F74FEAD737A7FB03687642C8F580381E
:10333000A7FB06CE38BFA8F1010807FB08E64FF04F
:10334000000EA6FB028CE6FB03CEDCF1000CCEF1F6
:10335000004E38BFAEF1010EA6FB0C584FF000072F
:103360004FF00005E6FB0E87A1FB08C6A0FB07CEC9
:1033700016EB0E0645F10005E1FB076515F1E04E81
:103380007EBFA4F580345FEA46066D4116F18007E2
:1033900045F100054FEA17274FEA066647EA056739
:1033A000A6F1DE46B6F1805F4FEA15251FD93846F3
:1033B00024F0010C05EBC471BCF1FE6F01EB0C11A4
:1033C00002D8F0BCBDE8008124425CBF01F5801E3C
:1033D0009EEAC47F02D4F0BCBDE80081244238D408
:1033E000F0BCA1F1C041BDE8004100F023BA4FEAB2
:1033F000D22242EA43524FEAD323A7FB02864FEA86
:10340000D02040EA415007FB03661EEA0E0F4FEA48
:10341000D12105FB026658BFA6EB0056B6EB00565D
:103420004FEA520E4EEAC37E18EB0E0E56EB530EC9
:10343000BDD518EB02085E417F1C55F10005B6E7CB
:103440004FF480154FF000074FF000064FF00008D2
:10345000ADE7F0BC4FF0000001F1C04101F00041C8
:10346000BDE8008111EA0C1F0CEA131500D00CE036
:1034700013EA0C1F00F025804FF00000F0BC81EA39
:10348000030101F00041BDE80081F0BCBDE800414E
:1034900081EA030100F0CEB9F0BCBDE8004170B58F
:1034A00000F0D2F8097EFC3E00F007B881EA030183
:1034B0004FF0000001F00041704781EA030100F085
:1034C000B9B9F0BCBDE800414FF000002149704798
:1034D000FFFDFBF9F7F5F4F2F0EEEDEBE9E8E6E4D9
:1034E000E3E1E0DEDDDBDAD8D7D5D4D3D1D0CFCD60
:1034F000CCCBCAC8C7C6C5C4C2C1C0BFBEBDBCBB99
:10350000BAB9B8B7B6B5B4B3B2B1B0AFAEADACAB93
:10351000AAA9A8A8A7A6A5A4A3A3A2A1A09F9F9E6D
:103520009D9C9C9B9A99999897979695959493931F
:10353000929191908F8F8E8E8D8C8C8B8B8A8989B6
:103540008888878786858584848383828281818039
:103550000000FF070000F87F51EA030C17D41CF5A8
:10356000801F58BFBCF5801F00F10680994218BF2C
:10357000704708BF9042704707D711F5801F58BFAA
:1035800013F5801F19D499427047894270471CF582
:10359000801F08D5BCF5801FF7D58B4218BF704738
:1035A00008BF824270474FF4001C1CEB410F38BF2C
:1035B0001CEB430F01D28B42704770B500F044F80A
:1035C000922449004FF000514FF08053FFF760BE46
:1035D00051EA030C17D41CF5801F58BFBCF5801F9F
:1035E00000F10680994218BF704708BF90427047AB
:1035F00007D711F5801F58BF13F5801F19D49942C2
:103600007047894270471CF5801F08D5BCF5801FA4
:10361000F7D58B4218BF704708BF824270474FF4FE
:10362000001C1CEB410F38BF1CEB430F01D28B4237
:10363000704770B500F008F8922449004FF000512F
:103640004FF08053FFF724BE0EF1020E2EF0030E52
:103650005EF8046B364205D4012A43EB030515F5E9
:10366000001F12D8012841EB010C1CF5001F0CD8DB
:103670000ED14FEAD17C15F5001F0CEB4C0C0CF170
:10368000020C08BF4CEBD37C04E04FF0080C01E0C7
:103690004FEAD37C0CEB4C0526FA05F606F007063C
:1036A000B6F1040C06D20EEB860CBDE870404CF06F
:1036B000010C6047DFE80CF0090B02024FF00041FB
:1036C0004FF00000A1F5002170BD194610460128F9
:1036D00051EB010418BFD4F5001484BF002001F0A1
:1036E000004170BDDFF844C170B53CEA111418BF49
:1036F0003CEA131500F08F8011F1004F1CEA1315FE
:103700000CEA111468BF45F0050518BF11EA0C1F3B
:1037100000F079802E4621EA4C1123EA4C1341F443
:10372000801143F48013A5F58035AC423DDD801A4D
:103730009941A4F5803609D54042C1F1000134BF5A
:10374000B1F10101B1F1000185F0010511F4F01FA3
:1037500008D011F4801FE8D1400041EB0101A4F52D
:103760008034F6E721F00041B1FA81F6202E04BF43
:10377000B0FA80FE0EF12006A6F10B06B6F1200E7F
:10378000A4EB06440CD2C6F1200E01FA06F120FA91
:103790000EF641EA0601CEF1200600FA06F003E03B
:1037A00000FA0EF14FF00000BFE750EA410E23D0BF
:1037B0004FEA244EBEEB254F0FDB994208BF9042E3
:1037C00004D00AD3520043EB0303B0E74FEA164696
:1037D000B6EB144F08BF85F00105B4F5803401EB5A
:1037E000041181EAC57100DB70BD01F1C0414FF0E9
:1037F000000001F0004170BD4FEA45714FF000003C
:1038000001F0004170BD1CEA131F09D04FF0000009
:1038100001F0004170BDFFF717FF00BFEDFFFF3E55
:10382000BDE870404FF00000014970470000FF07FD
:103830000000F87F0808A0F500114FEA3101704739
:1038400053EA010C17D41CF5801F58BFBCF5801F2C
:1038500000F106808B4218BF704708BF8242704754
:1038600007D713F5801F58BF11F5801F19D48B425D
:1038700070479B4270471CF5801F08D5BCF5801F20
:10388000F7D5994218BF704708BF904270474FF470
:10389000001C1CEB430F38BF1CEB410F01D29942B7
:1038A00070470FB40CBC03BCFFF7C3BE91EA030F13
:1038B00010B581F000413FF543AC83F0004300F0C8
:1038C00009B8000010B591EA030F48BF83F0004328
:1038D0003FF536AC841A71EB030C07D212198CF049
:1038E000004C43EB0C03001B61EB0C01DFF8A4E17F
:1038F0004FEA1154A4EB135C1EEA430F18BF9EEA73
:10390000445F00F0B08023EA6E03524221EA045182
:10391000C3EB6E0338BF5B1EDCF1200E25D322FA09
:103920000CFE10EB0E0043FA0CFE41EB0E01CCF145
:10393000200E03FA0EFE10EB0E0051F10001CCF147
:10394000200E29D412FA0EF201EB0451BDE810400A
:1039500058BF7047401C1CBFB2F1004F7047002891
:103960000CBF491C20F00100704712EB020E43EB24
:10397000030218BF4FF0010E4EEA4202ACF1200CD8
:10398000DCF11E0E54D943FA0CFE10EB0E0051F17F
:10399000FF31CCF11E0ED5D50EF1010E12FA0EFE3E
:1039A000404141EB010101EB445C5FEA5C5C10D9F2
:1039B00010EBDE7001EB045138BFBEF1004FBDE8E3
:1039C000104018BF704700280CBF491C20F00100B0
:1039D000704730D24FEAD42C11F5001124F4006462
:1039E0001BD0B1FA81F20B3AA41AA41ED2F1200323
:1039F000914030FA03F31943904001EBCC71002C55
:103A000001EB0451BDE81040A8BF704701F1C0416F
:103A10004FF0000001F000417047B0FA80F310FA57
:103A200003F100D110BDE41A173C4805C90AE4E7C8
:103A300001EB045110BD491001EB0451BDE81040E9
:103A40004FEA300002E04FF0000170474A0008BF23
:103A50000042F8D0B2F5001F28BF704701F00041C6
:103A60004FF0000070479EEA445F07D011EA5E0FF6
:103A7000BDE8104004BF002100207047BDE81040A1
:103A800070B5FFF7E1FD00BF40DFF63E83F0004177
:103A9000104670470000E0FF43004FEAD30C4FEAA6
:103AA0003C0C43401FBF40070CF1605113F0FE4F28
:103AB00070471CF0006F03D100200CF000417047EC
:103AC0000CF0004343EA507010B540EACC0000F01F
:103AD00005F900BF000000924FEA0001FFF7AABEFF
:103AE0004FF000414FF00000A1F5002170470000A9
:103AF0004FF47F0C1CEAD0121EBF1CEAD11392EACD
:103B00000C0F93EA0C0F00F0858090EA010F48BF7C
:103B100042F4807240F4000C41F400002CF07F412C
:103B200020F07F4000B58142A2EB03020FF2081C97
:103B3000ACEB504EC0F100009EF800E04FEA4E0E94
:103B400000FB0EFC38BF49004FEA2C1C02F5FA02BC
:103B50000CFB0EF34FEACE1E4FEA112C4FEAC121A7
:103B60000EEB635E42EB22420EFB0CFC4FEA1C5351
:103B700000FB03114FEA112C4FEA01310EFB0CFC44
:103B80004FEADC4C00FB0C11C14228BF09184CEB7A
:103B900003335DF804EB10EB410143EBC250B2F587
:103BA0007C0F38BF704729D512F0F00F1CBF00F111
:103BB000C04000F000407047008182838485868782
:103BC00088898B8C8D8E8F919293959697999A9CDC
:103BD0009D9FA0A2A3A5A7A8AAACAEB0B2B3B5B74B
:103BE000B9BCBEC0C2C5C7C9CCCED1D4D7D9DCDF21
:103BF000E2E6E9ECF0F3F7FAFE0000004FEA400CD1
:103C00000CF1807CBCF17E4F28BF7047B0F1C04002
:103C100000F0AAB890EA010F0CEAD11348BF42F4B1
:103C20008072624538BF634507D213F47F0F16D008
:103C300080EA010000F00040704710B500F04EF837
:103C4000097EFC3E00F005B880EA010000F000406B
:103C5000704780EA010000F0004000F085B812F4DF
:103C60007F0F04BF0248704780EA010000F07CB873
:103C70000000C07F41000B0ED3F19E0208D950F422
:103C800000034FEA032323FA02F048BF4042704783
:103C900010B500F023F800BF49922480002070473F
:103CA0006FF0004282EA20007047000010F00041EF
:103CB00048BF4042B0FA80F310FA03F2C3F19D030B
:103CC0000BD051EAC35101EB1220530638BF7047A5
:103CD00000F1010008BF20F0010070470EF1020E54
:103CE0002EF0030E5EF8044B244204D44FEA410246
:103CF000B2F17F4F11D84FEA4003B3F17F4F0CD898
:103D00000ED14FEAD07CB2F17F4F0CEB4C0C0CF192
:103D1000020C08BF4CEBD17C04E04FF0080C01E032
:103D20004FEAD17C0CEB4C0324FA03F404F00704B3
:103D3000B4F1040C06D20EEB840CBDE810404CF03C
:103D4000010C6047DFE80CF0070802024FF000406A
:103D5000A0F5800010BD0846420018BFD2F1807265
:103D600088BF00F0004010BDFF2141EAD050C005DF
:103D700070474FF0000070470CF00F03092B08BF8D
:103D8000082000F05F800A2B0BD0082B18BF70476B
:103D900008BF1CF0400F0AD04FF000004FF00001A8
:103DA00070471CF0400F18BF4FF0004070471CF0E8
:103DB000100F08D020F0704300F07F4242EAD30198
:103DC0004FEA4370704700F0604021F07F4242EAC2
:103DD000000201F07F4040EA727070474FF0FF0C24
:103DE0004CF4E06C1CEA11531CBF9CEA030C944594
:103DF000C2BFDA4201EB02517047002B0DD0BCF17B
:103E0000000F0FD0002A01F00041A4BF41F0E041B3
:103E100041F07F614FF00000704701F000414FF02A
:103E20000000704750EA01334FF09B0C18BF4CF074
:103E3000806C7FF425AA7047FCF784BCFDF77EB840
:103E4000FDF70CBA1CF4801F11D01CF4E02F03D036
:103E50006FEACC31490070474FF04050EFF30082D9
:103E600022F0704242EA000282F3008870474FF06D
:103E70000000704700000000000000000102030481
:103E800006070809000000000102030402400000C8
:103E9000000000A00000000005400000000000C875
:103EA000000000000C4000000000409C00000000EA
:103EB000194000000020BCBE00000000344000009B
:103EC000BFC91B8E00000004B5400000504BCFD08E
:103ED0006607E2CF010000006C4100003E8251AA5B
:103EE000DFEEA73401000000D9420000DCB5A0E2FB
:103EF0003A301F97FFFFFFFFB4450000FD25A0C823
:103F0000E9A3C14FFFFFFFFFFF3F0000000000805B
:103F100000000000FF3F00000000008000000000E3
:103F20002447504747412C25326868642532686829
:103F30006425326868642E253368642C25662C2538
:103F4000632C25662C25632C256868642C256868FD
:103F5000642C25662C25662C25632C2568642C256D
:103F6000732C2A2532730D0A00000000C840000897
:103F7000000000201400000028010008DC400008B8
:103F8000140000203C09000044010008000000006B
:103F90000000F07FFFFFFFFFFFFFEF7F1C0000002E
:103FA00043000000F8FFFFFF0C0000000E000000BF
:103FB0000F0000002E000000100100004300000070
:103FC000F8FFFFFF0040404040404040404041413A
:103FD00041414140404040404040404040404040DE
:103FE0004040404040050202020202020202020278
:103FF0000202020202202020202020202020200275
:104000000202020202029090909090901010101004
:1040100010101010101010101010101010101010A0
:104020000202020202028888888888880808080834
:104030000808080808080808080808080808080800
:104040000202020240000000000000000000000028
:104050000000000000000000000000000000000060
:104060000000000000000000000000000000000050
:104070000000000000000000000000000000000040
:104080000000000000000000000000000000000030
:104090000000000000000000000000000000000020
:1040A0000000000000000000000000000000000010
:1040B0000000000000000000000000000000000000
:1040C00000000000000000000300000001000000EC
:0C40D00010000000000000000024F400BC
:04000005080000ED02
:00000001FF
